{"abi":[{"type":"constructor","inputs":[{"name":"_poolManager","type":"address","internalType":"contract IPoolManager"}],"stateMutability":"nonpayable"},{"type":"function","name":"_owner","inputs":[],"outputs":[{"name":"","type":"address","internalType":"address"}],"stateMutability":"view"},{"type":"function","name":"afterAddLiquidity","inputs":[{"name":"","type":"address","internalType":"address"},{"name":"","type":"tuple","internalType":"struct PoolKey","components":[{"name":"currency0","type":"address","internalType":"Currency"},{"name":"currency1","type":"address","internalType":"Currency"},{"name":"fee","type":"uint24","internalType":"uint24"},{"name":"tickSpacing","type":"int24","internalType":"int24"},{"name":"hooks","type":"address","internalType":"contract IHooks"}]},{"name":"","type":"tuple","internalType":"struct IPoolManager.ModifyLiquidityParams","components":[{"name":"tickLower","type":"int24","internalType":"int24"},{"name":"tickUpper","type":"int24","internalType":"int24"},{"name":"liquidityDelta","type":"int256","internalType":"int256"}]},{"name":"","type":"int256","internalType":"BalanceDelta"},{"name":"","type":"bytes","internalType":"bytes"}],"outputs":[{"name":"","type":"bytes4","internalType":"bytes4"}],"stateMutability":"nonpayable"},{"type":"function","name":"afterDonate","inputs":[{"name":"","type":"address","internalType":"address"},{"name":"","type":"tuple","internalType":"struct PoolKey","components":[{"name":"currency0","type":"address","internalType":"Currency"},{"name":"currency1","type":"address","internalType":"Currency"},{"name":"fee","type":"uint24","internalType":"uint24"},{"name":"tickSpacing","type":"int24","internalType":"int24"},{"name":"hooks","type":"address","internalType":"contract IHooks"}]},{"name":"","type":"uint256","internalType":"uint256"},{"name":"","type":"uint256","internalType":"uint256"},{"name":"","type":"bytes","internalType":"bytes"}],"outputs":[{"name":"","type":"bytes4","internalType":"bytes4"}],"stateMutability":"nonpayable"},{"type":"function","name":"afterInitialize","inputs":[{"name":"","type":"address","internalType":"address"},{"name":"","type":"tuple","internalType":"struct PoolKey","components":[{"name":"currency0","type":"address","internalType":"Currency"},{"name":"currency1","type":"address","internalType":"Currency"},{"name":"fee","type":"uint24","internalType":"uint24"},{"name":"tickSpacing","type":"int24","internalType":"int24"},{"name":"hooks","type":"address","internalType":"contract IHooks"}]},{"name":"","type":"uint160","internalType":"uint160"},{"name":"","type":"int24","internalType":"int24"},{"name":"","type":"bytes","internalType":"bytes"}],"outputs":[{"name":"","type":"bytes4","internalType":"bytes4"}],"stateMutability":"nonpayable"},{"type":"function","name":"afterRemoveLiquidity","inputs":[{"name":"","type":"address","internalType":"address"},{"name":"","type":"tuple","internalType":"struct PoolKey","components":[{"name":"currency0","type":"address","internalType":"Currency"},{"name":"currency1","type":"address","internalType":"Currency"},{"name":"fee","type":"uint24","internalType":"uint24"},{"name":"tickSpacing","type":"int24","internalType":"int24"},{"name":"hooks","type":"address","internalType":"contract IHooks"}]},{"name":"","type":"tuple","internalType":"struct IPoolManager.ModifyLiquidityParams","components":[{"name":"tickLower","type":"int24","internalType":"int24"},{"name":"tickUpper","type":"int24","internalType":"int24"},{"name":"liquidityDelta","type":"int256","internalType":"int256"}]},{"name":"","type":"int256","internalType":"BalanceDelta"},{"name":"","type":"bytes","internalType":"bytes"}],"outputs":[{"name":"","type":"bytes4","internalType":"bytes4"}],"stateMutability":"nonpayable"},{"type":"function","name":"afterSwap","inputs":[{"name":"","type":"address","internalType":"address"},{"name":"","type":"tuple","internalType":"struct PoolKey","components":[{"name":"currency0","type":"address","internalType":"Currency"},{"name":"currency1","type":"address","internalType":"Currency"},{"name":"fee","type":"uint24","internalType":"uint24"},{"name":"tickSpacing","type":"int24","internalType":"int24"},{"name":"hooks","type":"address","internalType":"contract IHooks"}]},{"name":"","type":"tuple","internalType":"struct IPoolManager.SwapParams","components":[{"name":"zeroForOne","type":"bool","internalType":"bool"},{"name":"amountSpecified","type":"int256","internalType":"int256"},{"name":"sqrtPriceLimitX96","type":"uint160","internalType":"uint160"}]},{"name":"","type":"int256","internalType":"BalanceDelta"},{"name":"","type":"bytes","internalType":"bytes"}],"outputs":[{"name":"","type":"bytes4","internalType":"bytes4"}],"stateMutability":"nonpayable"},{"type":"function","name":"afterSwapCount","inputs":[{"name":"","type":"bytes32","internalType":"PoolId"}],"outputs":[{"name":"count","type":"uint256","internalType":"uint256"}],"stateMutability":"view"},{"type":"function","name":"beforeAddLiquidity","inputs":[{"name":"","type":"address","internalType":"address"},{"name":"","type":"tuple","internalType":"struct PoolKey","components":[{"name":"currency0","type":"address","internalType":"Currency"},{"name":"currency1","type":"address","internalType":"Currency"},{"name":"fee","type":"uint24","internalType":"uint24"},{"name":"tickSpacing","type":"int24","internalType":"int24"},{"name":"hooks","type":"address","internalType":"contract IHooks"}]},{"name":"","type":"tuple","internalType":"struct IPoolManager.ModifyLiquidityParams","components":[{"name":"tickLower","type":"int24","internalType":"int24"},{"name":"tickUpper","type":"int24","internalType":"int24"},{"name":"liquidityDelta","type":"int256","internalType":"int256"}]},{"name":"","type":"bytes","internalType":"bytes"}],"outputs":[{"name":"","type":"bytes4","internalType":"bytes4"}],"stateMutability":"nonpayable"},{"type":"function","name":"beforeAddLiquidityCount","inputs":[{"name":"","type":"bytes32","internalType":"PoolId"}],"outputs":[{"name":"count","type":"uint256","internalType":"uint256"}],"stateMutability":"view"},{"type":"function","name":"beforeDonate","inputs":[{"name":"","type":"address","internalType":"address"},{"name":"","type":"tuple","internalType":"struct PoolKey","components":[{"name":"currency0","type":"address","internalType":"Currency"},{"name":"currency1","type":"address","internalType":"Currency"},{"name":"fee","type":"uint24","internalType":"uint24"},{"name":"tickSpacing","type":"int24","internalType":"int24"},{"name":"hooks","type":"address","internalType":"contract IHooks"}]},{"name":"","type":"uint256","internalType":"uint256"},{"name":"","type":"uint256","internalType":"uint256"},{"name":"","type":"bytes","internalType":"bytes"}],"outputs":[{"name":"","type":"bytes4","internalType":"bytes4"}],"stateMutability":"nonpayable"},{"type":"function","name":"beforeInitialize","inputs":[{"name":"","type":"address","internalType":"address"},{"name":"","type":"tuple","internalType":"struct PoolKey","components":[{"name":"currency0","type":"address","internalType":"Currency"},{"name":"currency1","type":"address","internalType":"Currency"},{"name":"fee","type":"uint24","internalType":"uint24"},{"name":"tickSpacing","type":"int24","internalType":"int24"},{"name":"hooks","type":"address","internalType":"contract IHooks"}]},{"name":"","type":"uint160","internalType":"uint160"},{"name":"","type":"bytes","internalType":"bytes"}],"outputs":[{"name":"","type":"bytes4","internalType":"bytes4"}],"stateMutability":"nonpayable"},{"type":"function","name":"beforeRemoveLiquidity","inputs":[{"name":"","type":"address","internalType":"address"},{"name":"","type":"tuple","internalType":"struct PoolKey","components":[{"name":"currency0","type":"address","internalType":"Currency"},{"name":"currency1","type":"address","internalType":"Currency"},{"name":"fee","type":"uint24","internalType":"uint24"},{"name":"tickSpacing","type":"int24","internalType":"int24"},{"name":"hooks","type":"address","internalType":"contract IHooks"}]},{"name":"","type":"tuple","internalType":"struct IPoolManager.ModifyLiquidityParams","components":[{"name":"tickLower","type":"int24","internalType":"int24"},{"name":"tickUpper","type":"int24","internalType":"int24"},{"name":"liquidityDelta","type":"int256","internalType":"int256"}]},{"name":"","type":"bytes","internalType":"bytes"}],"outputs":[{"name":"","type":"bytes4","internalType":"bytes4"}],"stateMutability":"nonpayable"},{"type":"function","name":"beforeRemoveLiquidityCount","inputs":[{"name":"","type":"bytes32","internalType":"PoolId"}],"outputs":[{"name":"count","type":"uint256","internalType":"uint256"}],"stateMutability":"view"},{"type":"function","name":"beforeSwap","inputs":[{"name":"","type":"address","internalType":"address"},{"name":"","type":"tuple","internalType":"struct PoolKey","components":[{"name":"currency0","type":"address","internalType":"Currency"},{"name":"currency1","type":"address","internalType":"Currency"},{"name":"fee","type":"uint24","internalType":"uint24"},{"name":"tickSpacing","type":"int24","internalType":"int24"},{"name":"hooks","type":"address","internalType":"contract IHooks"}]},{"name":"params","type":"tuple","internalType":"struct IPoolManager.SwapParams","components":[{"name":"zeroForOne","type":"bool","internalType":"bool"},{"name":"amountSpecified","type":"int256","internalType":"int256"},{"name":"sqrtPriceLimitX96","type":"uint160","internalType":"uint160"}]},{"name":"data","type":"bytes","internalType":"bytes"}],"outputs":[{"name":"","type":"bytes4","internalType":"bytes4"}],"stateMutability":"nonpayable"},{"type":"function","name":"beforeSwapCount","inputs":[{"name":"","type":"bytes32","internalType":"PoolId"}],"outputs":[{"name":"count","type":"uint256","internalType":"uint256"}],"stateMutability":"view"},{"type":"function","name":"eip712Domain","inputs":[],"outputs":[{"name":"fields","type":"bytes1","internalType":"bytes1"},{"name":"name","type":"string","internalType":"string"},{"name":"version","type":"string","internalType":"string"},{"name":"chainId","type":"uint256","internalType":"uint256"},{"name":"verifyingContract","type":"address","internalType":"address"},{"name":"salt","type":"bytes32","internalType":"bytes32"},{"name":"extensions","type":"uint256[]","internalType":"uint256[]"}],"stateMutability":"view"},{"type":"function","name":"getHookPermissions","inputs":[],"outputs":[{"name":"","type":"tuple","internalType":"struct Hooks.Permissions","components":[{"name":"beforeInitialize","type":"bool","internalType":"bool"},{"name":"afterInitialize","type":"bool","internalType":"bool"},{"name":"beforeAddLiquidity","type":"bool","internalType":"bool"},{"name":"afterAddLiquidity","type":"bool","internalType":"bool"},{"name":"beforeRemoveLiquidity","type":"bool","internalType":"bool"},{"name":"afterRemoveLiquidity","type":"bool","internalType":"bool"},{"name":"beforeSwap","type":"bool","internalType":"bool"},{"name":"afterSwap","type":"bool","internalType":"bool"},{"name":"beforeDonate","type":"bool","internalType":"bool"},{"name":"afterDonate","type":"bool","internalType":"bool"}]}],"stateMutability":"pure"},{"type":"function","name":"getStructHash","inputs":[{"name":"_amount","type":"int256","internalType":"int256"},{"name":"_blockNumber","type":"uint256","internalType":"uint256"},{"name":"_nonce","type":"uint256","internalType":"uint256"},{"name":"_trustScore","type":"uint8","internalType":"uint8"}],"outputs":[{"name":"","type":"bytes32","internalType":"bytes32"}],"stateMutability":"pure"},{"type":"function","name":"lockAcquired","inputs":[{"name":"data","type":"bytes","internalType":"bytes"}],"outputs":[{"name":"","type":"bytes","internalType":"bytes"}],"stateMutability":"nonpayable"},{"type":"function","name":"name","inputs":[],"outputs":[{"name":"","type":"string","internalType":"string"}],"stateMutability":"pure"},{"type":"function","name":"owner","inputs":[],"outputs":[{"name":"","type":"address","internalType":"address"}],"stateMutability":"view"},{"type":"function","name":"poolManager","inputs":[],"outputs":[{"name":"","type":"address","internalType":"contract IPoolManager"}],"stateMutability":"view"},{"type":"function","name":"renounceOwnership","inputs":[],"outputs":[],"stateMutability":"nonpayable"},{"type":"function","name":"setSigner","inputs":[{"name":"_signer","type":"address","internalType":"address"}],"outputs":[],"stateMutability":"nonpayable"},{"type":"function","name":"setTrustScore","inputs":[{"name":"score","type":"uint8","internalType":"uint8"}],"outputs":[],"stateMutability":"nonpayable"},{"type":"function","name":"transferOwnership","inputs":[{"name":"newOwner","type":"address","internalType":"address"}],"outputs":[],"stateMutability":"nonpayable"},{"type":"event","name":"EIP712DomainChanged","inputs":[],"anonymous":false},{"type":"event","name":"OwnershipTransferred","inputs":[{"name":"previousOwner","type":"address","indexed":true,"internalType":"address"},{"name":"newOwner","type":"address","indexed":true,"internalType":"address"}],"anonymous":false},{"type":"event","name":"SetSigner","inputs":[{"name":"signer","type":"address","indexed":true,"internalType":"address"}],"anonymous":false},{"type":"error","name":"ECDSAInvalidSignature","inputs":[]},{"type":"error","name":"ECDSAInvalidSignatureLength","inputs":[{"name":"length","type":"uint256","internalType":"uint256"}]},{"type":"error","name":"ECDSAInvalidSignatureS","inputs":[{"name":"s","type":"bytes32","internalType":"bytes32"}]},{"type":"error","name":"HookAddressNotValid","inputs":[{"name":"hooks","type":"address","internalType":"address"}]},{"type":"error","name":"HookNotImplemented","inputs":[]},{"type":"error","name":"InvalidPool","inputs":[]},{"type":"error","name":"InvalidShortString","inputs":[]},{"type":"error","name":"LockFailure","inputs":[]},{"type":"error","name":"NotPoolManager","inputs":[]},{"type":"error","name":"NotSelf","inputs":[]},{"type":"error","name":"OwnableInvalidOwner","inputs":[{"name":"owner","type":"address","internalType":"address"}]},{"type":"error","name":"OwnableUnauthorizedAccount","inputs":[{"name":"account","type":"address","internalType":"address"}]},{"type":"error","name":"StringTooLong","inputs":[{"name":"str","type":"string","internalType":"string"}]}],"bytecode":{"object":"0x610180604052600380546001600160a01b03199081167339e6db77941463eea0b323f66509eadf0bf0bf1b179091556005805460ff19166046179055600a8054909116905534801562000050575f80fd5b506040516200196638038062001966833981016040819052620000739162000447565b600a54604080518082018252600b81526a2437b7b5a6b0b730b3b2b960a91b602080830191909152825180840190935260018352603160f81b908301526001600160a01b03848116608052909216919083620000cf3062000198565b50620000dc825f6200024e565b61014052620000ed8160016200024e565b61016052815160208084019190912061010052815190820120610120524660c0526200017c6101005161012051604080517f8b73c3c69bb8fe3d512ecc4cf759cc79239f7b179b0ffacaa9a75d522b39400f60208201529081019290925260608201524660808201523060a08201525f9060c00160405160208183030381529060405280519060200120905090565b60a05250503060e052620001908162000286565b505062000652565b6200024b816200024560408051610140810182525f80825260208201819052918101829052606081018290526080810182905260a0810182905260c0810182905260e0810182905261010081018290526101208101919091525060408051610140810182525f80825260208201819052918101829052606081018290526080810182905260a08101829052600160c082015260e08101829052610100810182905261012081019190915290565b620002d7565b50565b5f6020835110156200026d57620002658362000405565b905062000280565b816200027a848262000514565b5060ff90505b92915050565b600280546001600160a01b038381166001600160a01b0319831681179093556040519116919082907f8be0079c531659141344cd1fd0a4f28419497f9722a3daafe3b4186f6b6457e0905f90a35050565b805115156001609f1b83161515141580620003005750602081015115156001609e1b8316151514155b806200031a5750604081015115156001609d1b8316151514155b80620003345750606081015115156001609c1b8316151514155b806200034e5750608081015115156001609b1b8316151514155b8062000368575060a081015115156001609a1b8316151514155b8062000382575060c08101511515600160991b8316151514155b806200039c575060e08101511515600160981b8316151514155b80620003b757506101008101511515600160971b8316151514155b80620003d257506101208101511515600160961b8316151514155b156200040157604051630732d7b560e51b81526001600160a01b03831660048201526024015b60405180910390fd5b5050565b5f80829050601f8151111562000432578260405163305a27a960e01b8152600401620003f89190620005e0565b80516200043f826200062e565b179392505050565b5f6020828403121562000458575f80fd5b81516001600160a01b03811681146200046f575f80fd5b9392505050565b634e487b7160e01b5f52604160045260245ffd5b600181811c908216806200049f57607f821691505b602082108103620004be57634e487b7160e01b5f52602260045260245ffd5b50919050565b601f8211156200050f57805f5260205f20601f840160051c81016020851015620004eb5750805b601f840160051c820191505b818110156200050c575f8155600101620004f7565b50505b505050565b81516001600160401b0381111562000530576200053062000476565b62000548816200054184546200048a565b84620004c4565b602080601f8311600181146200057e575f8415620005665750858301515b5f19600386901b1c1916600185901b178555620005d8565b5f85815260208120601f198616915b82811015620005ae578886015182559484019460019091019084016200058d565b5085821015620005cc57878501515f19600388901b60f8161c191681555b505060018460011b0185555b505050505050565b5f602080835283518060208501525f5b818110156200060e57858101830151858201604001528201620005f0565b505f604082860101526040601f19601f8301168501019250505092915050565b80516020808301519190811015620004be575f1960209190910360031b1b16919050565b60805160a05160c05160e051610100516101205161014051610160516112c0620006a65f395f61095701525f61092601525f50505f50505f50505f50505f50505f8181610427015261067401526112c05ff3fe608060405234801561000f575f80fd5b5060043610610187575f3560e01c8063ab6291fe116100d9578063c4e833ce11610093578063db6a94511161006e578063db6a945114610403578063dc4c90d314610422578063e1b4af6914610303578063f2fde38b14610449575f80fd5b8063c4e833ce14610311578063c6939957146103c5578063dacdbe77146103e4575f80fd5b8063ab6291fe146102cf578063b2bdfa7b146102e2578063b47b2fb1146102f5578063b505b4ce146102f5578063b6a8b0fa14610303578063c3d5d4e6146102f5575f80fd5b80636c19e783116101445780638da5cb5b1161011f5780638da5cb5b146102895780639d4ad6d2146102ae578063a6ab2a43146101c4578063a910f80f146102c1575f80fd5b80636c19e78314610253578063715018a61461026657806384b0196e1461026e575f80fd5b806306fdde031461018b5780632b58404e146101c45780633440d820146101f05780633da4c1ec146101fe578063575e24b4146102135780635c338d3214610226575b5f80fd5b60408051808201909152600b81526a2437b7b5a6b0b730b3b2b960a91b60208201525b6040516101bb9190610cf7565b60405180910390f35b6101d76101d2366004610d8f565b61045c565b6040516001600160e01b031990911681526020016101bb565b6101d76101d2366004610e06565b61021161020c366004610e75565b610476565b005b6101d7610221366004610d8f565b610494565b610245610234366004610e8e565b60066020525f908152604090205481565b6040519081526020016101bb565b610211610261366004610ea5565b610527565b610211610578565b61027661058b565b6040516101bb9796959493929190610ec0565b6002546001600160a01b03165b6040516001600160a01b0390911681526020016101bb565b6102456102bc366004610f57565b6105cd565b6101d76101d2366004610f93565b6101ae6102dd366004611023565b610667565b600a54610296906001600160a01b031681565b6101d76101d2366004611062565b6101d76101d23660046110c5565b6103b860408051610140810182525f80825260208201819052918101829052606081018290526080810182905260a0810182905260c0810182905260e0810182905261010081018290526101208101919091525060408051610140810182525f80825260208201819052918101829052606081018290526080810182905260a08101829052600160c082015260e08101829052610100810182905261012081019190915290565b6040516101bb919061111f565b6102456103d3366004610e8e565b60086020525f908152604090205481565b6102456103f2366004610e8e565b60076020525f908152604090205481565b610245610411366004610e8e565b60096020525f908152604090205481565b6102967f000000000000000000000000000000000000000000000000000000000000000081565b610211610457366004610ea5565b61074f565b5f604051630a85dc2960e01b815260040160405180910390fd5b61047e61078c565b6005805460ff191660ff92909216919091179055565b5f808080808080806104a8898b018b6111d7565b96509650965096509650965096508a6020013587146104ff5760405162461bcd60e51b815260206004820152600e60248201526d125b9d985b1a5908185b5bdd5b9d60921b60448201526064015b60405180910390fd5b61050e878787878787876107b9565b506315d7892d60e21b9c9b505050505050505050505050565b61052f61078c565b600380546001600160a01b0319166001600160a01b0383169081179091556040517fbb10aee7ef5a307b8097c6a7f2892b909ff1736fd24a6a5260640c185f7153b6905f90a250565b61058061078c565b6105895f6108ce565b565b5f6060805f805f606061059c61091f565b6105a4610950565b604080515f80825260208201909252600f60f81b9b939a50919850469750309650945092509050565b604080517f6d92b67b70104c50317e36ab91aeb159d962207aa41e91ec9eadeb7e3d04cc326020820152908101859052606081018490526080810183905260ff821660a08201525f9060c00160408051601f1981840301815290829052805160209182012061190160f01b918301919091526022820152604201604051602081830303815290604052805190602001209050949350505050565b6060336001600160a01b037f000000000000000000000000000000000000000000000000000000000000000016146106b25760405163570c108560e11b815260040160405180910390fd5b5f80306001600160a01b031685856040516106ce929190611235565b5f604051808303815f865af19150503d805f8114610707576040519150601f19603f3d011682016040523d82523d5f602084013e61070c565b606091505b509150915081156107205791506107499050565b80515f03610741576040516314815f4760e31b815260040160405180910390fd5b805160208201fd5b92915050565b61075761078c565b6001600160a01b03811661078057604051631e4fbdf760e01b81525f60048201526024016104f6565b610789816108ce565b50565b6002546001600160a01b031633146105895760405163118cdaa760e01b81523360048201526024016104f6565b854211156107fc5760405162461bcd60e51b815260206004820152601060248201526f4578706972656420646561646c696e6560801b60448201526064016104f6565b60055460ff908116908516101561084b5760405162461bcd60e51b8152602060048201526013602482015272496e76616c69642074727573742073636f726560681b60448201526064016104f6565b5f610860888861085a8961097d565b886105cd565b90505f61086f828686866109f7565b6003549091506001600160a01b038083169116146108c35760405162461bcd60e51b8152602060048201526011602482015270496e76616c6964207369676e617475726560781b60448201526064016104f6565b505050505050505050565b600280546001600160a01b038381166001600160a01b0319831681179093556040519116919082907f8be0079c531659141344cd1fd0a4f28419497f9722a3daafe3b4186f6b6457e0905f90a35050565b606061094b7f00000000000000000000000000000000000000000000000000000000000000005f610a23565b905090565b606061094b7f00000000000000000000000000000000000000000000000000000000000000006001610a23565b5f8181526004602052604081205460ff16156109db5760405162461bcd60e51b815260206004820152601a60248201527f496e76616c6964206e6f6e636520616c7265616479207573656400000000000060448201526064016104f6565b505f818152600460205260409020805460ff1916600117905590565b5f805f80610a0788888888610acc565b925092509250610a178282610b94565b50909695505050505050565b606060ff8314610a3d57610a3683610c50565b9050610749565b818054610a4990611244565b80601f0160208091040260200160405190810160405280929190818152602001828054610a7590611244565b8015610ac05780601f10610a9757610100808354040283529160200191610ac0565b820191905f5260205f20905b815481529060010190602001808311610aa357829003601f168201915b50505050509050610749565b5f80807f7fffffffffffffffffffffffffffffff5d576e7357a4501ddfe92f46681b20a0841115610b0557505f91506003905082610b8a565b604080515f808252602082018084528a905260ff891692820192909252606081018790526080810186905260019060a0016020604051602081039080840390855afa158015610b56573d5f803e3d5ffd5b5050604051601f1901519150506001600160a01b038116610b8157505f925060019150829050610b8a565b92505f91508190505b9450945094915050565b5f826003811115610ba757610ba7611276565b03610bb0575050565b6001826003811115610bc457610bc4611276565b03610be25760405163f645eedf60e01b815260040160405180910390fd5b6002826003811115610bf657610bf6611276565b03610c175760405163fce698f760e01b8152600481018290526024016104f6565b6003826003811115610c2b57610c2b611276565b03610c4c576040516335e2f38360e21b8152600481018290526024016104f6565b5050565b60605f610c5c83610c8d565b6040805160208082528183019092529192505f91906020820181803683375050509182525060208101929092525090565b5f60ff8216601f81111561074957604051632cd44ac360e21b815260040160405180910390fd5b5f81518084525f5b81811015610cd857602081850181015186830182015201610cbc565b505f602082860101526020601f19601f83011685010191505092915050565b602081525f610d096020830184610cb4565b9392505050565b6001600160a01b0381168114610789575f80fd5b5f60a08284031215610d34575f80fd5b50919050565b5f60608284031215610d34575f80fd5b5f8083601f840112610d5a575f80fd5b50813567ffffffffffffffff811115610d71575f80fd5b602083019150836020828501011115610d88575f80fd5b9250929050565b5f805f805f6101408688031215610da4575f80fd5b8535610daf81610d10565b9450610dbe8760208801610d24565b9350610dcd8760c08801610d3a565b925061012086013567ffffffffffffffff811115610de9575f80fd5b610df588828901610d4a565b969995985093965092949392505050565b5f805f805f6101008688031215610e1b575f80fd5b8535610e2681610d10565b9450610e358760208801610d24565b935060c0860135610e4581610d10565b925060e086013567ffffffffffffffff811115610de9575f80fd5b803560ff81168114610e70575f80fd5b919050565b5f60208284031215610e85575f80fd5b610d0982610e60565b5f60208284031215610e9e575f80fd5b5035919050565b5f60208284031215610eb5575f80fd5b8135610d0981610d10565b60ff60f81b881681525f602060e06020840152610ee060e084018a610cb4565b8381036040850152610ef2818a610cb4565b606085018990526001600160a01b038816608086015260a0850187905284810360c0860152855180825260208088019350909101905f5b81811015610f4557835183529284019291840191600101610f29565b50909c9b505050505050505050505050565b5f805f8060808587031215610f6a575f80fd5b843593506020850135925060408501359150610f8860608601610e60565b905092959194509250565b5f805f805f806101208789031215610fa9575f80fd5b8635610fb481610d10565b9550610fc38860208901610d24565b945060c0870135610fd381610d10565b935060e0870135600281900b8114610fe9575f80fd5b925061010087013567ffffffffffffffff811115611005575f80fd5b61101189828a01610d4a565b979a9699509497509295939492505050565b5f8060208385031215611034575f80fd5b823567ffffffffffffffff81111561104a575f80fd5b61105685828601610d4a565b90969095509350505050565b5f805f805f806101608789031215611078575f80fd5b863561108381610d10565b95506110928860208901610d24565b94506110a18860c08901610d3a565b9350610120870135925061014087013567ffffffffffffffff811115611005575f80fd5b5f805f805f8061012087890312156110db575f80fd5b86356110e681610d10565b95506110f58860208901610d24565b945060c0870135935060e0870135925061010087013567ffffffffffffffff811115611005575f80fd5b8151151581526101408101602083015161113d602084018215159052565b506040830151611151604084018215159052565b506060830151611165606084018215159052565b506080830151611179608084018215159052565b5060a083015161118d60a084018215159052565b5060c08301516111a160c084018215159052565b5060e08301516111b560e084018215159052565b5061010083810151151590830152610120928301511515929091019190915290565b5f805f805f805f60e0888a0312156111ed575f80fd5b87359650602088013595506040880135945061120b60608901610e60565b935061121960808901610e60565b925060a0880135915060c0880135905092959891949750929550565b818382375f9101908152919050565b600181811c9082168061125857607f821691505b602082108103610d3457634e487b7160e01b5f52602260045260245ffd5b634e487b7160e01b5f52602160045260245ffdfea2646970667358221220806d46ffc45bf293a17539f57f025a134c54293e4a9e5868181c884c6cfcd62364736f6c63430008180033","linkReferences":{}},"methodIdentifiers":{"_owner()":"b2bdfa7b","afterAddLiquidity(address,(address,address,uint24,int24,address),(int24,int24,int256),int256,bytes)":"b505b4ce","afterDonate(address,(address,address,uint24,int24,address),uint256,uint256,bytes)":"e1b4af69","afterInitialize(address,(address,address,uint24,int24,address),uint160,int24,bytes)":"a910f80f","afterRemoveLiquidity(address,(address,address,uint24,int24,address),(int24,int24,int256),int256,bytes)":"c3d5d4e6","afterSwap(address,(address,address,uint24,int24,address),(bool,int256,uint160),int256,bytes)":"b47b2fb1","afterSwapCount(bytes32)":"dacdbe77","beforeAddLiquidity(address,(address,address,uint24,int24,address),(int24,int24,int256),bytes)":"a6ab2a43","beforeAddLiquidityCount(bytes32)":"c6939957","beforeDonate(address,(address,address,uint24,int24,address),uint256,uint256,bytes)":"b6a8b0fa","beforeInitialize(address,(address,address,uint24,int24,address),uint160,bytes)":"3440d820","beforeRemoveLiquidity(address,(address,address,uint24,int24,address),(int24,int24,int256),bytes)":"2b58404e","beforeRemoveLiquidityCount(bytes32)":"db6a9451","beforeSwap(address,(address,address,uint24,int24,address),(bool,int256,uint160),bytes)":"575e24b4","beforeSwapCount(bytes32)":"5c338d32","eip712Domain()":"84b0196e","getHookPermissions()":"c4e833ce","getStructHash(int256,uint256,uint256,uint8)":"9d4ad6d2","lockAcquired(bytes)":"ab6291fe","name()":"06fdde03","owner()":"8da5cb5b","poolManager()":"dc4c90d3","renounceOwnership()":"715018a6","setSigner(address)":"6c19e783","setTrustScore(uint8)":"3da4c1ec","transferOwnership(address)":"f2fde38b"},"id":80}