{"abi":[{"type":"constructor","inputs":[{"name":"_poolManager","type":"address","internalType":"contract IPoolManager"}],"stateMutability":"nonpayable"},{"type":"function","name":"afterAddLiquidity","inputs":[{"name":"","type":"address","internalType":"address"},{"name":"","type":"tuple","internalType":"struct PoolKey","components":[{"name":"currency0","type":"address","internalType":"Currency"},{"name":"currency1","type":"address","internalType":"Currency"},{"name":"fee","type":"uint24","internalType":"uint24"},{"name":"tickSpacing","type":"int24","internalType":"int24"},{"name":"hooks","type":"address","internalType":"contract IHooks"}]},{"name":"","type":"tuple","internalType":"struct IPoolManager.ModifyLiquidityParams","components":[{"name":"tickLower","type":"int24","internalType":"int24"},{"name":"tickUpper","type":"int24","internalType":"int24"},{"name":"liquidityDelta","type":"int256","internalType":"int256"}]},{"name":"","type":"int256","internalType":"BalanceDelta"},{"name":"","type":"bytes","internalType":"bytes"}],"outputs":[{"name":"","type":"bytes4","internalType":"bytes4"}],"stateMutability":"nonpayable"},{"type":"function","name":"afterDonate","inputs":[{"name":"","type":"address","internalType":"address"},{"name":"","type":"tuple","internalType":"struct PoolKey","components":[{"name":"currency0","type":"address","internalType":"Currency"},{"name":"currency1","type":"address","internalType":"Currency"},{"name":"fee","type":"uint24","internalType":"uint24"},{"name":"tickSpacing","type":"int24","internalType":"int24"},{"name":"hooks","type":"address","internalType":"contract IHooks"}]},{"name":"","type":"uint256","internalType":"uint256"},{"name":"","type":"uint256","internalType":"uint256"},{"name":"","type":"bytes","internalType":"bytes"}],"outputs":[{"name":"","type":"bytes4","internalType":"bytes4"}],"stateMutability":"nonpayable"},{"type":"function","name":"afterInitialize","inputs":[{"name":"","type":"address","internalType":"address"},{"name":"","type":"tuple","internalType":"struct PoolKey","components":[{"name":"currency0","type":"address","internalType":"Currency"},{"name":"currency1","type":"address","internalType":"Currency"},{"name":"fee","type":"uint24","internalType":"uint24"},{"name":"tickSpacing","type":"int24","internalType":"int24"},{"name":"hooks","type":"address","internalType":"contract IHooks"}]},{"name":"","type":"uint160","internalType":"uint160"},{"name":"","type":"int24","internalType":"int24"},{"name":"","type":"bytes","internalType":"bytes"}],"outputs":[{"name":"","type":"bytes4","internalType":"bytes4"}],"stateMutability":"nonpayable"},{"type":"function","name":"afterRemoveLiquidity","inputs":[{"name":"","type":"address","internalType":"address"},{"name":"","type":"tuple","internalType":"struct PoolKey","components":[{"name":"currency0","type":"address","internalType":"Currency"},{"name":"currency1","type":"address","internalType":"Currency"},{"name":"fee","type":"uint24","internalType":"uint24"},{"name":"tickSpacing","type":"int24","internalType":"int24"},{"name":"hooks","type":"address","internalType":"contract IHooks"}]},{"name":"","type":"tuple","internalType":"struct IPoolManager.ModifyLiquidityParams","components":[{"name":"tickLower","type":"int24","internalType":"int24"},{"name":"tickUpper","type":"int24","internalType":"int24"},{"name":"liquidityDelta","type":"int256","internalType":"int256"}]},{"name":"","type":"int256","internalType":"BalanceDelta"},{"name":"","type":"bytes","internalType":"bytes"}],"outputs":[{"name":"","type":"bytes4","internalType":"bytes4"}],"stateMutability":"nonpayable"},{"type":"function","name":"afterSwap","inputs":[{"name":"","type":"address","internalType":"address"},{"name":"","type":"tuple","internalType":"struct PoolKey","components":[{"name":"currency0","type":"address","internalType":"Currency"},{"name":"currency1","type":"address","internalType":"Currency"},{"name":"fee","type":"uint24","internalType":"uint24"},{"name":"tickSpacing","type":"int24","internalType":"int24"},{"name":"hooks","type":"address","internalType":"contract IHooks"}]},{"name":"","type":"tuple","internalType":"struct IPoolManager.SwapParams","components":[{"name":"zeroForOne","type":"bool","internalType":"bool"},{"name":"amountSpecified","type":"int256","internalType":"int256"},{"name":"sqrtPriceLimitX96","type":"uint160","internalType":"uint160"}]},{"name":"","type":"int256","internalType":"BalanceDelta"},{"name":"","type":"bytes","internalType":"bytes"}],"outputs":[{"name":"","type":"bytes4","internalType":"bytes4"}],"stateMutability":"nonpayable"},{"type":"function","name":"beforeAddLiquidity","inputs":[{"name":"","type":"address","internalType":"address"},{"name":"","type":"tuple","internalType":"struct PoolKey","components":[{"name":"currency0","type":"address","internalType":"Currency"},{"name":"currency1","type":"address","internalType":"Currency"},{"name":"fee","type":"uint24","internalType":"uint24"},{"name":"tickSpacing","type":"int24","internalType":"int24"},{"name":"hooks","type":"address","internalType":"contract IHooks"}]},{"name":"","type":"tuple","internalType":"struct IPoolManager.ModifyLiquidityParams","components":[{"name":"tickLower","type":"int24","internalType":"int24"},{"name":"tickUpper","type":"int24","internalType":"int24"},{"name":"liquidityDelta","type":"int256","internalType":"int256"}]},{"name":"","type":"bytes","internalType":"bytes"}],"outputs":[{"name":"","type":"bytes4","internalType":"bytes4"}],"stateMutability":"nonpayable"},{"type":"function","name":"beforeDonate","inputs":[{"name":"","type":"address","internalType":"address"},{"name":"","type":"tuple","internalType":"struct PoolKey","components":[{"name":"currency0","type":"address","internalType":"Currency"},{"name":"currency1","type":"address","internalType":"Currency"},{"name":"fee","type":"uint24","internalType":"uint24"},{"name":"tickSpacing","type":"int24","internalType":"int24"},{"name":"hooks","type":"address","internalType":"contract IHooks"}]},{"name":"","type":"uint256","internalType":"uint256"},{"name":"","type":"uint256","internalType":"uint256"},{"name":"","type":"bytes","internalType":"bytes"}],"outputs":[{"name":"","type":"bytes4","internalType":"bytes4"}],"stateMutability":"nonpayable"},{"type":"function","name":"beforeInitialize","inputs":[{"name":"","type":"address","internalType":"address"},{"name":"","type":"tuple","internalType":"struct PoolKey","components":[{"name":"currency0","type":"address","internalType":"Currency"},{"name":"currency1","type":"address","internalType":"Currency"},{"name":"fee","type":"uint24","internalType":"uint24"},{"name":"tickSpacing","type":"int24","internalType":"int24"},{"name":"hooks","type":"address","internalType":"contract IHooks"}]},{"name":"","type":"uint160","internalType":"uint160"},{"name":"","type":"bytes","internalType":"bytes"}],"outputs":[{"name":"","type":"bytes4","internalType":"bytes4"}],"stateMutability":"nonpayable"},{"type":"function","name":"beforeRemoveLiquidity","inputs":[{"name":"","type":"address","internalType":"address"},{"name":"","type":"tuple","internalType":"struct PoolKey","components":[{"name":"currency0","type":"address","internalType":"Currency"},{"name":"currency1","type":"address","internalType":"Currency"},{"name":"fee","type":"uint24","internalType":"uint24"},{"name":"tickSpacing","type":"int24","internalType":"int24"},{"name":"hooks","type":"address","internalType":"contract IHooks"}]},{"name":"","type":"tuple","internalType":"struct IPoolManager.ModifyLiquidityParams","components":[{"name":"tickLower","type":"int24","internalType":"int24"},{"name":"tickUpper","type":"int24","internalType":"int24"},{"name":"liquidityDelta","type":"int256","internalType":"int256"}]},{"name":"","type":"bytes","internalType":"bytes"}],"outputs":[{"name":"","type":"bytes4","internalType":"bytes4"}],"stateMutability":"nonpayable"},{"type":"function","name":"beforeSwap","inputs":[{"name":"","type":"address","internalType":"address"},{"name":"","type":"tuple","internalType":"struct PoolKey","components":[{"name":"currency0","type":"address","internalType":"Currency"},{"name":"currency1","type":"address","internalType":"Currency"},{"name":"fee","type":"uint24","internalType":"uint24"},{"name":"tickSpacing","type":"int24","internalType":"int24"},{"name":"hooks","type":"address","internalType":"contract IHooks"}]},{"name":"params","type":"tuple","internalType":"struct IPoolManager.SwapParams","components":[{"name":"zeroForOne","type":"bool","internalType":"bool"},{"name":"amountSpecified","type":"int256","internalType":"int256"},{"name":"sqrtPriceLimitX96","type":"uint160","internalType":"uint160"}]},{"name":"data","type":"bytes","internalType":"bytes"}],"outputs":[{"name":"","type":"bytes4","internalType":"bytes4"}],"stateMutability":"nonpayable"},{"type":"function","name":"eip712Domain","inputs":[],"outputs":[{"name":"fields","type":"bytes1","internalType":"bytes1"},{"name":"name","type":"string","internalType":"string"},{"name":"version","type":"string","internalType":"string"},{"name":"chainId","type":"uint256","internalType":"uint256"},{"name":"verifyingContract","type":"address","internalType":"address"},{"name":"salt","type":"bytes32","internalType":"bytes32"},{"name":"extensions","type":"uint256[]","internalType":"uint256[]"}],"stateMutability":"view"},{"type":"function","name":"getHookPermissions","inputs":[],"outputs":[{"name":"","type":"tuple","internalType":"struct Hooks.Permissions","components":[{"name":"beforeInitialize","type":"bool","internalType":"bool"},{"name":"afterInitialize","type":"bool","internalType":"bool"},{"name":"beforeAddLiquidity","type":"bool","internalType":"bool"},{"name":"afterAddLiquidity","type":"bool","internalType":"bool"},{"name":"beforeRemoveLiquidity","type":"bool","internalType":"bool"},{"name":"afterRemoveLiquidity","type":"bool","internalType":"bool"},{"name":"beforeSwap","type":"bool","internalType":"bool"},{"name":"afterSwap","type":"bool","internalType":"bool"},{"name":"beforeDonate","type":"bool","internalType":"bool"},{"name":"afterDonate","type":"bool","internalType":"bool"}]}],"stateMutability":"pure"},{"type":"function","name":"getStructHash","inputs":[{"name":"_amount","type":"int256","internalType":"int256"},{"name":"_blockNumber","type":"uint256","internalType":"uint256"},{"name":"_nonce","type":"uint256","internalType":"uint256"},{"name":"_trustScore","type":"uint8","internalType":"uint8"}],"outputs":[{"name":"","type":"bytes32","internalType":"bytes32"}],"stateMutability":"pure"},{"type":"function","name":"lockAcquired","inputs":[{"name":"data","type":"bytes","internalType":"bytes"}],"outputs":[{"name":"","type":"bytes","internalType":"bytes"}],"stateMutability":"nonpayable"},{"type":"function","name":"name","inputs":[],"outputs":[{"name":"","type":"string","internalType":"string"}],"stateMutability":"pure"},{"type":"function","name":"owner","inputs":[],"outputs":[{"name":"","type":"address","internalType":"address"}],"stateMutability":"view"},{"type":"function","name":"poolManager","inputs":[],"outputs":[{"name":"","type":"address","internalType":"contract IPoolManager"}],"stateMutability":"view"},{"type":"function","name":"renounceOwnership","inputs":[],"outputs":[],"stateMutability":"nonpayable"},{"type":"function","name":"setSigner","inputs":[{"name":"_signer","type":"address","internalType":"address"}],"outputs":[],"stateMutability":"nonpayable"},{"type":"function","name":"setTrustScore","inputs":[{"name":"score","type":"uint8","internalType":"uint8"}],"outputs":[],"stateMutability":"nonpayable"},{"type":"function","name":"transferOwnership","inputs":[{"name":"newOwner","type":"address","internalType":"address"}],"outputs":[],"stateMutability":"nonpayable"},{"type":"event","name":"EIP712DomainChanged","inputs":[],"anonymous":false},{"type":"event","name":"OwnershipTransferred","inputs":[{"name":"previousOwner","type":"address","indexed":true,"internalType":"address"},{"name":"newOwner","type":"address","indexed":true,"internalType":"address"}],"anonymous":false},{"type":"event","name":"SetSigner","inputs":[{"name":"signer","type":"address","indexed":true,"internalType":"address"}],"anonymous":false},{"type":"error","name":"ECDSAInvalidSignature","inputs":[]},{"type":"error","name":"ECDSAInvalidSignatureLength","inputs":[{"name":"length","type":"uint256","internalType":"uint256"}]},{"type":"error","name":"ECDSAInvalidSignatureS","inputs":[{"name":"s","type":"bytes32","internalType":"bytes32"}]},{"type":"error","name":"HookAddressNotValid","inputs":[{"name":"hooks","type":"address","internalType":"address"}]},{"type":"error","name":"HookNotImplemented","inputs":[]},{"type":"error","name":"InvalidPool","inputs":[]},{"type":"error","name":"InvalidShortString","inputs":[]},{"type":"error","name":"LockFailure","inputs":[]},{"type":"error","name":"NotPoolManager","inputs":[]},{"type":"error","name":"NotSelf","inputs":[]},{"type":"error","name":"OwnableInvalidOwner","inputs":[{"name":"owner","type":"address","internalType":"address"}]},{"type":"error","name":"OwnableUnauthorizedAccount","inputs":[{"name":"account","type":"address","internalType":"address"}]},{"type":"error","name":"StringTooLong","inputs":[{"name":"str","type":"string","internalType":"string"}]}],"bytecode":{"object":"0x610180604052600380546001600160a01b03191673c53fa4a20a9476e44937d4bc8c81910546d568e41790556005805460ff1916604617905534801562000044575f80fd5b506040516200185f3803806200185f83398101604081905262000067916200043b565b600354604080518082018252600b81526a2437b7b5a6b0b730b3b2b960a91b602080830191909152825180840190935260018352603160f81b908301526001600160a01b03848116608052909216919083620000c3306200018c565b50620000d0825f62000242565b61014052620000e181600162000242565b61016052815160208084019190912061010052815190820120610120524660c052620001706101005161012051604080517f8b73c3c69bb8fe3d512ecc4cf759cc79239f7b179b0ffacaa9a75d522b39400f60208201529081019290925260608201524660808201523060a08201525f9060c00160405160208183030381529060405280519060200120905090565b60a05250503060e05262000184816200027a565b505062000646565b6200023f816200023960408051610140810182525f80825260208201819052918101829052606081018290526080810182905260a0810182905260c0810182905260e0810182905261010081018290526101208101919091525060408051610140810182525f80825260208201819052918101829052606081018290526080810182905260a08101829052600160c082015260e08101829052610100810182905261012081019190915290565b620002cb565b50565b5f60208351101562000261576200025983620003f9565b905062000274565b816200026e848262000508565b5060ff90505b92915050565b600280546001600160a01b038381166001600160a01b0319831681179093556040519116919082907f8be0079c531659141344cd1fd0a4f28419497f9722a3daafe3b4186f6b6457e0905f90a35050565b805115156001609f1b83161515141580620002f45750602081015115156001609e1b8316151514155b806200030e5750604081015115156001609d1b8316151514155b80620003285750606081015115156001609c1b8316151514155b80620003425750608081015115156001609b1b8316151514155b806200035c575060a081015115156001609a1b8316151514155b8062000376575060c08101511515600160991b8316151514155b8062000390575060e08101511515600160981b8316151514155b80620003ab57506101008101511515600160971b8316151514155b80620003c657506101208101511515600160961b8316151514155b15620003f557604051630732d7b560e51b81526001600160a01b03831660048201526024015b60405180910390fd5b5050565b5f80829050601f8151111562000426578260405163305a27a960e01b8152600401620003ec9190620005d4565b8051620004338262000622565b179392505050565b5f602082840312156200044c575f80fd5b81516001600160a01b038116811462000463575f80fd5b9392505050565b634e487b7160e01b5f52604160045260245ffd5b600181811c908216806200049357607f821691505b602082108103620004b257634e487b7160e01b5f52602260045260245ffd5b50919050565b601f8211156200050357805f5260205f20601f840160051c81016020851015620004df5750805b601f840160051c820191505b8181101562000500575f8155600101620004eb565b50505b505050565b81516001600160401b038111156200052457620005246200046a565b6200053c816200053584546200047e565b84620004b8565b602080601f83116001811462000572575f84156200055a5750858301515b5f19600386901b1c1916600185901b178555620005cc565b5f85815260208120601f198616915b82811015620005a25788860151825594840194600190910190840162000581565b5085821015620005c057878501515f19600388901b60f8161c191681555b505060018460011b0185555b505050505050565b5f602080835283518060208501525f5b818110156200060257858101830151858201604001528201620005e4565b505f604082860101526040601f19601f8301168501019250505092915050565b80516020808301519190811015620004b2575f1960209190910360031b1b16919050565b60805160a05160c05160e051610100516101205161014051610160516111c56200069a5f395f61087301525f61084201525f50505f50505f50505f50505f50505f8181610343015261059001526111c55ff3fe608060405234801561000f575f80fd5b5060043610610132575f3560e01c8063a6ab2a43116100b4578063b6a8b0fa11610079578063b6a8b0fa1461027c578063c3d5d4e61461026e578063c4e833ce1461028a578063dc4c90d31461033e578063e1b4af691461027c578063f2fde38b14610365575f80fd5b8063a6ab2a431461016f578063a910f80f1461024d578063ab6291fe1461025b578063b47b2fb11461026e578063b505b4ce1461026e575f80fd5b80636c19e783116100fa5780636c19e783146101d1578063715018a6146101e457806384b0196e146101ec5780638da5cb5b146102075780639d4ad6d21461022c575f80fd5b806306fdde03146101365780632b58404e1461016f5780633440d8201461019b5780633da4c1ec146101a9578063575e24b4146101be575b5f80fd5b60408051808201909152600b81526a2437b7b5a6b0b730b3b2b960a91b60208201525b6040516101669190610c13565b60405180910390f35b61018261017d366004610cab565b610378565b6040516001600160e01b03199091168152602001610166565b61018261017d366004610d22565b6101bc6101b7366004610d91565b610392565b005b6101826101cc366004610cab565b6103b0565b6101bc6101df366004610daa565b610443565b6101bc610494565b6101f46104a7565b6040516101669796959493929190610dc5565b6002546001600160a01b03165b6040516001600160a01b039091168152602001610166565b61023f61023a366004610e5c565b6104e9565b604051908152602001610166565b61018261017d366004610e98565b610159610269366004610f28565b610583565b61018261017d366004610f67565b61018261017d366004610fca565b61033160408051610140810182525f80825260208201819052918101829052606081018290526080810182905260a0810182905260c0810182905260e0810182905261010081018290526101208101919091525060408051610140810182525f80825260208201819052918101829052606081018290526080810182905260a08101829052600160c082015260e08101829052610100810182905261012081019190915290565b6040516101669190611024565b6102147f000000000000000000000000000000000000000000000000000000000000000081565b6101bc610373366004610daa565b61066b565b5f604051630a85dc2960e01b815260040160405180910390fd5b61039a6106a8565b6005805460ff191660ff92909216919091179055565b5f808080808080806103c4898b018b6110dc565b96509650965096509650965096508a60200135871461041b5760405162461bcd60e51b815260206004820152600e60248201526d125b9d985b1a5908185b5bdd5b9d60921b60448201526064015b60405180910390fd5b61042a878787878787876106d5565b506315d7892d60e21b9c9b505050505050505050505050565b61044b6106a8565b600380546001600160a01b0319166001600160a01b0383169081179091556040517fbb10aee7ef5a307b8097c6a7f2892b909ff1736fd24a6a5260640c185f7153b6905f90a250565b61049c6106a8565b6104a55f6107ea565b565b5f6060805f805f60606104b861083b565b6104c061086c565b604080515f80825260208201909252600f60f81b9b939a50919850469750309650945092509050565b604080517f6d92b67b70104c50317e36ab91aeb159d962207aa41e91ec9eadeb7e3d04cc326020820152908101859052606081018490526080810183905260ff821660a08201525f9060c00160408051601f1981840301815290829052805160209182012061190160f01b918301919091526022820152604201604051602081830303815290604052805190602001209050949350505050565b6060336001600160a01b037f000000000000000000000000000000000000000000000000000000000000000016146105ce5760405163570c108560e11b815260040160405180910390fd5b5f80306001600160a01b031685856040516105ea92919061113a565b5f604051808303815f865af19150503d805f8114610623576040519150601f19603f3d011682016040523d82523d5f602084013e610628565b606091505b5091509150811561063c5791506106659050565b80515f0361065d576040516314815f4760e31b815260040160405180910390fd5b805160208201fd5b92915050565b6106736106a8565b6001600160a01b03811661069c57604051631e4fbdf760e01b81525f6004820152602401610412565b6106a5816107ea565b50565b6002546001600160a01b031633146104a55760405163118cdaa760e01b8152336004820152602401610412565b854311156107185760405162461bcd60e51b815260206004820152601060248201526f4578706972656420646561646c696e6560801b6044820152606401610412565b60055460ff90811690851610156107675760405162461bcd60e51b8152602060048201526013602482015272496e76616c69642074727573742073636f726560681b6044820152606401610412565b5f61077c888861077689610899565b886104e9565b90505f61078b82868686610913565b6003549091506001600160a01b038083169116146107df5760405162461bcd60e51b8152602060048201526011602482015270496e76616c6964207369676e617475726560781b6044820152606401610412565b505050505050505050565b600280546001600160a01b038381166001600160a01b0319831681179093556040519116919082907f8be0079c531659141344cd1fd0a4f28419497f9722a3daafe3b4186f6b6457e0905f90a35050565b60606108677f00000000000000000000000000000000000000000000000000000000000000005f61093f565b905090565b60606108677f0000000000000000000000000000000000000000000000000000000000000000600161093f565b5f8181526004602052604081205460ff16156108f75760405162461bcd60e51b815260206004820152601a60248201527f496e76616c6964206e6f6e636520616c726561647920757365640000000000006044820152606401610412565b505f818152600460205260409020805460ff1916600117905590565b5f805f80610923888888886109e8565b9250925092506109338282610ab0565b50909695505050505050565b606060ff83146109595761095283610b6c565b9050610665565b81805461096590611149565b80601f016020809104026020016040519081016040528092919081815260200182805461099190611149565b80156109dc5780601f106109b3576101008083540402835291602001916109dc565b820191905f5260205f20905b8154815290600101906020018083116109bf57829003601f168201915b50505050509050610665565b5f80807f7fffffffffffffffffffffffffffffff5d576e7357a4501ddfe92f46681b20a0841115610a2157505f91506003905082610aa6565b604080515f808252602082018084528a905260ff891692820192909252606081018790526080810186905260019060a0016020604051602081039080840390855afa158015610a72573d5f803e3d5ffd5b5050604051601f1901519150506001600160a01b038116610a9d57505f925060019150829050610aa6565b92505f91508190505b9450945094915050565b5f826003811115610ac357610ac361117b565b03610acc575050565b6001826003811115610ae057610ae061117b565b03610afe5760405163f645eedf60e01b815260040160405180910390fd5b6002826003811115610b1257610b1261117b565b03610b335760405163fce698f760e01b815260048101829052602401610412565b6003826003811115610b4757610b4761117b565b03610b68576040516335e2f38360e21b815260048101829052602401610412565b5050565b60605f610b7883610ba9565b6040805160208082528183019092529192505f91906020820181803683375050509182525060208101929092525090565b5f60ff8216601f81111561066557604051632cd44ac360e21b815260040160405180910390fd5b5f81518084525f5b81811015610bf457602081850181015186830182015201610bd8565b505f602082860101526020601f19601f83011685010191505092915050565b602081525f610c256020830184610bd0565b9392505050565b6001600160a01b03811681146106a5575f80fd5b5f60a08284031215610c50575f80fd5b50919050565b5f60608284031215610c50575f80fd5b5f8083601f840112610c76575f80fd5b50813567ffffffffffffffff811115610c8d575f80fd5b602083019150836020828501011115610ca4575f80fd5b9250929050565b5f805f805f6101408688031215610cc0575f80fd5b8535610ccb81610c2c565b9450610cda8760208801610c40565b9350610ce98760c08801610c56565b925061012086013567ffffffffffffffff811115610d05575f80fd5b610d1188828901610c66565b969995985093965092949392505050565b5f805f805f6101008688031215610d37575f80fd5b8535610d4281610c2c565b9450610d518760208801610c40565b935060c0860135610d6181610c2c565b925060e086013567ffffffffffffffff811115610d05575f80fd5b803560ff81168114610d8c575f80fd5b919050565b5f60208284031215610da1575f80fd5b610c2582610d7c565b5f60208284031215610dba575f80fd5b8135610c2581610c2c565b60ff60f81b881681525f602060e06020840152610de560e084018a610bd0565b8381036040850152610df7818a610bd0565b606085018990526001600160a01b038816608086015260a0850187905284810360c0860152855180825260208088019350909101905f5b81811015610e4a57835183529284019291840191600101610e2e565b50909c9b505050505050505050505050565b5f805f8060808587031215610e6f575f80fd5b843593506020850135925060408501359150610e8d60608601610d7c565b905092959194509250565b5f805f805f806101208789031215610eae575f80fd5b8635610eb981610c2c565b9550610ec88860208901610c40565b945060c0870135610ed881610c2c565b935060e0870135600281900b8114610eee575f80fd5b925061010087013567ffffffffffffffff811115610f0a575f80fd5b610f1689828a01610c66565b979a9699509497509295939492505050565b5f8060208385031215610f39575f80fd5b823567ffffffffffffffff811115610f4f575f80fd5b610f5b85828601610c66565b90969095509350505050565b5f805f805f806101608789031215610f7d575f80fd5b8635610f8881610c2c565b9550610f978860208901610c40565b9450610fa68860c08901610c56565b9350610120870135925061014087013567ffffffffffffffff811115610f0a575f80fd5b5f805f805f806101208789031215610fe0575f80fd5b8635610feb81610c2c565b9550610ffa8860208901610c40565b945060c0870135935060e0870135925061010087013567ffffffffffffffff811115610f0a575f80fd5b81511515815261014081016020830151611042602084018215159052565b506040830151611056604084018215159052565b50606083015161106a606084018215159052565b50608083015161107e608084018215159052565b5060a083015161109260a084018215159052565b5060c08301516110a660c084018215159052565b5060e08301516110ba60e084018215159052565b5061010083810151151590830152610120928301511515929091019190915290565b5f805f805f805f60e0888a0312156110f2575f80fd5b87359650602088013595506040880135945061111060608901610d7c565b935061111e60808901610d7c565b925060a0880135915060c0880135905092959891949750929550565b818382375f9101908152919050565b600181811c9082168061115d57607f821691505b602082108103610c5057634e487b7160e01b5f52602260045260245ffd5b634e487b7160e01b5f52602160045260245ffdfea2646970667358221220eb534f9175e0342a5572217e87252bcaaed7db9c372187bc9d57fdf5aaab4e1c64736f6c63430008180033","linkReferences":{}},"methodIdentifiers":{"afterAddLiquidity(address,(address,address,uint24,int24,address),(int24,int24,int256),int256,bytes)":"b505b4ce","afterDonate(address,(address,address,uint24,int24,address),uint256,uint256,bytes)":"e1b4af69","afterInitialize(address,(address,address,uint24,int24,address),uint160,int24,bytes)":"a910f80f","afterRemoveLiquidity(address,(address,address,uint24,int24,address),(int24,int24,int256),int256,bytes)":"c3d5d4e6","afterSwap(address,(address,address,uint24,int24,address),(bool,int256,uint160),int256,bytes)":"b47b2fb1","beforeAddLiquidity(address,(address,address,uint24,int24,address),(int24,int24,int256),bytes)":"a6ab2a43","beforeDonate(address,(address,address,uint24,int24,address),uint256,uint256,bytes)":"b6a8b0fa","beforeInitialize(address,(address,address,uint24,int24,address),uint160,bytes)":"3440d820","beforeRemoveLiquidity(address,(address,address,uint24,int24,address),(int24,int24,int256),bytes)":"2b58404e","beforeSwap(address,(address,address,uint24,int24,address),(bool,int256,uint160),bytes)":"575e24b4","eip712Domain()":"84b0196e","getHookPermissions()":"c4e833ce","getStructHash(int256,uint256,uint256,uint8)":"9d4ad6d2","lockAcquired(bytes)":"ab6291fe","name()":"06fdde03","owner()":"8da5cb5b","poolManager()":"dc4c90d3","renounceOwnership()":"715018a6","setSigner(address)":"6c19e783","setTrustScore(uint8)":"3da4c1ec","transferOwnership(address)":"f2fde38b"},"id":85}