{"abi":[{"type":"function","name":"computeAddress","inputs":[{"name":"deployer","type":"address","internalType":"address"},{"name":"salt","type":"uint256","internalType":"uint256"},{"name":"creationCode","type":"bytes","internalType":"bytes"}],"outputs":[{"name":"hookAddress","type":"address","internalType":"address"}],"stateMutability":"pure"}],"bytecode":{"object":"0x6101db610035600b8282823980515f1a60731461002957634e487b7160e01b5f525f60045260245ffd5b305f52607381538281f3fe7300000000000000000000000000000000000000003014608060405260043610610034575f3560e01c8063013a236e14610038575b5f80fd5b6100a46100463660046100d4565b8051602091820120604080516001600160f81b03198185015260609590951b6bffffffffffffffffffffffff191660218601526035850193909352605580850191909152825180850390910181526075909301909152815191012090565b6040516001600160a01b03909116815260200160405180910390f35b634e487b7160e01b5f52604160045260245ffd5b5f805f606084860312156100e6575f80fd5b83356001600160a01b03811681146100fc575f80fd5b925060208401359150604084013567ffffffffffffffff8082111561011f575f80fd5b818601915086601f830112610132575f80fd5b813581811115610144576101446100c0565b604051601f8201601f19908116603f0116810190838211818310171561016c5761016c6100c0565b81604052828152896020848701011115610184575f80fd5b826020860160208301375f602084830101528095505050505050925092509256fea2646970667358221220a38b44a376994cb4cb039e48abdb2498116f628641be81786e7726704b38682064736f6c63430008180033","linkReferences":{}},"methodIdentifiers":{"computeAddress(address,uint256,bytes)":"013a236e"},"id":82}