{"abi":[{"type":"constructor","inputs":[{"name":"_poolManager","type":"address","internalType":"contract IPoolManager"}],"stateMutability":"nonpayable"},{"type":"function","name":"afterAddLiquidity","inputs":[{"name":"","type":"address","internalType":"address"},{"name":"","type":"tuple","internalType":"struct PoolKey","components":[{"name":"currency0","type":"address","internalType":"Currency"},{"name":"currency1","type":"address","internalType":"Currency"},{"name":"fee","type":"uint24","internalType":"uint24"},{"name":"tickSpacing","type":"int24","internalType":"int24"},{"name":"hooks","type":"address","internalType":"contract IHooks"}]},{"name":"","type":"tuple","internalType":"struct IPoolManager.ModifyLiquidityParams","components":[{"name":"tickLower","type":"int24","internalType":"int24"},{"name":"tickUpper","type":"int24","internalType":"int24"},{"name":"liquidityDelta","type":"int256","internalType":"int256"}]},{"name":"","type":"int256","internalType":"BalanceDelta"},{"name":"","type":"bytes","internalType":"bytes"}],"outputs":[{"name":"","type":"bytes4","internalType":"bytes4"}],"stateMutability":"nonpayable"},{"type":"function","name":"afterDonate","inputs":[{"name":"","type":"address","internalType":"address"},{"name":"","type":"tuple","internalType":"struct PoolKey","components":[{"name":"currency0","type":"address","internalType":"Currency"},{"name":"currency1","type":"address","internalType":"Currency"},{"name":"fee","type":"uint24","internalType":"uint24"},{"name":"tickSpacing","type":"int24","internalType":"int24"},{"name":"hooks","type":"address","internalType":"contract IHooks"}]},{"name":"","type":"uint256","internalType":"uint256"},{"name":"","type":"uint256","internalType":"uint256"},{"name":"","type":"bytes","internalType":"bytes"}],"outputs":[{"name":"","type":"bytes4","internalType":"bytes4"}],"stateMutability":"nonpayable"},{"type":"function","name":"afterInitialize","inputs":[{"name":"","type":"address","internalType":"address"},{"name":"","type":"tuple","internalType":"struct PoolKey","components":[{"name":"currency0","type":"address","internalType":"Currency"},{"name":"currency1","type":"address","internalType":"Currency"},{"name":"fee","type":"uint24","internalType":"uint24"},{"name":"tickSpacing","type":"int24","internalType":"int24"},{"name":"hooks","type":"address","internalType":"contract IHooks"}]},{"name":"","type":"uint160","internalType":"uint160"},{"name":"","type":"int24","internalType":"int24"},{"name":"","type":"bytes","internalType":"bytes"}],"outputs":[{"name":"","type":"bytes4","internalType":"bytes4"}],"stateMutability":"nonpayable"},{"type":"function","name":"afterRemoveLiquidity","inputs":[{"name":"","type":"address","internalType":"address"},{"name":"","type":"tuple","internalType":"struct PoolKey","components":[{"name":"currency0","type":"address","internalType":"Currency"},{"name":"currency1","type":"address","internalType":"Currency"},{"name":"fee","type":"uint24","internalType":"uint24"},{"name":"tickSpacing","type":"int24","internalType":"int24"},{"name":"hooks","type":"address","internalType":"contract IHooks"}]},{"name":"","type":"tuple","internalType":"struct IPoolManager.ModifyLiquidityParams","components":[{"name":"tickLower","type":"int24","internalType":"int24"},{"name":"tickUpper","type":"int24","internalType":"int24"},{"name":"liquidityDelta","type":"int256","internalType":"int256"}]},{"name":"","type":"int256","internalType":"BalanceDelta"},{"name":"","type":"bytes","internalType":"bytes"}],"outputs":[{"name":"","type":"bytes4","internalType":"bytes4"}],"stateMutability":"nonpayable"},{"type":"function","name":"afterSwap","inputs":[{"name":"","type":"address","internalType":"address"},{"name":"key","type":"tuple","internalType":"struct PoolKey","components":[{"name":"currency0","type":"address","internalType":"Currency"},{"name":"currency1","type":"address","internalType":"Currency"},{"name":"fee","type":"uint24","internalType":"uint24"},{"name":"tickSpacing","type":"int24","internalType":"int24"},{"name":"hooks","type":"address","internalType":"contract IHooks"}]},{"name":"","type":"tuple","internalType":"struct IPoolManager.SwapParams","components":[{"name":"zeroForOne","type":"bool","internalType":"bool"},{"name":"amountSpecified","type":"int256","internalType":"int256"},{"name":"sqrtPriceLimitX96","type":"uint160","internalType":"uint160"}]},{"name":"","type":"int256","internalType":"BalanceDelta"},{"name":"","type":"bytes","internalType":"bytes"}],"outputs":[{"name":"","type":"bytes4","internalType":"bytes4"}],"stateMutability":"nonpayable"},{"type":"function","name":"afterSwapCount","inputs":[{"name":"","type":"bytes32","internalType":"PoolId"}],"outputs":[{"name":"count","type":"uint256","internalType":"uint256"}],"stateMutability":"view"},{"type":"function","name":"beforeAddLiquidity","inputs":[{"name":"","type":"address","internalType":"address"},{"name":"key","type":"tuple","internalType":"struct PoolKey","components":[{"name":"currency0","type":"address","internalType":"Currency"},{"name":"currency1","type":"address","internalType":"Currency"},{"name":"fee","type":"uint24","internalType":"uint24"},{"name":"tickSpacing","type":"int24","internalType":"int24"},{"name":"hooks","type":"address","internalType":"contract IHooks"}]},{"name":"","type":"tuple","internalType":"struct IPoolManager.ModifyLiquidityParams","components":[{"name":"tickLower","type":"int24","internalType":"int24"},{"name":"tickUpper","type":"int24","internalType":"int24"},{"name":"liquidityDelta","type":"int256","internalType":"int256"}]},{"name":"","type":"bytes","internalType":"bytes"}],"outputs":[{"name":"","type":"bytes4","internalType":"bytes4"}],"stateMutability":"nonpayable"},{"type":"function","name":"beforeAddLiquidityCount","inputs":[{"name":"","type":"bytes32","internalType":"PoolId"}],"outputs":[{"name":"count","type":"uint256","internalType":"uint256"}],"stateMutability":"view"},{"type":"function","name":"beforeDonate","inputs":[{"name":"","type":"address","internalType":"address"},{"name":"","type":"tuple","internalType":"struct PoolKey","components":[{"name":"currency0","type":"address","internalType":"Currency"},{"name":"currency1","type":"address","internalType":"Currency"},{"name":"fee","type":"uint24","internalType":"uint24"},{"name":"tickSpacing","type":"int24","internalType":"int24"},{"name":"hooks","type":"address","internalType":"contract IHooks"}]},{"name":"","type":"uint256","internalType":"uint256"},{"name":"","type":"uint256","internalType":"uint256"},{"name":"","type":"bytes","internalType":"bytes"}],"outputs":[{"name":"","type":"bytes4","internalType":"bytes4"}],"stateMutability":"nonpayable"},{"type":"function","name":"beforeInitialize","inputs":[{"name":"","type":"address","internalType":"address"},{"name":"","type":"tuple","internalType":"struct PoolKey","components":[{"name":"currency0","type":"address","internalType":"Currency"},{"name":"currency1","type":"address","internalType":"Currency"},{"name":"fee","type":"uint24","internalType":"uint24"},{"name":"tickSpacing","type":"int24","internalType":"int24"},{"name":"hooks","type":"address","internalType":"contract IHooks"}]},{"name":"","type":"uint160","internalType":"uint160"},{"name":"","type":"bytes","internalType":"bytes"}],"outputs":[{"name":"","type":"bytes4","internalType":"bytes4"}],"stateMutability":"nonpayable"},{"type":"function","name":"beforeRemoveLiquidity","inputs":[{"name":"","type":"address","internalType":"address"},{"name":"key","type":"tuple","internalType":"struct PoolKey","components":[{"name":"currency0","type":"address","internalType":"Currency"},{"name":"currency1","type":"address","internalType":"Currency"},{"name":"fee","type":"uint24","internalType":"uint24"},{"name":"tickSpacing","type":"int24","internalType":"int24"},{"name":"hooks","type":"address","internalType":"contract IHooks"}]},{"name":"","type":"tuple","internalType":"struct IPoolManager.ModifyLiquidityParams","components":[{"name":"tickLower","type":"int24","internalType":"int24"},{"name":"tickUpper","type":"int24","internalType":"int24"},{"name":"liquidityDelta","type":"int256","internalType":"int256"}]},{"name":"","type":"bytes","internalType":"bytes"}],"outputs":[{"name":"","type":"bytes4","internalType":"bytes4"}],"stateMutability":"nonpayable"},{"type":"function","name":"beforeRemoveLiquidityCount","inputs":[{"name":"","type":"bytes32","internalType":"PoolId"}],"outputs":[{"name":"count","type":"uint256","internalType":"uint256"}],"stateMutability":"view"},{"type":"function","name":"beforeSwap","inputs":[{"name":"","type":"address","internalType":"address"},{"name":"key","type":"tuple","internalType":"struct PoolKey","components":[{"name":"currency0","type":"address","internalType":"Currency"},{"name":"currency1","type":"address","internalType":"Currency"},{"name":"fee","type":"uint24","internalType":"uint24"},{"name":"tickSpacing","type":"int24","internalType":"int24"},{"name":"hooks","type":"address","internalType":"contract IHooks"}]},{"name":"","type":"tuple","internalType":"struct IPoolManager.SwapParams","components":[{"name":"zeroForOne","type":"bool","internalType":"bool"},{"name":"amountSpecified","type":"int256","internalType":"int256"},{"name":"sqrtPriceLimitX96","type":"uint160","internalType":"uint160"}]},{"name":"","type":"bytes","internalType":"bytes"}],"outputs":[{"name":"","type":"bytes4","internalType":"bytes4"}],"stateMutability":"nonpayable"},{"type":"function","name":"beforeSwapCount","inputs":[{"name":"","type":"bytes32","internalType":"PoolId"}],"outputs":[{"name":"count","type":"uint256","internalType":"uint256"}],"stateMutability":"view"},{"type":"function","name":"getHookPermissions","inputs":[],"outputs":[{"name":"","type":"tuple","internalType":"struct Hooks.Permissions","components":[{"name":"beforeInitialize","type":"bool","internalType":"bool"},{"name":"afterInitialize","type":"bool","internalType":"bool"},{"name":"beforeAddLiquidity","type":"bool","internalType":"bool"},{"name":"afterAddLiquidity","type":"bool","internalType":"bool"},{"name":"beforeRemoveLiquidity","type":"bool","internalType":"bool"},{"name":"afterRemoveLiquidity","type":"bool","internalType":"bool"},{"name":"beforeSwap","type":"bool","internalType":"bool"},{"name":"afterSwap","type":"bool","internalType":"bool"},{"name":"beforeDonate","type":"bool","internalType":"bool"},{"name":"afterDonate","type":"bool","internalType":"bool"}]}],"stateMutability":"pure"},{"type":"function","name":"lockAcquired","inputs":[{"name":"","type":"address","internalType":"address"},{"name":"data","type":"bytes","internalType":"bytes"}],"outputs":[{"name":"","type":"bytes","internalType":"bytes"}],"stateMutability":"nonpayable"},{"type":"function","name":"poolManager","inputs":[],"outputs":[{"name":"","type":"address","internalType":"contract IPoolManager"}],"stateMutability":"view"},{"type":"error","name":"HookAddressNotValid","inputs":[{"name":"hooks","type":"address","internalType":"address"}]},{"type":"error","name":"HookNotImplemented","inputs":[]},{"type":"error","name":"InvalidPool","inputs":[]},{"type":"error","name":"LockFailure","inputs":[]},{"type":"error","name":"NotPoolManager","inputs":[]},{"type":"error","name":"NotSelf","inputs":[]}],"bytecode":{"object":"0x60a060405234801561000f575f80fd5b50604051610da7380380610da783398101604081905261002e91610225565b6001600160a01b038116608052806100453061004c565b5050610252565b6100ff816100fa60408051610140810182525f80825260208201819052918101829052606081018290526080810182905260a0810182905260c0810182905260e0810182905261010081018290526101208101919091525060408051610140810182525f808252602082018190526001928201839052606082018190526080820183905260a0820181905260c0820183905260e0820192909252610100810182905261012081019190915290565b610102565b50565b805115156001609f1b8316151514158061012a5750602081015115156001609e1b8316151514155b806101435750604081015115156001609d1b8316151514155b8061015c5750606081015115156001609c1b8316151514155b806101755750608081015115156001609b1b8316151514155b8061018e575060a081015115156001609a1b8316151514155b806101a7575060c08101511515600160991b8316151514155b806101c0575060e08101511515600160981b8316151514155b806101da57506101008101511515600160971b8316151514155b806101f457506101208101511515600160961b8316151514155b1561022157604051630732d7b560e51b81526001600160a01b038316600482015260240160405180910390fd5b5050565b5f60208284031215610235575f80fd5b81516001600160a01b038116811461024b575f80fd5b9392505050565b608051610b366102715f395f818161031b01526103620152610b365ff3fe608060405234801561000f575f80fd5b5060043610610106575f3560e01c8063b505b4ce1161009e578063c69399571161006e578063c6939957146102b9578063dacdbe77146102d8578063db6a9451146102f7578063dc4c90d314610316578063e1b4af69146101f4575f80fd5b8063b505b4ce146101e6578063b6a8b0fa146101f4578063c3d5d4e6146101e6578063c4e833ce14610202575f80fd5b80635c338d32116100d95780635c338d3214610185578063a6ab2a43146101b2578063a910f80f146101c5578063b47b2fb1146101d3575f80fd5b806315c7afb41461010a5780632b58404e146101335780633440d8201461015f578063575e24b414610172575b5f80fd5b61011d610118366004610666565b610355565b60405161012a91906106b7565b60405180910390f35b610146610141366004610729565b61043e565b6040516001600160e01b0319909116815260200161012a565b61014661016d3660046107a0565b61048d565b610146610180366004610729565b6104a7565b6101a46101933660046107fa565b5f6020819052908152604090205481565b60405190815260200161012a565b6101466101c0366004610729565b6104f0565b61014661016d366004610822565b6101466101e13660046108aa565b61053a565b61014661016d3660046108aa565b61014661016d36600461090d565b6102ac60408051610140810182525f80825260208201819052918101829052606081018290526080810182905260a0810182905260c0810182905260e0810182905261010081018290526101208101919091525060408051610140810182525f808252602082018190526001928201839052606082018190526080820183905260a0820181905260c0820183905260e0820192909252610100810182905261012081019190915290565b60405161012a9190610967565b6101a46102c73660046107fa565b60026020525f908152604090205481565b6101a46102e63660046107fa565b60016020525f908152604090205481565b6101a46103053660046107fa565b60036020525f908152604090205481565b61033d7f000000000000000000000000000000000000000000000000000000000000000081565b6040516001600160a01b03909116815260200161012a565b6060336001600160a01b037f000000000000000000000000000000000000000000000000000000000000000016146103a05760405163570c108560e11b815260040160405180910390fd5b5f80306001600160a01b031685856040516103bc929190610a1f565b5f604051808303815f865af19150503d805f81146103f5576040519150601f19603f3d011682016040523d82523d5f602084013e6103fa565b606091505b5091509150811561040e5791506104379050565b80515f0361042f576040516314815f4760e31b815260040160405180910390fd5b805160208201fd5b9392505050565b5f60038161045961045436899003890189610a40565b610585565b81526020019081526020015f205f81548092919061047690610adc565b909155506315ac202760e11b979650505050505050565b5f604051630a85dc2960e01b815260040160405180910390fd5b5f80806104bc61045436899003890189610a40565b81526020019081526020015f205f8154809291906104d990610adc565b909155506315d7892d60e21b979650505050505050565b5f60028161050661045436899003890189610a40565b81526020019081526020015f205f81548092919061052390610adc565b9091555063a6ab2a4360e01b979650505050505050565b5f600181610550610454368a90038a018a610a40565b81526020019081526020015f205f81548092919061056d90610adc565b9091555063b47b2fb160e01b98975050505050505050565b5f816040516020016105dd919081516001600160a01b03908116825260208084015182169083015260408084015162ffffff169083015260608084015160020b90830152608092830151169181019190915260a00190565b604051602081830303815290604052805190602001209050919050565b6001600160a01b038116811461060e575f80fd5b50565b803561061c816105fa565b919050565b5f8083601f840112610631575f80fd5b50813567ffffffffffffffff811115610648575f80fd5b60208301915083602082850101111561065f575f80fd5b9250929050565b5f805f60408486031215610678575f80fd5b8335610683816105fa565b9250602084013567ffffffffffffffff81111561069e575f80fd5b6106aa86828701610621565b9497909650939450505050565b5f602080835283518060208501525f5b818110156106e3578581018301518582016040015282016106c7565b505f604082860101526040601f19601f8301168501019250505092915050565b5f60a08284031215610713575f80fd5b50919050565b5f60608284031215610713575f80fd5b5f805f805f610140868803121561073e575f80fd5b8535610749816105fa565b94506107588760208801610703565b93506107678760c08801610719565b925061012086013567ffffffffffffffff811115610783575f80fd5b61078f88828901610621565b969995985093965092949392505050565b5f805f805f61010086880312156107b5575f80fd5b85356107c0816105fa565b94506107cf8760208801610703565b935060c08601356107df816105fa565b925060e086013567ffffffffffffffff811115610783575f80fd5b5f6020828403121561080a575f80fd5b5035919050565b8035600281900b811461061c575f80fd5b5f805f805f806101208789031215610838575f80fd5b8635610843816105fa565b95506108528860208901610703565b945060c0870135610862816105fa565b935061087060e08801610811565b925061010087013567ffffffffffffffff81111561088c575f80fd5b61089889828a01610621565b979a9699509497509295939492505050565b5f805f805f8061016087890312156108c0575f80fd5b86356108cb816105fa565b95506108da8860208901610703565b94506108e98860c08901610719565b9350610120870135925061014087013567ffffffffffffffff81111561088c575f80fd5b5f805f805f806101208789031215610923575f80fd5b863561092e816105fa565b955061093d8860208901610703565b945060c0870135935060e0870135925061010087013567ffffffffffffffff81111561088c575f80fd5b81511515815261014081016020830151610985602084018215159052565b506040830151610999604084018215159052565b5060608301516109ad606084018215159052565b5060808301516109c1608084018215159052565b5060a08301516109d560a084018215159052565b5060c08301516109e960c084018215159052565b5060e08301516109fd60e084018215159052565b5061010083810151151590830152610120928301511515929091019190915290565b818382375f9101908152919050565b803562ffffff8116811461061c575f80fd5b5f60a08284031215610a50575f80fd5b60405160a0810181811067ffffffffffffffff82111715610a7f57634e487b7160e01b5f52604160045260245ffd5b6040528235610a8d816105fa565b81526020830135610a9d816105fa565b6020820152610aae60408401610a2e565b6040820152610abf60608401610811565b6060820152610ad060808401610611565b60808201529392505050565b5f60018201610af957634e487b7160e01b5f52601160045260245ffd5b506001019056fea26469706673582212202737b259f77fbcd6e886ad97ed4dce84ae2fe057e95915428557231a21c65ef764736f6c63430008180033","linkReferences":{}},"methodIdentifiers":{"afterAddLiquidity(address,(address,address,uint24,int24,address),(int24,int24,int256),int256,bytes)":"b505b4ce","afterDonate(address,(address,address,uint24,int24,address),uint256,uint256,bytes)":"e1b4af69","afterInitialize(address,(address,address,uint24,int24,address),uint160,int24,bytes)":"a910f80f","afterRemoveLiquidity(address,(address,address,uint24,int24,address),(int24,int24,int256),int256,bytes)":"c3d5d4e6","afterSwap(address,(address,address,uint24,int24,address),(bool,int256,uint160),int256,bytes)":"b47b2fb1","afterSwapCount(bytes32)":"dacdbe77","beforeAddLiquidity(address,(address,address,uint24,int24,address),(int24,int24,int256),bytes)":"a6ab2a43","beforeAddLiquidityCount(bytes32)":"c6939957","beforeDonate(address,(address,address,uint24,int24,address),uint256,uint256,bytes)":"b6a8b0fa","beforeInitialize(address,(address,address,uint24,int24,address),uint160,bytes)":"3440d820","beforeRemoveLiquidity(address,(address,address,uint24,int24,address),(int24,int24,int256),bytes)":"2b58404e","beforeRemoveLiquidityCount(bytes32)":"db6a9451","beforeSwap(address,(address,address,uint24,int24,address),(bool,int256,uint160),bytes)":"575e24b4","beforeSwapCount(bytes32)":"5c338d32","getHookPermissions()":"c4e833ce","lockAcquired(address,bytes)":"15c7afb4","poolManager()":"dc4c90d3"},"id":82}