{"abi":[{"type":"constructor","inputs":[{"name":"_poolManager","type":"address","internalType":"contract IPoolManager"},{"name":"_signer","type":"address","internalType":"address"},{"name":"owner","type":"address","internalType":"address"}],"stateMutability":"nonpayable"},{"type":"function","name":"afterAddLiquidity","inputs":[{"name":"","type":"address","internalType":"address"},{"name":"","type":"tuple","internalType":"struct PoolKey","components":[{"name":"currency0","type":"address","internalType":"Currency"},{"name":"currency1","type":"address","internalType":"Currency"},{"name":"fee","type":"uint24","internalType":"uint24"},{"name":"tickSpacing","type":"int24","internalType":"int24"},{"name":"hooks","type":"address","internalType":"contract IHooks"}]},{"name":"","type":"tuple","internalType":"struct IPoolManager.ModifyLiquidityParams","components":[{"name":"tickLower","type":"int24","internalType":"int24"},{"name":"tickUpper","type":"int24","internalType":"int24"},{"name":"liquidityDelta","type":"int256","internalType":"int256"}]},{"name":"","type":"int256","internalType":"BalanceDelta"},{"name":"","type":"bytes","internalType":"bytes"}],"outputs":[{"name":"","type":"bytes4","internalType":"bytes4"}],"stateMutability":"nonpayable"},{"type":"function","name":"afterDonate","inputs":[{"name":"","type":"address","internalType":"address"},{"name":"","type":"tuple","internalType":"struct PoolKey","components":[{"name":"currency0","type":"address","internalType":"Currency"},{"name":"currency1","type":"address","internalType":"Currency"},{"name":"fee","type":"uint24","internalType":"uint24"},{"name":"tickSpacing","type":"int24","internalType":"int24"},{"name":"hooks","type":"address","internalType":"contract IHooks"}]},{"name":"","type":"uint256","internalType":"uint256"},{"name":"","type":"uint256","internalType":"uint256"},{"name":"","type":"bytes","internalType":"bytes"}],"outputs":[{"name":"","type":"bytes4","internalType":"bytes4"}],"stateMutability":"nonpayable"},{"type":"function","name":"afterInitialize","inputs":[{"name":"","type":"address","internalType":"address"},{"name":"","type":"tuple","internalType":"struct PoolKey","components":[{"name":"currency0","type":"address","internalType":"Currency"},{"name":"currency1","type":"address","internalType":"Currency"},{"name":"fee","type":"uint24","internalType":"uint24"},{"name":"tickSpacing","type":"int24","internalType":"int24"},{"name":"hooks","type":"address","internalType":"contract IHooks"}]},{"name":"","type":"uint160","internalType":"uint160"},{"name":"","type":"int24","internalType":"int24"},{"name":"","type":"bytes","internalType":"bytes"}],"outputs":[{"name":"","type":"bytes4","internalType":"bytes4"}],"stateMutability":"nonpayable"},{"type":"function","name":"afterRemoveLiquidity","inputs":[{"name":"","type":"address","internalType":"address"},{"name":"","type":"tuple","internalType":"struct PoolKey","components":[{"name":"currency0","type":"address","internalType":"Currency"},{"name":"currency1","type":"address","internalType":"Currency"},{"name":"fee","type":"uint24","internalType":"uint24"},{"name":"tickSpacing","type":"int24","internalType":"int24"},{"name":"hooks","type":"address","internalType":"contract IHooks"}]},{"name":"","type":"tuple","internalType":"struct IPoolManager.ModifyLiquidityParams","components":[{"name":"tickLower","type":"int24","internalType":"int24"},{"name":"tickUpper","type":"int24","internalType":"int24"},{"name":"liquidityDelta","type":"int256","internalType":"int256"}]},{"name":"","type":"int256","internalType":"BalanceDelta"},{"name":"","type":"bytes","internalType":"bytes"}],"outputs":[{"name":"","type":"bytes4","internalType":"bytes4"}],"stateMutability":"nonpayable"},{"type":"function","name":"afterSwap","inputs":[{"name":"","type":"address","internalType":"address"},{"name":"","type":"tuple","internalType":"struct PoolKey","components":[{"name":"currency0","type":"address","internalType":"Currency"},{"name":"currency1","type":"address","internalType":"Currency"},{"name":"fee","type":"uint24","internalType":"uint24"},{"name":"tickSpacing","type":"int24","internalType":"int24"},{"name":"hooks","type":"address","internalType":"contract IHooks"}]},{"name":"","type":"tuple","internalType":"struct IPoolManager.SwapParams","components":[{"name":"zeroForOne","type":"bool","internalType":"bool"},{"name":"amountSpecified","type":"int256","internalType":"int256"},{"name":"sqrtPriceLimitX96","type":"uint160","internalType":"uint160"}]},{"name":"","type":"int256","internalType":"BalanceDelta"},{"name":"","type":"bytes","internalType":"bytes"}],"outputs":[{"name":"","type":"bytes4","internalType":"bytes4"}],"stateMutability":"nonpayable"},{"type":"function","name":"beforeAddLiquidity","inputs":[{"name":"","type":"address","internalType":"address"},{"name":"","type":"tuple","internalType":"struct PoolKey","components":[{"name":"currency0","type":"address","internalType":"Currency"},{"name":"currency1","type":"address","internalType":"Currency"},{"name":"fee","type":"uint24","internalType":"uint24"},{"name":"tickSpacing","type":"int24","internalType":"int24"},{"name":"hooks","type":"address","internalType":"contract IHooks"}]},{"name":"","type":"tuple","internalType":"struct IPoolManager.ModifyLiquidityParams","components":[{"name":"tickLower","type":"int24","internalType":"int24"},{"name":"tickUpper","type":"int24","internalType":"int24"},{"name":"liquidityDelta","type":"int256","internalType":"int256"}]},{"name":"","type":"bytes","internalType":"bytes"}],"outputs":[{"name":"","type":"bytes4","internalType":"bytes4"}],"stateMutability":"nonpayable"},{"type":"function","name":"beforeDonate","inputs":[{"name":"","type":"address","internalType":"address"},{"name":"","type":"tuple","internalType":"struct PoolKey","components":[{"name":"currency0","type":"address","internalType":"Currency"},{"name":"currency1","type":"address","internalType":"Currency"},{"name":"fee","type":"uint24","internalType":"uint24"},{"name":"tickSpacing","type":"int24","internalType":"int24"},{"name":"hooks","type":"address","internalType":"contract IHooks"}]},{"name":"","type":"uint256","internalType":"uint256"},{"name":"","type":"uint256","internalType":"uint256"},{"name":"","type":"bytes","internalType":"bytes"}],"outputs":[{"name":"","type":"bytes4","internalType":"bytes4"}],"stateMutability":"nonpayable"},{"type":"function","name":"beforeInitialize","inputs":[{"name":"","type":"address","internalType":"address"},{"name":"","type":"tuple","internalType":"struct PoolKey","components":[{"name":"currency0","type":"address","internalType":"Currency"},{"name":"currency1","type":"address","internalType":"Currency"},{"name":"fee","type":"uint24","internalType":"uint24"},{"name":"tickSpacing","type":"int24","internalType":"int24"},{"name":"hooks","type":"address","internalType":"contract IHooks"}]},{"name":"","type":"uint160","internalType":"uint160"},{"name":"","type":"bytes","internalType":"bytes"}],"outputs":[{"name":"","type":"bytes4","internalType":"bytes4"}],"stateMutability":"nonpayable"},{"type":"function","name":"beforeRemoveLiquidity","inputs":[{"name":"","type":"address","internalType":"address"},{"name":"","type":"tuple","internalType":"struct PoolKey","components":[{"name":"currency0","type":"address","internalType":"Currency"},{"name":"currency1","type":"address","internalType":"Currency"},{"name":"fee","type":"uint24","internalType":"uint24"},{"name":"tickSpacing","type":"int24","internalType":"int24"},{"name":"hooks","type":"address","internalType":"contract IHooks"}]},{"name":"","type":"tuple","internalType":"struct IPoolManager.ModifyLiquidityParams","components":[{"name":"tickLower","type":"int24","internalType":"int24"},{"name":"tickUpper","type":"int24","internalType":"int24"},{"name":"liquidityDelta","type":"int256","internalType":"int256"}]},{"name":"","type":"bytes","internalType":"bytes"}],"outputs":[{"name":"","type":"bytes4","internalType":"bytes4"}],"stateMutability":"nonpayable"},{"type":"function","name":"beforeSwap","inputs":[{"name":"sender","type":"address","internalType":"address"},{"name":"key","type":"tuple","internalType":"struct PoolKey","components":[{"name":"currency0","type":"address","internalType":"Currency"},{"name":"currency1","type":"address","internalType":"Currency"},{"name":"fee","type":"uint24","internalType":"uint24"},{"name":"tickSpacing","type":"int24","internalType":"int24"},{"name":"hooks","type":"address","internalType":"contract IHooks"}]},{"name":"","type":"tuple","internalType":"struct IPoolManager.SwapParams","components":[{"name":"zeroForOne","type":"bool","internalType":"bool"},{"name":"amountSpecified","type":"int256","internalType":"int256"},{"name":"sqrtPriceLimitX96","type":"uint160","internalType":"uint160"}]},{"name":"data","type":"bytes","internalType":"bytes"}],"outputs":[{"name":"","type":"bytes4","internalType":"bytes4"}],"stateMutability":"nonpayable"},{"type":"function","name":"eip712Domain","inputs":[],"outputs":[{"name":"fields","type":"bytes1","internalType":"bytes1"},{"name":"name","type":"string","internalType":"string"},{"name":"version","type":"string","internalType":"string"},{"name":"chainId","type":"uint256","internalType":"uint256"},{"name":"verifyingContract","type":"address","internalType":"address"},{"name":"salt","type":"bytes32","internalType":"bytes32"},{"name":"extensions","type":"uint256[]","internalType":"uint256[]"}],"stateMutability":"view"},{"type":"function","name":"getHookPermissions","inputs":[],"outputs":[{"name":"","type":"tuple","internalType":"struct Hooks.Permissions","components":[{"name":"beforeInitialize","type":"bool","internalType":"bool"},{"name":"afterInitialize","type":"bool","internalType":"bool"},{"name":"beforeAddLiquidity","type":"bool","internalType":"bool"},{"name":"afterAddLiquidity","type":"bool","internalType":"bool"},{"name":"beforeRemoveLiquidity","type":"bool","internalType":"bool"},{"name":"afterRemoveLiquidity","type":"bool","internalType":"bool"},{"name":"beforeSwap","type":"bool","internalType":"bool"},{"name":"afterSwap","type":"bool","internalType":"bool"},{"name":"beforeDonate","type":"bool","internalType":"bool"},{"name":"afterDonate","type":"bool","internalType":"bool"}]}],"stateMutability":"pure"},{"type":"function","name":"lockAcquired","inputs":[{"name":"","type":"address","internalType":"address"},{"name":"data","type":"bytes","internalType":"bytes"}],"outputs":[{"name":"","type":"bytes","internalType":"bytes"}],"stateMutability":"nonpayable"},{"type":"function","name":"name","inputs":[],"outputs":[{"name":"","type":"string","internalType":"string"}],"stateMutability":"pure"},{"type":"function","name":"owner","inputs":[],"outputs":[{"name":"","type":"address","internalType":"address"}],"stateMutability":"view"},{"type":"function","name":"poolManager","inputs":[],"outputs":[{"name":"","type":"address","internalType":"contract IPoolManager"}],"stateMutability":"view"},{"type":"function","name":"renounceOwnership","inputs":[],"outputs":[],"stateMutability":"nonpayable"},{"type":"function","name":"setSigner","inputs":[{"name":"_signer","type":"address","internalType":"address"}],"outputs":[],"stateMutability":"nonpayable"},{"type":"function","name":"signer","inputs":[],"outputs":[{"name":"","type":"address","internalType":"address"}],"stateMutability":"view"},{"type":"function","name":"transferOwnership","inputs":[{"name":"newOwner","type":"address","internalType":"address"}],"outputs":[],"stateMutability":"nonpayable"},{"type":"event","name":"EIP712DomainChanged","inputs":[],"anonymous":false},{"type":"event","name":"OwnershipTransferred","inputs":[{"name":"previousOwner","type":"address","indexed":true,"internalType":"address"},{"name":"newOwner","type":"address","indexed":true,"internalType":"address"}],"anonymous":false},{"type":"event","name":"SetSigner","inputs":[{"name":"signer","type":"address","indexed":true,"internalType":"address"}],"anonymous":false},{"type":"error","name":"ECDSAInvalidSignature","inputs":[]},{"type":"error","name":"ECDSAInvalidSignatureLength","inputs":[{"name":"length","type":"uint256","internalType":"uint256"}]},{"type":"error","name":"ECDSAInvalidSignatureS","inputs":[{"name":"s","type":"bytes32","internalType":"bytes32"}]},{"type":"error","name":"HookAddressNotValid","inputs":[{"name":"hooks","type":"address","internalType":"address"}]},{"type":"error","name":"HookNotImplemented","inputs":[]},{"type":"error","name":"InvalidPool","inputs":[]},{"type":"error","name":"InvalidShortString","inputs":[]},{"type":"error","name":"LockFailure","inputs":[]},{"type":"error","name":"NotPoolManager","inputs":[]},{"type":"error","name":"NotSelf","inputs":[]},{"type":"error","name":"OwnableInvalidOwner","inputs":[{"name":"owner","type":"address","internalType":"address"}]},{"type":"error","name":"OwnableUnauthorizedAccount","inputs":[{"name":"account","type":"address","internalType":"address"}]},{"type":"error","name":"StringTooLong","inputs":[{"name":"str","type":"string","internalType":"string"}]}],"bytecode":{"object":"0x61018060405234801562000011575f80fd5b506040516200187238038062001872833981016040819052620000349162000437565b604080518082018252600b81526a2437b7b5a6b0b730b3b2b960a91b602080830191909152825180840190935260018352603160f81b908301526001600160a01b038516608052829185620000893062000173565b5062000096825f62000229565b61014052620000a781600162000229565b61016052815160208084019190912061010052815190820120610120524660c052620001366101005161012051604080517f8b73c3c69bb8fe3d512ecc4cf759cc79239f7b179b0ffacaa9a75d522b39400f60208201529081019290925260608201524660808201523060a08201525f9060c00160405160208183030381529060405280519060200120905090565b60a05250503060e0526200014a8162000261565b5050600380546001600160a01b0319166001600160a01b03929092169190911790555062000664565b62000226816200022060408051610140810182525f80825260208201819052918101829052606081018290526080810182905260a0810182905260c0810182905260e0810182905261010081018290526101208101919091525060408051610140810182525f80825260208201819052918101829052606081018290526080810182905260a08101829052600160c082015260e08101829052610100810182905261012081019190915290565b620002b2565b50565b5f60208351101562000248576200024083620003e0565b90506200025b565b8162000255848262000526565b5060ff90505b92915050565b600280546001600160a01b038381166001600160a01b0319831681179093556040519116919082907f8be0079c531659141344cd1fd0a4f28419497f9722a3daafe3b4186f6b6457e0905f90a35050565b805115156001609f1b83161515141580620002db5750602081015115156001609e1b8316151514155b80620002f55750604081015115156001609d1b8316151514155b806200030f5750606081015115156001609c1b8316151514155b80620003295750608081015115156001609b1b8316151514155b8062000343575060a081015115156001609a1b8316151514155b806200035d575060c08101511515600160991b8316151514155b8062000377575060e08101511515600160981b8316151514155b806200039257506101008101511515600160971b8316151514155b80620003ad57506101208101511515600160961b8316151514155b15620003dc57604051630732d7b560e51b81526001600160a01b03831660048201526024015b60405180910390fd5b5050565b5f80829050601f815111156200040d578260405163305a27a960e01b8152600401620003d39190620005f2565b80516200041a8262000640565b179392505050565b6001600160a01b038116811462000226575f80fd5b5f805f606084860312156200044a575f80fd5b8351620004578162000422565b60208501519093506200046a8162000422565b60408501519092506200047d8162000422565b809150509250925092565b634e487b7160e01b5f52604160045260245ffd5b600181811c90821680620004b157607f821691505b602082108103620004d057634e487b7160e01b5f52602260045260245ffd5b50919050565b601f8211156200052157805f5260205f20601f840160051c81016020851015620004fd5750805b601f840160051c820191505b818110156200051e575f815560010162000509565b50505b505050565b81516001600160401b0381111562000542576200054262000488565b6200055a816200055384546200049c565b84620004d6565b602080601f83116001811462000590575f8415620005785750858301515b5f19600386901b1c1916600185901b178555620005ea565b5f85815260208120601f198616915b82811015620005c0578886015182559484019460019091019084016200059f565b5085821015620005de57878501515f19600388901b60f8161c191681555b505060018460011b0185555b505050505050565b5f602080835283518060208501525f5b81811015620006205785810183015185820160400152820162000602565b505f604082860101526040601f19601f8301168501019250505092915050565b80516020808301519190811015620004d0575f1960209190910360031b1b16919050565b60805160a05160c05160e051610100516101205161014051610160516111ab620006c75f395f61077001525f61073f01525f6109f101525f6109c901525f61092401525f61094e01525f61097801525f818161031b015261035d01526111ab5ff3fe608060405234801561000f575f80fd5b5060043610610127575f3560e01c8063a6ab2a43116100a9578063c3d5d4e61161006e578063c3d5d4e614610246578063c4e833ce14610262578063dc4c90d314610316578063e1b4af6914610254578063f2fde38b1461033d575f80fd5b8063a6ab2a43146101a2578063a910f80f14610238578063b47b2fb114610246578063b505b4ce14610246578063b6a8b0fa14610254575f80fd5b8063575e24b4116100ef578063575e24b4146101dc5780636c19e783146101ef578063715018a61461020457806384b0196e1461020c5780638da5cb5b14610227575f80fd5b806306fdde031461012b57806315c7afb414610164578063238ac933146101775780632b58404e146101a25780633440d820146101ce575b5f80fd5b60408051808201909152600b81526a2437b7b5a6b0b730b3b2b960a91b60208201525b60405161015b9190610c6c565b60405180910390f35b61014e610172366004610cd7565b610350565b60035461018a906001600160a01b031681565b6040516001600160a01b03909116815260200161015b565b6101b56101b0366004610d4e565b610439565b6040516001600160e01b0319909116815260200161015b565b6101b56101b0366004610dc5565b6101b56101ea366004610d4e565b610453565b6102026101fd366004610e1f565b610494565b005b6102026104e5565b6102146104f8565b60405161015b9796959493929190610e3a565b6002546001600160a01b031661018a565b6101b56101b0366004610ed1565b6101b56101b0366004610f61565b6101b56101b0366004610fc4565b61030960408051610140810182525f80825260208201819052918101829052606081018290526080810182905260a0810182905260c0810182905260e0810182905261010081018290526101208101919091525060408051610140810182525f80825260208201819052918101829052606081018290526080810182905260a08101829052600160c082015260e08101829052610100810182905261012081019190915290565b60405161015b919061101e565b61018a7f000000000000000000000000000000000000000000000000000000000000000081565b61020261034b366004610e1f565b61053a565b6060336001600160a01b037f0000000000000000000000000000000000000000000000000000000000000000161461039b5760405163570c108560e11b815260040160405180910390fd5b5f80306001600160a01b031685856040516103b79291906110d6565b5f604051808303815f865af19150503d805f81146103f0576040519150601f19603f3d011682016040523d82523d5f602084013e6103f5565b606091505b509150915081156104095791506104329050565b80515f0361042a576040516314815f4760e31b815260040160405180910390fd5b805160208201fd5b9392505050565b5f604051630a85dc2960e01b815260040160405180910390fd5b5f8080808080610465878901896110e5565b9450945094509450945061047d85858d86868661057c565b506315d7892d60e21b9a9950505050505050505050565b61049c6106ba565b600380546001600160a01b0319166001600160a01b0383169081179091556040517fbb10aee7ef5a307b8097c6a7f2892b909ff1736fd24a6a5260640c185f7153b6905f90a250565b6104ed6106ba565b6104f65f6106e7565b565b5f6060805f805f6060610509610738565b610511610769565b604080515f80825260208201909252600f60f81b9b939a50919850469750309650945092509050565b6105426106ba565b6001600160a01b03811661057057604051631e4fbdf760e01b81525f60048201526024015b60405180910390fd5b610579816106e7565b50565b854211156105bf5760405162461bcd60e51b815260206004820152601060248201526f4578706972656420646561646c696e6560801b6044820152606401610567565b5f7fc73e3ad7b2e16747f38caabc33f7197fee67e741b45d9f753087c9074e6bc5dd856105eb88610796565b8960405160200161061e94939291909384526001600160a01b039290921660208401526040830152606082015260800190565b6040516020818303038152906040528051906020012090505f61064082610810565b90505f61064f82878787610842565b6003549091506001600160a01b038083169116146106af5760405162461bcd60e51b815260206004820152601d60248201527f5042546d616e616765723a20696e76616c6964207369676e61747572650000006044820152606401610567565b505050505050505050565b6002546001600160a01b031633146104f65760405163118cdaa760e01b8152336004820152602401610567565b600280546001600160a01b038381166001600160a01b0319831681179093556040519116919082907f8be0079c531659141344cd1fd0a4f28419497f9722a3daafe3b4186f6b6457e0905f90a35050565b60606107647f00000000000000000000000000000000000000000000000000000000000000005f61086e565b905090565b60606107647f0000000000000000000000000000000000000000000000000000000000000000600161086e565b5f8181526004602052604081205460ff16156107f45760405162461bcd60e51b815260206004820152601e60248201527f5042546d616e616765723a206e6f6e636520616c7265616479207573656400006044820152606401610567565b505f818152600460205260409020805460ff1916600117905590565b5f61083c61081c610918565b8360405161190160f01b8152600281019290925260228201526042902090565b92915050565b5f805f8061085288888888610a41565b9250925092506108628282610b09565b50909695505050505050565b606060ff83146108885761088183610bc5565b905061083c565b8180546108949061112f565b80601f01602080910402602001604051908101604052809291908181526020018280546108c09061112f565b801561090b5780601f106108e25761010080835404028352916020019161090b565b820191905f5260205f20905b8154815290600101906020018083116108ee57829003601f168201915b5050505050905092915050565b5f306001600160a01b037f00000000000000000000000000000000000000000000000000000000000000001614801561097057507f000000000000000000000000000000000000000000000000000000000000000046145b1561099a57507f000000000000000000000000000000000000000000000000000000000000000090565b610764604080517f8b73c3c69bb8fe3d512ecc4cf759cc79239f7b179b0ffacaa9a75d522b39400f60208201527f0000000000000000000000000000000000000000000000000000000000000000918101919091527f000000000000000000000000000000000000000000000000000000000000000060608201524660808201523060a08201525f9060c00160405160208183030381529060405280519060200120905090565b5f80807f7fffffffffffffffffffffffffffffff5d576e7357a4501ddfe92f46681b20a0841115610a7a57505f91506003905082610aff565b604080515f808252602082018084528a905260ff891692820192909252606081018790526080810186905260019060a0016020604051602081039080840390855afa158015610acb573d5f803e3d5ffd5b5050604051601f1901519150506001600160a01b038116610af657505f925060019150829050610aff565b92505f91508190505b9450945094915050565b5f826003811115610b1c57610b1c611161565b03610b25575050565b6001826003811115610b3957610b39611161565b03610b575760405163f645eedf60e01b815260040160405180910390fd5b6002826003811115610b6b57610b6b611161565b03610b8c5760405163fce698f760e01b815260048101829052602401610567565b6003826003811115610ba057610ba0611161565b03610bc1576040516335e2f38360e21b815260048101829052602401610567565b5050565b60605f610bd183610c02565b6040805160208082528183019092529192505f91906020820181803683375050509182525060208101929092525090565b5f60ff8216601f81111561083c57604051632cd44ac360e21b815260040160405180910390fd5b5f81518084525f5b81811015610c4d57602081850181015186830182015201610c31565b505f602082860101526020601f19601f83011685010191505092915050565b602081525f6104326020830184610c29565b6001600160a01b0381168114610579575f80fd5b5f8083601f840112610ca2575f80fd5b50813567ffffffffffffffff811115610cb9575f80fd5b602083019150836020828501011115610cd0575f80fd5b9250929050565b5f805f60408486031215610ce9575f80fd5b8335610cf481610c7e565b9250602084013567ffffffffffffffff811115610d0f575f80fd5b610d1b86828701610c92565b9497909650939450505050565b5f60a08284031215610d38575f80fd5b50919050565b5f60608284031215610d38575f80fd5b5f805f805f6101408688031215610d63575f80fd5b8535610d6e81610c7e565b9450610d7d8760208801610d28565b9350610d8c8760c08801610d3e565b925061012086013567ffffffffffffffff811115610da8575f80fd5b610db488828901610c92565b969995985093965092949392505050565b5f805f805f6101008688031215610dda575f80fd5b8535610de581610c7e565b9450610df48760208801610d28565b935060c0860135610e0481610c7e565b925060e086013567ffffffffffffffff811115610da8575f80fd5b5f60208284031215610e2f575f80fd5b813561043281610c7e565b60ff60f81b881681525f602060e06020840152610e5a60e084018a610c29565b8381036040850152610e6c818a610c29565b606085018990526001600160a01b038816608086015260a0850187905284810360c0860152855180825260208088019350909101905f5b81811015610ebf57835183529284019291840191600101610ea3565b50909c9b505050505050505050505050565b5f805f805f806101208789031215610ee7575f80fd5b8635610ef281610c7e565b9550610f018860208901610d28565b945060c0870135610f1181610c7e565b935060e0870135600281900b8114610f27575f80fd5b925061010087013567ffffffffffffffff811115610f43575f80fd5b610f4f89828a01610c92565b979a9699509497509295939492505050565b5f805f805f806101608789031215610f77575f80fd5b8635610f8281610c7e565b9550610f918860208901610d28565b9450610fa08860c08901610d3e565b9350610120870135925061014087013567ffffffffffffffff811115610f43575f80fd5b5f805f805f806101208789031215610fda575f80fd5b8635610fe581610c7e565b9550610ff48860208901610d28565b945060c0870135935060e0870135925061010087013567ffffffffffffffff811115610f43575f80fd5b8151151581526101408101602083015161103c602084018215159052565b506040830151611050604084018215159052565b506060830151611064606084018215159052565b506080830151611078608084018215159052565b5060a083015161108c60a084018215159052565b5060c08301516110a060c084018215159052565b5060e08301516110b460e084018215159052565b5061010083810151151590830152610120928301511515929091019190915290565b818382375f9101908152919050565b5f805f805f60a086880312156110f9575f80fd5b8535945060208601359350604086013560ff81168114611117575f80fd5b94979396509394606081013594506080013592915050565b600181811c9082168061114357607f821691505b602082108103610d3857634e487b7160e01b5f52602260045260245ffd5b634e487b7160e01b5f52602160045260245ffdfea2646970667358221220ae1e7928bc88c323885d19c43fba39d147573c5941a2c26f23cddc80967ec42164736f6c63430008180033","linkReferences":{}},"methodIdentifiers":{"afterAddLiquidity(address,(address,address,uint24,int24,address),(int24,int24,int256),int256,bytes)":"b505b4ce","afterDonate(address,(address,address,uint24,int24,address),uint256,uint256,bytes)":"e1b4af69","afterInitialize(address,(address,address,uint24,int24,address),uint160,int24,bytes)":"a910f80f","afterRemoveLiquidity(address,(address,address,uint24,int24,address),(int24,int24,int256),int256,bytes)":"c3d5d4e6","afterSwap(address,(address,address,uint24,int24,address),(bool,int256,uint160),int256,bytes)":"b47b2fb1","beforeAddLiquidity(address,(address,address,uint24,int24,address),(int24,int24,int256),bytes)":"a6ab2a43","beforeDonate(address,(address,address,uint24,int24,address),uint256,uint256,bytes)":"b6a8b0fa","beforeInitialize(address,(address,address,uint24,int24,address),uint160,bytes)":"3440d820","beforeRemoveLiquidity(address,(address,address,uint24,int24,address),(int24,int24,int256),bytes)":"2b58404e","beforeSwap(address,(address,address,uint24,int24,address),(bool,int256,uint160),bytes)":"575e24b4","eip712Domain()":"84b0196e","getHookPermissions()":"c4e833ce","lockAcquired(address,bytes)":"15c7afb4","name()":"06fdde03","owner()":"8da5cb5b","poolManager()":"dc4c90d3","renounceOwnership()":"715018a6","setSigner(address)":"6c19e783","signer()":"238ac933","transferOwnership(address)":"f2fde38b"},"id":80}