{"abi":[{"type":"constructor","inputs":[{"name":"_poolManager","type":"address","internalType":"contract IPoolManager"}],"stateMutability":"nonpayable"},{"type":"function","name":"_owner","inputs":[],"outputs":[{"name":"","type":"address","internalType":"address"}],"stateMutability":"view"},{"type":"function","name":"afterAddLiquidity","inputs":[{"name":"","type":"address","internalType":"address"},{"name":"","type":"tuple","internalType":"struct PoolKey","components":[{"name":"currency0","type":"address","internalType":"Currency"},{"name":"currency1","type":"address","internalType":"Currency"},{"name":"fee","type":"uint24","internalType":"uint24"},{"name":"tickSpacing","type":"int24","internalType":"int24"},{"name":"hooks","type":"address","internalType":"contract IHooks"}]},{"name":"","type":"tuple","internalType":"struct IPoolManager.ModifyLiquidityParams","components":[{"name":"tickLower","type":"int24","internalType":"int24"},{"name":"tickUpper","type":"int24","internalType":"int24"},{"name":"liquidityDelta","type":"int256","internalType":"int256"}]},{"name":"","type":"int256","internalType":"BalanceDelta"},{"name":"","type":"bytes","internalType":"bytes"}],"outputs":[{"name":"","type":"bytes4","internalType":"bytes4"}],"stateMutability":"nonpayable"},{"type":"function","name":"afterDonate","inputs":[{"name":"","type":"address","internalType":"address"},{"name":"","type":"tuple","internalType":"struct PoolKey","components":[{"name":"currency0","type":"address","internalType":"Currency"},{"name":"currency1","type":"address","internalType":"Currency"},{"name":"fee","type":"uint24","internalType":"uint24"},{"name":"tickSpacing","type":"int24","internalType":"int24"},{"name":"hooks","type":"address","internalType":"contract IHooks"}]},{"name":"","type":"uint256","internalType":"uint256"},{"name":"","type":"uint256","internalType":"uint256"},{"name":"","type":"bytes","internalType":"bytes"}],"outputs":[{"name":"","type":"bytes4","internalType":"bytes4"}],"stateMutability":"nonpayable"},{"type":"function","name":"afterInitialize","inputs":[{"name":"","type":"address","internalType":"address"},{"name":"","type":"tuple","internalType":"struct PoolKey","components":[{"name":"currency0","type":"address","internalType":"Currency"},{"name":"currency1","type":"address","internalType":"Currency"},{"name":"fee","type":"uint24","internalType":"uint24"},{"name":"tickSpacing","type":"int24","internalType":"int24"},{"name":"hooks","type":"address","internalType":"contract IHooks"}]},{"name":"","type":"uint160","internalType":"uint160"},{"name":"","type":"int24","internalType":"int24"},{"name":"","type":"bytes","internalType":"bytes"}],"outputs":[{"name":"","type":"bytes4","internalType":"bytes4"}],"stateMutability":"nonpayable"},{"type":"function","name":"afterRemoveLiquidity","inputs":[{"name":"","type":"address","internalType":"address"},{"name":"","type":"tuple","internalType":"struct PoolKey","components":[{"name":"currency0","type":"address","internalType":"Currency"},{"name":"currency1","type":"address","internalType":"Currency"},{"name":"fee","type":"uint24","internalType":"uint24"},{"name":"tickSpacing","type":"int24","internalType":"int24"},{"name":"hooks","type":"address","internalType":"contract IHooks"}]},{"name":"","type":"tuple","internalType":"struct IPoolManager.ModifyLiquidityParams","components":[{"name":"tickLower","type":"int24","internalType":"int24"},{"name":"tickUpper","type":"int24","internalType":"int24"},{"name":"liquidityDelta","type":"int256","internalType":"int256"}]},{"name":"","type":"int256","internalType":"BalanceDelta"},{"name":"","type":"bytes","internalType":"bytes"}],"outputs":[{"name":"","type":"bytes4","internalType":"bytes4"}],"stateMutability":"nonpayable"},{"type":"function","name":"afterSwap","inputs":[{"name":"","type":"address","internalType":"address"},{"name":"","type":"tuple","internalType":"struct PoolKey","components":[{"name":"currency0","type":"address","internalType":"Currency"},{"name":"currency1","type":"address","internalType":"Currency"},{"name":"fee","type":"uint24","internalType":"uint24"},{"name":"tickSpacing","type":"int24","internalType":"int24"},{"name":"hooks","type":"address","internalType":"contract IHooks"}]},{"name":"","type":"tuple","internalType":"struct IPoolManager.SwapParams","components":[{"name":"zeroForOne","type":"bool","internalType":"bool"},{"name":"amountSpecified","type":"int256","internalType":"int256"},{"name":"sqrtPriceLimitX96","type":"uint160","internalType":"uint160"}]},{"name":"","type":"int256","internalType":"BalanceDelta"},{"name":"","type":"bytes","internalType":"bytes"}],"outputs":[{"name":"","type":"bytes4","internalType":"bytes4"}],"stateMutability":"nonpayable"},{"type":"function","name":"afterSwapCount","inputs":[{"name":"","type":"bytes32","internalType":"PoolId"}],"outputs":[{"name":"count","type":"uint256","internalType":"uint256"}],"stateMutability":"view"},{"type":"function","name":"beforeAddLiquidity","inputs":[{"name":"","type":"address","internalType":"address"},{"name":"","type":"tuple","internalType":"struct PoolKey","components":[{"name":"currency0","type":"address","internalType":"Currency"},{"name":"currency1","type":"address","internalType":"Currency"},{"name":"fee","type":"uint24","internalType":"uint24"},{"name":"tickSpacing","type":"int24","internalType":"int24"},{"name":"hooks","type":"address","internalType":"contract IHooks"}]},{"name":"","type":"tuple","internalType":"struct IPoolManager.ModifyLiquidityParams","components":[{"name":"tickLower","type":"int24","internalType":"int24"},{"name":"tickUpper","type":"int24","internalType":"int24"},{"name":"liquidityDelta","type":"int256","internalType":"int256"}]},{"name":"","type":"bytes","internalType":"bytes"}],"outputs":[{"name":"","type":"bytes4","internalType":"bytes4"}],"stateMutability":"nonpayable"},{"type":"function","name":"beforeAddLiquidityCount","inputs":[{"name":"","type":"bytes32","internalType":"PoolId"}],"outputs":[{"name":"count","type":"uint256","internalType":"uint256"}],"stateMutability":"view"},{"type":"function","name":"beforeDonate","inputs":[{"name":"","type":"address","internalType":"address"},{"name":"","type":"tuple","internalType":"struct PoolKey","components":[{"name":"currency0","type":"address","internalType":"Currency"},{"name":"currency1","type":"address","internalType":"Currency"},{"name":"fee","type":"uint24","internalType":"uint24"},{"name":"tickSpacing","type":"int24","internalType":"int24"},{"name":"hooks","type":"address","internalType":"contract IHooks"}]},{"name":"","type":"uint256","internalType":"uint256"},{"name":"","type":"uint256","internalType":"uint256"},{"name":"","type":"bytes","internalType":"bytes"}],"outputs":[{"name":"","type":"bytes4","internalType":"bytes4"}],"stateMutability":"nonpayable"},{"type":"function","name":"beforeInitialize","inputs":[{"name":"","type":"address","internalType":"address"},{"name":"","type":"tuple","internalType":"struct PoolKey","components":[{"name":"currency0","type":"address","internalType":"Currency"},{"name":"currency1","type":"address","internalType":"Currency"},{"name":"fee","type":"uint24","internalType":"uint24"},{"name":"tickSpacing","type":"int24","internalType":"int24"},{"name":"hooks","type":"address","internalType":"contract IHooks"}]},{"name":"","type":"uint160","internalType":"uint160"},{"name":"","type":"bytes","internalType":"bytes"}],"outputs":[{"name":"","type":"bytes4","internalType":"bytes4"}],"stateMutability":"nonpayable"},{"type":"function","name":"beforeRemoveLiquidity","inputs":[{"name":"","type":"address","internalType":"address"},{"name":"","type":"tuple","internalType":"struct PoolKey","components":[{"name":"currency0","type":"address","internalType":"Currency"},{"name":"currency1","type":"address","internalType":"Currency"},{"name":"fee","type":"uint24","internalType":"uint24"},{"name":"tickSpacing","type":"int24","internalType":"int24"},{"name":"hooks","type":"address","internalType":"contract IHooks"}]},{"name":"","type":"tuple","internalType":"struct IPoolManager.ModifyLiquidityParams","components":[{"name":"tickLower","type":"int24","internalType":"int24"},{"name":"tickUpper","type":"int24","internalType":"int24"},{"name":"liquidityDelta","type":"int256","internalType":"int256"}]},{"name":"","type":"bytes","internalType":"bytes"}],"outputs":[{"name":"","type":"bytes4","internalType":"bytes4"}],"stateMutability":"nonpayable"},{"type":"function","name":"beforeRemoveLiquidityCount","inputs":[{"name":"","type":"bytes32","internalType":"PoolId"}],"outputs":[{"name":"count","type":"uint256","internalType":"uint256"}],"stateMutability":"view"},{"type":"function","name":"beforeSwap","inputs":[{"name":"","type":"address","internalType":"address"},{"name":"key","type":"tuple","internalType":"struct PoolKey","components":[{"name":"currency0","type":"address","internalType":"Currency"},{"name":"currency1","type":"address","internalType":"Currency"},{"name":"fee","type":"uint24","internalType":"uint24"},{"name":"tickSpacing","type":"int24","internalType":"int24"},{"name":"hooks","type":"address","internalType":"contract IHooks"}]},{"name":"","type":"tuple","internalType":"struct IPoolManager.SwapParams","components":[{"name":"zeroForOne","type":"bool","internalType":"bool"},{"name":"amountSpecified","type":"int256","internalType":"int256"},{"name":"sqrtPriceLimitX96","type":"uint160","internalType":"uint160"}]},{"name":"data","type":"bytes","internalType":"bytes"}],"outputs":[{"name":"","type":"bytes4","internalType":"bytes4"}],"stateMutability":"nonpayable"},{"type":"function","name":"beforeSwapCount","inputs":[{"name":"","type":"bytes32","internalType":"PoolId"}],"outputs":[{"name":"count","type":"uint256","internalType":"uint256"}],"stateMutability":"view"},{"type":"function","name":"eip712Domain","inputs":[],"outputs":[{"name":"fields","type":"bytes1","internalType":"bytes1"},{"name":"name","type":"string","internalType":"string"},{"name":"version","type":"string","internalType":"string"},{"name":"chainId","type":"uint256","internalType":"uint256"},{"name":"verifyingContract","type":"address","internalType":"address"},{"name":"salt","type":"bytes32","internalType":"bytes32"},{"name":"extensions","type":"uint256[]","internalType":"uint256[]"}],"stateMutability":"view"},{"type":"function","name":"getHookPermissions","inputs":[],"outputs":[{"name":"","type":"tuple","internalType":"struct Hooks.Permissions","components":[{"name":"beforeInitialize","type":"bool","internalType":"bool"},{"name":"afterInitialize","type":"bool","internalType":"bool"},{"name":"beforeAddLiquidity","type":"bool","internalType":"bool"},{"name":"afterAddLiquidity","type":"bool","internalType":"bool"},{"name":"beforeRemoveLiquidity","type":"bool","internalType":"bool"},{"name":"afterRemoveLiquidity","type":"bool","internalType":"bool"},{"name":"beforeSwap","type":"bool","internalType":"bool"},{"name":"afterSwap","type":"bool","internalType":"bool"},{"name":"beforeDonate","type":"bool","internalType":"bool"},{"name":"afterDonate","type":"bool","internalType":"bool"}]}],"stateMutability":"pure"},{"type":"function","name":"getStructHash","inputs":[{"name":"_blockNumber","type":"uint256","internalType":"uint256"},{"name":"_nonce","type":"uint256","internalType":"uint256"},{"name":"_trustScore","type":"uint8","internalType":"uint8"}],"outputs":[{"name":"","type":"bytes32","internalType":"bytes32"}],"stateMutability":"pure"},{"type":"function","name":"lockAcquired","inputs":[{"name":"data","type":"bytes","internalType":"bytes"}],"outputs":[{"name":"","type":"bytes","internalType":"bytes"}],"stateMutability":"nonpayable"},{"type":"function","name":"name","inputs":[],"outputs":[{"name":"","type":"string","internalType":"string"}],"stateMutability":"pure"},{"type":"function","name":"owner","inputs":[],"outputs":[{"name":"","type":"address","internalType":"address"}],"stateMutability":"view"},{"type":"function","name":"poolManager","inputs":[],"outputs":[{"name":"","type":"address","internalType":"contract IPoolManager"}],"stateMutability":"view"},{"type":"function","name":"renounceOwnership","inputs":[],"outputs":[],"stateMutability":"nonpayable"},{"type":"function","name":"setSigner","inputs":[{"name":"_signer","type":"address","internalType":"address"}],"outputs":[],"stateMutability":"nonpayable"},{"type":"function","name":"setTrustScore","inputs":[{"name":"score","type":"uint8","internalType":"uint8"}],"outputs":[],"stateMutability":"nonpayable"},{"type":"function","name":"transferOwnership","inputs":[{"name":"newOwner","type":"address","internalType":"address"}],"outputs":[],"stateMutability":"nonpayable"},{"type":"event","name":"EIP712DomainChanged","inputs":[],"anonymous":false},{"type":"event","name":"OwnershipTransferred","inputs":[{"name":"previousOwner","type":"address","indexed":true,"internalType":"address"},{"name":"newOwner","type":"address","indexed":true,"internalType":"address"}],"anonymous":false},{"type":"event","name":"SetSigner","inputs":[{"name":"signer","type":"address","indexed":true,"internalType":"address"}],"anonymous":false},{"type":"error","name":"ECDSAInvalidSignature","inputs":[]},{"type":"error","name":"ECDSAInvalidSignatureLength","inputs":[{"name":"length","type":"uint256","internalType":"uint256"}]},{"type":"error","name":"ECDSAInvalidSignatureS","inputs":[{"name":"s","type":"bytes32","internalType":"bytes32"}]},{"type":"error","name":"HookAddressNotValid","inputs":[{"name":"hooks","type":"address","internalType":"address"}]},{"type":"error","name":"HookNotImplemented","inputs":[]},{"type":"error","name":"InvalidPool","inputs":[]},{"type":"error","name":"InvalidShortString","inputs":[]},{"type":"error","name":"LockFailure","inputs":[]},{"type":"error","name":"NotPoolManager","inputs":[]},{"type":"error","name":"NotSelf","inputs":[]},{"type":"error","name":"OwnableInvalidOwner","inputs":[{"name":"owner","type":"address","internalType":"address"}]},{"type":"error","name":"OwnableUnauthorizedAccount","inputs":[{"name":"account","type":"address","internalType":"address"}]},{"type":"error","name":"StringTooLong","inputs":[{"name":"str","type":"string","internalType":"string"}]}],"bytecode":{"object":"0x610180604052600380546001600160a01b03199081167339e6db77941463eea0b323f66509eadf0bf0bf1b179091556005805460ff19169055600a805490911690553480156200004d575f80fd5b5060405162001bff38038062001bff833981016040819052620000709162000447565b600a54604080518082018252600b81526a2437b7b5a6b0b730b3b2b960a91b602080830191909152825180840190935260018352603160f81b908301526001600160a01b03848116608052909216919083620000cc3062000195565b50620000d9825f6200024e565b61014052620000ea8160016200024e565b61016052815160208084019190912061010052815190820120610120524660c052620001796101005161012051604080517f8b73c3c69bb8fe3d512ecc4cf759cc79239f7b179b0ffacaa9a75d522b39400f60208201529081019290925260608201524660808201523060a08201525f9060c00160405160208183030381529060405280519060200120905090565b60a05250503060e0526200018d8162000286565b505062000652565b6200024b816200024560408051610140810182525f80825260208201819052918101829052606081018290526080810182905260a0810182905260c0810182905260e0810182905261010081018290526101208101919091525060408051610140810182525f808252602082018190526001928201839052606082018190526080820183905260a0820181905260c0820183905260e0820192909252610100810182905261012081019190915290565b620002d7565b50565b5f6020835110156200026d57620002658362000405565b905062000280565b816200027a848262000514565b5060ff90505b92915050565b600280546001600160a01b038381166001600160a01b0319831681179093556040519116919082907f8be0079c531659141344cd1fd0a4f28419497f9722a3daafe3b4186f6b6457e0905f90a35050565b805115156001609f1b83161515141580620003005750602081015115156001609e1b8316151514155b806200031a5750604081015115156001609d1b8316151514155b80620003345750606081015115156001609c1b8316151514155b806200034e5750608081015115156001609b1b8316151514155b8062000368575060a081015115156001609a1b8316151514155b8062000382575060c08101511515600160991b8316151514155b806200039c575060e08101511515600160981b8316151514155b80620003b757506101008101511515600160971b8316151514155b80620003d257506101208101511515600160961b8316151514155b156200040157604051630732d7b560e51b81526001600160a01b03831660048201526024015b60405180910390fd5b5050565b5f80829050601f8151111562000432578260405163305a27a960e01b8152600401620003f89190620005e0565b80516200043f826200062e565b179392505050565b5f6020828403121562000458575f80fd5b81516001600160a01b03811681146200046f575f80fd5b9392505050565b634e487b7160e01b5f52604160045260245ffd5b600181811c908216806200049f57607f821691505b602082108103620004be57634e487b7160e01b5f52602260045260245ffd5b50919050565b601f8211156200050f57805f5260205f20601f840160051c81016020851015620004eb5750805b601f840160051c820191505b818110156200050c575f8155600101620004f7565b50505b505050565b81516001600160401b0381111562000530576200053062000476565b62000548816200054184546200048a565b84620004c4565b602080601f8311600181146200057e575f8415620005665750858301515b5f19600386901b1c1916600185901b178555620005d8565b5f85815260208120601f198616915b82811015620005ae578886015182559484019460019091019084016200058d565b5085821015620005cc57878501515f19600388901b60f8161c191681555b505060018460011b0185555b505050505050565b5f602080835283518060208501525f5b818110156200060e57858101830151858201604001528201620005f0565b505f604082860101526040601f19601f8301168501019250505092915050565b80516020808301519190811015620004be575f1960209190910360031b1b16919050565b60805160a05160c05160e05161010051610120516101405161016051611559620006a65f395f610ae101525f610ab001525f50505f50505f50505f50505f50505f818161047a01526106ab01526115595ff3fe608060405234801561000f575f80fd5b5060043610610187575f3560e01c8063b019ee45116100d9578063c4e833ce11610093578063db6a94511161006e578063db6a945114610456578063dc4c90d314610475578063e1b4af6914610353578063f2fde38b1461049c575f80fd5b8063c4e833ce14610361578063c693995714610418578063dacdbe7714610437575f80fd5b8063b019ee45146102ff578063b2bdfa7b14610312578063b47b2fb114610325578063b505b4ce14610345578063b6a8b0fa14610353578063c3d5d4e614610345575f80fd5b80636c19e783116101445780638da5cb5b1161011f5780638da5cb5b1461029a578063a6ab2a43146102bf578063a910f80f146102de578063ab6291fe146102ec575f80fd5b80636c19e78314610264578063715018a61461027757806384b0196e1461027f575f80fd5b806306fdde031461018b5780632b58404e146101c45780633440d820146101fc5780633da4c1ec1461020f578063575e24b4146102245780635c338d3214610237575b5f80fd5b60408051808201909152600b81526a2437b7b5a6b0b730b3b2b960a91b60208201525b6040516101bb9190610e9d565b60405180910390f35b6101e36101d2366004610f45565b6315ac202760e11b95945050505050565b6040516001600160e01b031990911681526020016101bb565b6101e361020a366004610fbc565b6104af565b61022261021d366004611026565b6104c9565b005b6101e3610232366004610f45565b6104e7565b61025661024536600461103f565b60066020525f908152604090205481565b6040519081526020016101bb565b610222610272366004611056565b6105f8565b610222610649565b61028761065c565b6040516101bb9796959493929190611071565b6002546001600160a01b03165b6040516001600160a01b0390911681526020016101bb565b6101e36102cd366004610f45565b63a6ab2a4360e01b95945050505050565b6101e361020a366004611119565b6101ae6102fa3660046111a1565b61069e565b61025661030d3660046111e0565b610786565b600a546102a7906001600160a01b031681565b6101e3610333366004611212565b63b47b2fb160e01b9695505050505050565b6101e361020a366004611212565b6101e361020a366004611275565b61040b60408051610140810182525f80825260208201819052918101829052606081018290526080810182905260a0810182905260c0810182905260e0810182905261010081018290526101208101919091525060408051610140810182525f808252602082018190526001928201839052606082018190526080820183905260a0820181905260c0820183905260e0820192909252610100810182905261012081019190915290565b6040516101bb91906112cf565b61025661042636600461103f565b60086020525f908152604090205481565b61025661044536600461103f565b60076020525f908152604090205481565b61025661046436600461103f565b60096020525f908152604090205481565b6102a77f000000000000000000000000000000000000000000000000000000000000000081565b6102226104aa366004611056565b610818565b5f604051630a85dc2960e01b815260040160405180910390fd5b6104d161085a565b6005805460ff191660ff92909216919091179055565b5f6006816105026104fd36899003890189611399565b610887565b81526020019081526020015f205f81548092919061051f90611435565b909155505f90508080808080610537888a018a611459565b9550955095509550955095506105746040518060400160405280600f81526020016e626c6f636b4e756d6265723a20257360881b815250876108fc565b61059f604051806040016040528060098152602001686e6f6e63653a20257360b81b815250866108fc565b6105d26040518060400160405280600e81526020016d747275737453636f72653a20257360901b8152508560ff166108fc565b6105e0868686868686610945565b506315d7892d60e21b9b9a5050505050505050505050565b61060061085a565b600380546001600160a01b0319166001600160a01b0383169081179091556040517fbb10aee7ef5a307b8097c6a7f2892b909ff1736fd24a6a5260640c185f7153b6905f90a250565b61065161085a565b61065a5f610a58565b565b5f6060805f805f606061066d610aa9565b610675610ada565b604080515f80825260208201909252600f60f81b9b939a50919850469750309650945092509050565b6060336001600160a01b037f000000000000000000000000000000000000000000000000000000000000000016146106e95760405163570c108560e11b815260040160405180910390fd5b5f80306001600160a01b031685856040516107059291906114ad565b5f604051808303815f865af19150503d805f811461073e576040519150601f19603f3d011682016040523d82523d5f602084013e610743565b606091505b509150915081156107575791506107809050565b80515f03610778576040516314815f4760e31b815260040160405180910390fd5b805160208201fd5b92915050565b604080517f97fdbc470b02ec198cc4216549b1597b8902b0d5424c993ea2e997c60f780fa060208201529081018490526060810183905260ff821660808201525f9060a00160408051601f1981840301815290829052805160209182012061190160f01b9183019190915260228201526042016040516020818303038152906040528051906020012090509392505050565b61082061085a565b6001600160a01b03811661084e57604051631e4fbdf760e01b81525f60048201526024015b60405180910390fd5b61085781610a58565b50565b6002546001600160a01b0316331461065a5760405163118cdaa760e01b8152336004820152602401610845565b5f816040516020016108df919081516001600160a01b03908116825260208084015182169083015260408084015162ffffff169083015260608084015160020b90830152608092830151169181019190915260a00190565b604051602081830303815290604052805190602001209050919050565b61094182826040516024016109129291906114bc565b60408051601f198184030181529190526020810180516001600160e01b03166309710a9d60e41b179052610b07565b5050565b854211156109885760405162461bcd60e51b815260206004820152601060248201526f4578706972656420646561646c696e6560801b6044820152606401610845565b60055460ff90811690851610156109d75760405162461bcd60e51b8152602060048201526013602482015272496e76616c69642074727573742073636f726560681b6044820152606401610845565b5f6109eb876109e588610b27565b87610786565b90505f6109fa82868686610ba1565b6003549091506001600160a01b03808316911614610a4e5760405162461bcd60e51b8152602060048201526011602482015270496e76616c6964207369676e617475726560781b6044820152606401610845565b5050505050505050565b600280546001600160a01b038381166001600160a01b0319831681179093556040519116919082907f8be0079c531659141344cd1fd0a4f28419497f9722a3daafe3b4186f6b6457e0905f90a35050565b6060610ad57f00000000000000000000000000000000000000000000000000000000000000005f610bcd565b905090565b6060610ad57f00000000000000000000000000000000000000000000000000000000000000006001610bcd565b80516a636f6e736f6c652e6c6f67602083015f808483855afa5050505050565b5f8181526004602052604081205460ff1615610b855760405162461bcd60e51b815260206004820152601a60248201527f496e76616c6964206e6f6e636520616c726561647920757365640000000000006044820152606401610845565b505f818152600460205260409020805460ff1916600117905590565b5f805f80610bb188888888610c76565b925092509250610bc18282610d3e565b50909695505050505050565b606060ff8314610be757610be083610df6565b9050610780565b818054610bf3906114dd565b80601f0160208091040260200160405190810160405280929190818152602001828054610c1f906114dd565b8015610c6a5780601f10610c4157610100808354040283529160200191610c6a565b820191905f5260205f20905b815481529060010190602001808311610c4d57829003601f168201915b50505050509050610780565b5f80807f7fffffffffffffffffffffffffffffff5d576e7357a4501ddfe92f46681b20a0841115610caf57505f91506003905082610d34565b604080515f808252602082018084528a905260ff891692820192909252606081018790526080810186905260019060a0016020604051602081039080840390855afa158015610d00573d5f803e3d5ffd5b5050604051601f1901519150506001600160a01b038116610d2b57505f925060019150829050610d34565b92505f91508190505b9450945094915050565b5f826003811115610d5157610d5161150f565b03610d5a575050565b6001826003811115610d6e57610d6e61150f565b03610d8c5760405163f645eedf60e01b815260040160405180910390fd5b6002826003811115610da057610da061150f565b03610dc15760405163fce698f760e01b815260048101829052602401610845565b6003826003811115610dd557610dd561150f565b03610941576040516335e2f38360e21b815260048101829052602401610845565b60605f610e0283610e33565b6040805160208082528183019092529192505f91906020820181803683375050509182525060208101929092525090565b5f60ff8216601f81111561078057604051632cd44ac360e21b815260040160405180910390fd5b5f81518084525f5b81811015610e7e57602081850181015186830182015201610e62565b505f602082860101526020601f19601f83011685010191505092915050565b602081525f610eaf6020830184610e5a565b9392505050565b6001600160a01b0381168114610857575f80fd5b8035610ed581610eb6565b919050565b5f60a08284031215610eea575f80fd5b50919050565b5f60608284031215610eea575f80fd5b5f8083601f840112610f10575f80fd5b50813567ffffffffffffffff811115610f27575f80fd5b602083019150836020828501011115610f3e575f80fd5b9250929050565b5f805f805f6101408688031215610f5a575f80fd5b8535610f6581610eb6565b9450610f748760208801610eda565b9350610f838760c08801610ef0565b925061012086013567ffffffffffffffff811115610f9f575f80fd5b610fab88828901610f00565b969995985093965092949392505050565b5f805f805f6101008688031215610fd1575f80fd5b8535610fdc81610eb6565b9450610feb8760208801610eda565b935060c0860135610ffb81610eb6565b925060e086013567ffffffffffffffff811115610f9f575f80fd5b803560ff81168114610ed5575f80fd5b5f60208284031215611036575f80fd5b610eaf82611016565b5f6020828403121561104f575f80fd5b5035919050565b5f60208284031215611066575f80fd5b8135610eaf81610eb6565b60ff60f81b881681525f602060e0602084015261109160e084018a610e5a565b83810360408501526110a3818a610e5a565b606085018990526001600160a01b038816608086015260a0850187905284810360c0860152855180825260208088019350909101905f5b818110156110f6578351835292840192918401916001016110da565b50909c9b505050505050505050505050565b8035600281900b8114610ed5575f80fd5b5f805f805f80610120878903121561112f575f80fd5b863561113a81610eb6565b95506111498860208901610eda565b945060c087013561115981610eb6565b935061116760e08801611108565b925061010087013567ffffffffffffffff811115611183575f80fd5b61118f89828a01610f00565b979a9699509497509295939492505050565b5f80602083850312156111b2575f80fd5b823567ffffffffffffffff8111156111c8575f80fd5b6111d485828601610f00565b90969095509350505050565b5f805f606084860312156111f2575f80fd5b833592506020840135915061120960408501611016565b90509250925092565b5f805f805f806101608789031215611228575f80fd5b863561123381610eb6565b95506112428860208901610eda565b94506112518860c08901610ef0565b9350610120870135925061014087013567ffffffffffffffff811115611183575f80fd5b5f805f805f80610120878903121561128b575f80fd5b863561129681610eb6565b95506112a58860208901610eda565b945060c0870135935060e0870135925061010087013567ffffffffffffffff811115611183575f80fd5b815115158152610140810160208301516112ed602084018215159052565b506040830151611301604084018215159052565b506060830151611315606084018215159052565b506080830151611329608084018215159052565b5060a083015161133d60a084018215159052565b5060c083015161135160c084018215159052565b5060e083015161136560e084018215159052565b5061010083810151151590830152610120928301511515929091019190915290565b803562ffffff81168114610ed5575f80fd5b5f60a082840312156113a9575f80fd5b60405160a0810181811067ffffffffffffffff821117156113d857634e487b7160e01b5f52604160045260245ffd5b60405282356113e681610eb6565b815260208301356113f681610eb6565b602082015261140760408401611387565b604082015261141860608401611108565b606082015261142960808401610eca565b60808201529392505050565b5f6001820161145257634e487b7160e01b5f52601160045260245ffd5b5060010190565b5f805f805f8060c0878903121561146e575f80fd5b863595506020870135945061148560408801611016565b935061149360608801611016565b92506080870135915060a087013590509295509295509295565b818382375f9101908152919050565b604081525f6114ce6040830185610e5a565b90508260208301529392505050565b600181811c908216806114f157607f821691505b602082108103610eea57634e487b7160e01b5f52602260045260245ffd5b634e487b7160e01b5f52602160045260245ffdfea26469706673582212207220e135804ef3a13fdb1238475d37aa90df4d0210a450434945ae7caa412bb264736f6c63430008180033","linkReferences":{}},"methodIdentifiers":{"_owner()":"b2bdfa7b","afterAddLiquidity(address,(address,address,uint24,int24,address),(int24,int24,int256),int256,bytes)":"b505b4ce","afterDonate(address,(address,address,uint24,int24,address),uint256,uint256,bytes)":"e1b4af69","afterInitialize(address,(address,address,uint24,int24,address),uint160,int24,bytes)":"a910f80f","afterRemoveLiquidity(address,(address,address,uint24,int24,address),(int24,int24,int256),int256,bytes)":"c3d5d4e6","afterSwap(address,(address,address,uint24,int24,address),(bool,int256,uint160),int256,bytes)":"b47b2fb1","afterSwapCount(bytes32)":"dacdbe77","beforeAddLiquidity(address,(address,address,uint24,int24,address),(int24,int24,int256),bytes)":"a6ab2a43","beforeAddLiquidityCount(bytes32)":"c6939957","beforeDonate(address,(address,address,uint24,int24,address),uint256,uint256,bytes)":"b6a8b0fa","beforeInitialize(address,(address,address,uint24,int24,address),uint160,bytes)":"3440d820","beforeRemoveLiquidity(address,(address,address,uint24,int24,address),(int24,int24,int256),bytes)":"2b58404e","beforeRemoveLiquidityCount(bytes32)":"db6a9451","beforeSwap(address,(address,address,uint24,int24,address),(bool,int256,uint160),bytes)":"575e24b4","beforeSwapCount(bytes32)":"5c338d32","eip712Domain()":"84b0196e","getHookPermissions()":"c4e833ce","getStructHash(uint256,uint256,uint8)":"b019ee45","lockAcquired(bytes)":"ab6291fe","name()":"06fdde03","owner()":"8da5cb5b","poolManager()":"dc4c90d3","renounceOwnership()":"715018a6","setSigner(address)":"6c19e783","setTrustScore(uint8)":"3da4c1ec","transferOwnership(address)":"f2fde38b"},"id":80}