{"abi":[{"type":"constructor","inputs":[{"name":"_poolManager","type":"address","internalType":"contract IPoolManager"}],"stateMutability":"nonpayable"},{"type":"function","name":"_owner","inputs":[],"outputs":[{"name":"","type":"address","internalType":"address"}],"stateMutability":"view"},{"type":"function","name":"afterAddLiquidity","inputs":[{"name":"","type":"address","internalType":"address"},{"name":"","type":"tuple","internalType":"struct PoolKey","components":[{"name":"currency0","type":"address","internalType":"Currency"},{"name":"currency1","type":"address","internalType":"Currency"},{"name":"fee","type":"uint24","internalType":"uint24"},{"name":"tickSpacing","type":"int24","internalType":"int24"},{"name":"hooks","type":"address","internalType":"contract IHooks"}]},{"name":"","type":"tuple","internalType":"struct IPoolManager.ModifyLiquidityParams","components":[{"name":"tickLower","type":"int24","internalType":"int24"},{"name":"tickUpper","type":"int24","internalType":"int24"},{"name":"liquidityDelta","type":"int256","internalType":"int256"}]},{"name":"","type":"int256","internalType":"BalanceDelta"},{"name":"","type":"bytes","internalType":"bytes"}],"outputs":[{"name":"","type":"bytes4","internalType":"bytes4"}],"stateMutability":"nonpayable"},{"type":"function","name":"afterDonate","inputs":[{"name":"","type":"address","internalType":"address"},{"name":"","type":"tuple","internalType":"struct PoolKey","components":[{"name":"currency0","type":"address","internalType":"Currency"},{"name":"currency1","type":"address","internalType":"Currency"},{"name":"fee","type":"uint24","internalType":"uint24"},{"name":"tickSpacing","type":"int24","internalType":"int24"},{"name":"hooks","type":"address","internalType":"contract IHooks"}]},{"name":"","type":"uint256","internalType":"uint256"},{"name":"","type":"uint256","internalType":"uint256"},{"name":"","type":"bytes","internalType":"bytes"}],"outputs":[{"name":"","type":"bytes4","internalType":"bytes4"}],"stateMutability":"nonpayable"},{"type":"function","name":"afterInitialize","inputs":[{"name":"","type":"address","internalType":"address"},{"name":"","type":"tuple","internalType":"struct PoolKey","components":[{"name":"currency0","type":"address","internalType":"Currency"},{"name":"currency1","type":"address","internalType":"Currency"},{"name":"fee","type":"uint24","internalType":"uint24"},{"name":"tickSpacing","type":"int24","internalType":"int24"},{"name":"hooks","type":"address","internalType":"contract IHooks"}]},{"name":"","type":"uint160","internalType":"uint160"},{"name":"","type":"int24","internalType":"int24"},{"name":"","type":"bytes","internalType":"bytes"}],"outputs":[{"name":"","type":"bytes4","internalType":"bytes4"}],"stateMutability":"nonpayable"},{"type":"function","name":"afterRemoveLiquidity","inputs":[{"name":"","type":"address","internalType":"address"},{"name":"","type":"tuple","internalType":"struct PoolKey","components":[{"name":"currency0","type":"address","internalType":"Currency"},{"name":"currency1","type":"address","internalType":"Currency"},{"name":"fee","type":"uint24","internalType":"uint24"},{"name":"tickSpacing","type":"int24","internalType":"int24"},{"name":"hooks","type":"address","internalType":"contract IHooks"}]},{"name":"","type":"tuple","internalType":"struct IPoolManager.ModifyLiquidityParams","components":[{"name":"tickLower","type":"int24","internalType":"int24"},{"name":"tickUpper","type":"int24","internalType":"int24"},{"name":"liquidityDelta","type":"int256","internalType":"int256"}]},{"name":"","type":"int256","internalType":"BalanceDelta"},{"name":"","type":"bytes","internalType":"bytes"}],"outputs":[{"name":"","type":"bytes4","internalType":"bytes4"}],"stateMutability":"nonpayable"},{"type":"function","name":"afterSwap","inputs":[{"name":"","type":"address","internalType":"address"},{"name":"key","type":"tuple","internalType":"struct PoolKey","components":[{"name":"currency0","type":"address","internalType":"Currency"},{"name":"currency1","type":"address","internalType":"Currency"},{"name":"fee","type":"uint24","internalType":"uint24"},{"name":"tickSpacing","type":"int24","internalType":"int24"},{"name":"hooks","type":"address","internalType":"contract IHooks"}]},{"name":"","type":"tuple","internalType":"struct IPoolManager.SwapParams","components":[{"name":"zeroForOne","type":"bool","internalType":"bool"},{"name":"amountSpecified","type":"int256","internalType":"int256"},{"name":"sqrtPriceLimitX96","type":"uint160","internalType":"uint160"}]},{"name":"","type":"int256","internalType":"BalanceDelta"},{"name":"","type":"bytes","internalType":"bytes"}],"outputs":[{"name":"","type":"bytes4","internalType":"bytes4"}],"stateMutability":"nonpayable"},{"type":"function","name":"afterSwapCount","inputs":[{"name":"","type":"bytes32","internalType":"PoolId"}],"outputs":[{"name":"count","type":"uint256","internalType":"uint256"}],"stateMutability":"view"},{"type":"function","name":"beforeAddLiquidity","inputs":[{"name":"","type":"address","internalType":"address"},{"name":"key","type":"tuple","internalType":"struct PoolKey","components":[{"name":"currency0","type":"address","internalType":"Currency"},{"name":"currency1","type":"address","internalType":"Currency"},{"name":"fee","type":"uint24","internalType":"uint24"},{"name":"tickSpacing","type":"int24","internalType":"int24"},{"name":"hooks","type":"address","internalType":"contract IHooks"}]},{"name":"","type":"tuple","internalType":"struct IPoolManager.ModifyLiquidityParams","components":[{"name":"tickLower","type":"int24","internalType":"int24"},{"name":"tickUpper","type":"int24","internalType":"int24"},{"name":"liquidityDelta","type":"int256","internalType":"int256"}]},{"name":"","type":"bytes","internalType":"bytes"}],"outputs":[{"name":"","type":"bytes4","internalType":"bytes4"}],"stateMutability":"nonpayable"},{"type":"function","name":"beforeAddLiquidityCount","inputs":[{"name":"","type":"bytes32","internalType":"PoolId"}],"outputs":[{"name":"count","type":"uint256","internalType":"uint256"}],"stateMutability":"view"},{"type":"function","name":"beforeDonate","inputs":[{"name":"","type":"address","internalType":"address"},{"name":"","type":"tuple","internalType":"struct PoolKey","components":[{"name":"currency0","type":"address","internalType":"Currency"},{"name":"currency1","type":"address","internalType":"Currency"},{"name":"fee","type":"uint24","internalType":"uint24"},{"name":"tickSpacing","type":"int24","internalType":"int24"},{"name":"hooks","type":"address","internalType":"contract IHooks"}]},{"name":"","type":"uint256","internalType":"uint256"},{"name":"","type":"uint256","internalType":"uint256"},{"name":"","type":"bytes","internalType":"bytes"}],"outputs":[{"name":"","type":"bytes4","internalType":"bytes4"}],"stateMutability":"nonpayable"},{"type":"function","name":"beforeInitialize","inputs":[{"name":"","type":"address","internalType":"address"},{"name":"","type":"tuple","internalType":"struct PoolKey","components":[{"name":"currency0","type":"address","internalType":"Currency"},{"name":"currency1","type":"address","internalType":"Currency"},{"name":"fee","type":"uint24","internalType":"uint24"},{"name":"tickSpacing","type":"int24","internalType":"int24"},{"name":"hooks","type":"address","internalType":"contract IHooks"}]},{"name":"","type":"uint160","internalType":"uint160"},{"name":"","type":"bytes","internalType":"bytes"}],"outputs":[{"name":"","type":"bytes4","internalType":"bytes4"}],"stateMutability":"nonpayable"},{"type":"function","name":"beforeRemoveLiquidity","inputs":[{"name":"","type":"address","internalType":"address"},{"name":"key","type":"tuple","internalType":"struct PoolKey","components":[{"name":"currency0","type":"address","internalType":"Currency"},{"name":"currency1","type":"address","internalType":"Currency"},{"name":"fee","type":"uint24","internalType":"uint24"},{"name":"tickSpacing","type":"int24","internalType":"int24"},{"name":"hooks","type":"address","internalType":"contract IHooks"}]},{"name":"","type":"tuple","internalType":"struct IPoolManager.ModifyLiquidityParams","components":[{"name":"tickLower","type":"int24","internalType":"int24"},{"name":"tickUpper","type":"int24","internalType":"int24"},{"name":"liquidityDelta","type":"int256","internalType":"int256"}]},{"name":"","type":"bytes","internalType":"bytes"}],"outputs":[{"name":"","type":"bytes4","internalType":"bytes4"}],"stateMutability":"nonpayable"},{"type":"function","name":"beforeRemoveLiquidityCount","inputs":[{"name":"","type":"bytes32","internalType":"PoolId"}],"outputs":[{"name":"count","type":"uint256","internalType":"uint256"}],"stateMutability":"view"},{"type":"function","name":"beforeSwap","inputs":[{"name":"sender","type":"address","internalType":"address"},{"name":"key","type":"tuple","internalType":"struct PoolKey","components":[{"name":"currency0","type":"address","internalType":"Currency"},{"name":"currency1","type":"address","internalType":"Currency"},{"name":"fee","type":"uint24","internalType":"uint24"},{"name":"tickSpacing","type":"int24","internalType":"int24"},{"name":"hooks","type":"address","internalType":"contract IHooks"}]},{"name":"","type":"tuple","internalType":"struct IPoolManager.SwapParams","components":[{"name":"zeroForOne","type":"bool","internalType":"bool"},{"name":"amountSpecified","type":"int256","internalType":"int256"},{"name":"sqrtPriceLimitX96","type":"uint160","internalType":"uint160"}]},{"name":"data","type":"bytes","internalType":"bytes"}],"outputs":[{"name":"","type":"bytes4","internalType":"bytes4"}],"stateMutability":"nonpayable"},{"type":"function","name":"beforeSwapCount","inputs":[{"name":"","type":"bytes32","internalType":"PoolId"}],"outputs":[{"name":"count","type":"uint256","internalType":"uint256"}],"stateMutability":"view"},{"type":"function","name":"eip712Domain","inputs":[],"outputs":[{"name":"fields","type":"bytes1","internalType":"bytes1"},{"name":"name","type":"string","internalType":"string"},{"name":"version","type":"string","internalType":"string"},{"name":"chainId","type":"uint256","internalType":"uint256"},{"name":"verifyingContract","type":"address","internalType":"address"},{"name":"salt","type":"bytes32","internalType":"bytes32"},{"name":"extensions","type":"uint256[]","internalType":"uint256[]"}],"stateMutability":"view"},{"type":"function","name":"getHookPermissions","inputs":[],"outputs":[{"name":"","type":"tuple","internalType":"struct Hooks.Permissions","components":[{"name":"beforeInitialize","type":"bool","internalType":"bool"},{"name":"afterInitialize","type":"bool","internalType":"bool"},{"name":"beforeAddLiquidity","type":"bool","internalType":"bool"},{"name":"afterAddLiquidity","type":"bool","internalType":"bool"},{"name":"beforeRemoveLiquidity","type":"bool","internalType":"bool"},{"name":"afterRemoveLiquidity","type":"bool","internalType":"bool"},{"name":"beforeSwap","type":"bool","internalType":"bool"},{"name":"afterSwap","type":"bool","internalType":"bool"},{"name":"beforeDonate","type":"bool","internalType":"bool"},{"name":"afterDonate","type":"bool","internalType":"bool"}]}],"stateMutability":"pure"},{"type":"function","name":"lockAcquired","inputs":[{"name":"data","type":"bytes","internalType":"bytes"}],"outputs":[{"name":"","type":"bytes","internalType":"bytes"}],"stateMutability":"nonpayable"},{"type":"function","name":"name","inputs":[],"outputs":[{"name":"","type":"string","internalType":"string"}],"stateMutability":"pure"},{"type":"function","name":"owner","inputs":[],"outputs":[{"name":"","type":"address","internalType":"address"}],"stateMutability":"view"},{"type":"function","name":"poolManager","inputs":[],"outputs":[{"name":"","type":"address","internalType":"contract IPoolManager"}],"stateMutability":"view"},{"type":"function","name":"renounceOwnership","inputs":[],"outputs":[],"stateMutability":"nonpayable"},{"type":"function","name":"setSigner","inputs":[{"name":"_signer","type":"address","internalType":"address"}],"outputs":[],"stateMutability":"nonpayable"},{"type":"function","name":"setTrustScore","inputs":[{"name":"score","type":"uint8","internalType":"uint8"}],"outputs":[],"stateMutability":"nonpayable"},{"type":"function","name":"transferOwnership","inputs":[{"name":"newOwner","type":"address","internalType":"address"}],"outputs":[],"stateMutability":"nonpayable"},{"type":"event","name":"EIP712DomainChanged","inputs":[],"anonymous":false},{"type":"event","name":"OwnershipTransferred","inputs":[{"name":"previousOwner","type":"address","indexed":true,"internalType":"address"},{"name":"newOwner","type":"address","indexed":true,"internalType":"address"}],"anonymous":false},{"type":"event","name":"SetSigner","inputs":[{"name":"signer","type":"address","indexed":true,"internalType":"address"}],"anonymous":false},{"type":"error","name":"ECDSAInvalidSignature","inputs":[]},{"type":"error","name":"ECDSAInvalidSignatureLength","inputs":[{"name":"length","type":"uint256","internalType":"uint256"}]},{"type":"error","name":"ECDSAInvalidSignatureS","inputs":[{"name":"s","type":"bytes32","internalType":"bytes32"}]},{"type":"error","name":"HookAddressNotValid","inputs":[{"name":"hooks","type":"address","internalType":"address"}]},{"type":"error","name":"HookNotImplemented","inputs":[]},{"type":"error","name":"InvalidPool","inputs":[]},{"type":"error","name":"InvalidShortString","inputs":[]},{"type":"error","name":"LockFailure","inputs":[]},{"type":"error","name":"NotPoolManager","inputs":[]},{"type":"error","name":"NotSelf","inputs":[]},{"type":"error","name":"OwnableInvalidOwner","inputs":[{"name":"owner","type":"address","internalType":"address"}]},{"type":"error","name":"OwnableUnauthorizedAccount","inputs":[{"name":"account","type":"address","internalType":"address"}]},{"type":"error","name":"StringTooLong","inputs":[{"name":"str","type":"string","internalType":"string"}]}],"bytecode":{"object":"0x610180604052600380546001600160a01b03199081167339e6db77941463eea0b323f66509eadf0bf0bf1b179091556005805460ff19169055600a805490911690553480156200004d575f80fd5b5060405162001c8738038062001c87833981016040819052620000709162000447565b600a54604080518082018252600b81526a2437b7b5a6b0b730b3b2b960a91b602080830191909152825180840190935260018352603160f81b908301526001600160a01b03848116608052909216919083620000cc3062000195565b50620000d9825f6200024e565b61014052620000ea8160016200024e565b61016052815160208084019190912061010052815190820120610120524660c052620001796101005161012051604080517f8b73c3c69bb8fe3d512ecc4cf759cc79239f7b179b0ffacaa9a75d522b39400f60208201529081019290925260608201524660808201523060a08201525f9060c00160405160208183030381529060405280519060200120905090565b60a05250503060e0526200018d8162000286565b505062000652565b6200024b816200024560408051610140810182525f80825260208201819052918101829052606081018290526080810182905260a0810182905260c0810182905260e0810182905261010081018290526101208101919091525060408051610140810182525f808252602082018190526001928201839052606082018190526080820183905260a0820181905260c0820183905260e0820192909252610100810182905261012081019190915290565b620002d7565b50565b5f6020835110156200026d57620002658362000405565b905062000280565b816200027a848262000514565b5060ff90505b92915050565b600280546001600160a01b038381166001600160a01b0319831681179093556040519116919082907f8be0079c531659141344cd1fd0a4f28419497f9722a3daafe3b4186f6b6457e0905f90a35050565b805115156001609f1b83161515141580620003005750602081015115156001609e1b8316151514155b806200031a5750604081015115156001609d1b8316151514155b80620003345750606081015115156001609c1b8316151514155b806200034e5750608081015115156001609b1b8316151514155b8062000368575060a081015115156001609a1b8316151514155b8062000382575060c08101511515600160991b8316151514155b806200039c575060e08101511515600160981b8316151514155b80620003b757506101008101511515600160971b8316151514155b80620003d257506101208101511515600160961b8316151514155b156200040157604051630732d7b560e51b81526001600160a01b03831660048201526024015b60405180910390fd5b5050565b5f80829050601f8151111562000432578260405163305a27a960e01b8152600401620003f89190620005e0565b80516200043f826200062e565b179392505050565b5f6020828403121562000458575f80fd5b81516001600160a01b03811681146200046f575f80fd5b9392505050565b634e487b7160e01b5f52604160045260245ffd5b600181811c908216806200049f57607f821691505b602082108103620004be57634e487b7160e01b5f52602260045260245ffd5b50919050565b601f8211156200050f57805f5260205f20601f840160051c81016020851015620004eb5750805b601f840160051c820191505b818110156200050c575f8155600101620004f7565b50505b505050565b81516001600160401b0381111562000530576200053062000476565b62000548816200054184546200048a565b84620004c4565b602080601f8311600181146200057e575f8415620005665750858301515b5f19600386901b1c1916600185901b178555620005d8565b5f85815260208120601f198616915b82811015620005ae578886015182559484019460019091019084016200058d565b5085821015620005cc57878501515f19600388901b60f8161c191681555b505060018460011b0185555b505050505050565b5f602080835283518060208501525f5b818110156200060e57858101830151858201604001528201620005f0565b505f604082860101526040601f19601f8301168501019250505092915050565b80516020808301519190811015620004be575f1960209190910360031b1b16919050565b60805160a05160c05160e051610100516101205161014051610160516115d2620006b55f395f610a7401525f610a4301525f610cee01525f610cc601525f610c2101525f610c4b01525f610c7501525f8181610428015261065f01526115d25ff3fe608060405234801561000f575f80fd5b506004361061016d575f3560e01c8063ab6291fe116100d9578063c4e833ce11610093578063db6a94511161006e578063db6a945114610404578063dc4c90d314610423578063e1b4af6914610301578063f2fde38b1461044a575f80fd5b8063c4e833ce1461030f578063c6939957146103c6578063dacdbe77146103e5575f80fd5b8063ab6291fe146102ba578063b2bdfa7b146102cd578063b47b2fb1146102e0578063b505b4ce146102f3578063b6a8b0fa14610301578063c3d5d4e6146102f3575f80fd5b80636c19e7831161012a5780636c19e7831461023e578063715018a61461025157806384b0196e146102595780638da5cb5b14610274578063a6ab2a4314610299578063a910f80f146102ac575f80fd5b806306fdde03146101715780632b58404e146101aa5780633440d820146101d65780633da4c1ec146101e9578063575e24b4146101fe5780635c338d3214610211575b5f80fd5b60408051808201909152600b81526a2437b7b5a6b0b730b3b2b960a91b60208201525b6040516101a19190610f69565b60405180910390f35b6101bd6101b8366004611011565b61045d565b6040516001600160e01b031990911681526020016101a1565b6101bd6101e4366004611088565b6104ac565b6101fc6101f73660046110f2565b6104c6565b005b6101bd61020c366004611011565b6104e4565b61023061021f36600461110b565b60066020525f908152604090205481565b6040519081526020016101a1565b6101fc61024c366004611122565b610562565b6101fc6105b3565b6102616105c6565b6040516101a1979695949392919061113d565b6002546001600160a01b03165b6040516001600160a01b0390911681526020016101a1565b6101bd6102a7366004611011565b610608565b6101bd6101e43660046111e5565b6101946102c836600461126d565b610652565b600a54610281906001600160a01b031681565b6101bd6102ee3660046112ac565b61073a565b6101bd6101e43660046112ac565b6101bd6101e436600461130f565b6103b960408051610140810182525f80825260208201819052918101829052606081018290526080810182905260a0810182905260c0810182905260e0810182905261010081018290526101208101919091525060408051610140810182525f808252602082018190526001928201839052606082018190526080820183905260a0820181905260c0820183905260e0820192909252610100810182905261012081019190915290565b6040516101a19190611369565b6102306103d436600461110b565b60086020525f908152604090205481565b6102306103f336600461110b565b60076020525f908152604090205481565b61023061041236600461110b565b60096020525f908152604090205481565b6102817f000000000000000000000000000000000000000000000000000000000000000081565b6101fc610458366004611122565b610785565b5f60098161047861047336899003890189611433565b6107c7565b81526020019081526020015f205f815480929190610495906114cf565b909155506315ac202760e11b979650505050505050565b5f604051630a85dc2960e01b815260040160405180910390fd5b6104ce61083c565b6005805460ff191660ff92909216919091179055565b5f6006816104fa61047336899003890189611433565b81526020019081526020015f205f815480929190610517906114cf565b909155505f9050808080808061052f888a018a6114f3565b95509550955095509550955061054a8686868f878787610869565b506315d7892d60e21b9b9a5050505050505050505050565b61056a61083c565b600380546001600160a01b0319166001600160a01b0383169081179091556040517fbb10aee7ef5a307b8097c6a7f2892b909ff1736fd24a6a5260640c185f7153b6905f90a250565b6105bb61083c565b6105c45f6109eb565b565b5f6060805f805f60606105d7610a3c565b6105df610a6d565b604080515f80825260208201909252600f60f81b9b939a50919850469750309650945092509050565b5f60088161061e61047336899003890189611433565b81526020019081526020015f205f81548092919061063b906114cf565b9091555063a6ab2a4360e01b979650505050505050565b6060336001600160a01b037f0000000000000000000000000000000000000000000000000000000000000000161461069d5760405163570c108560e11b815260040160405180910390fd5b5f80306001600160a01b031685856040516106b9929190611547565b5f604051808303815f865af19150503d805f81146106f2576040519150601f19603f3d011682016040523d82523d5f602084013e6106f7565b606091505b5091509150811561070b5791506107349050565b80515f0361072c576040516314815f4760e31b815260040160405180910390fd5b805160208201fd5b92915050565b5f600781610750610473368a90038a018a611433565b81526020019081526020015f205f81548092919061076d906114cf565b9091555063b47b2fb160e01b98975050505050505050565b61078d61083c565b6001600160a01b0381166107bb57604051631e4fbdf760e01b81525f60048201526024015b60405180910390fd5b6107c4816109eb565b50565b5f8160405160200161081f919081516001600160a01b03908116825260208084015182169083015260408084015162ffffff169083015260608084015160020b90830152608092830151169181019190915260a00190565b604051602081830303815290604052805190602001209050919050565b6002546001600160a01b031633146105c45760405163118cdaa760e01b81523360048201526024016107b2565b864211156108ac5760405162461bcd60e51b815260206004820152601060248201526f4578706972656420646561646c696e6560801b60448201526064016107b2565b60055460ff90811690861610156108fb5760405162461bcd60e51b8152602060048201526013602482015272496e76616c69642074727573742073636f726560681b60448201526064016107b2565b5f7f97fdbc470b02ec198cc4216549b1597b8902b0d5424c993ea2e997c60f780fa08561092789610a9a565b8a60405160200161095a94939291909384526001600160a01b039290921660208401526040830152606082015260800190565b6040516020818303038152906040528051906020012090505f61097c82610b14565b90505f61098b82878787610b40565b6003549091506001600160a01b038083169116146109df5760405162461bcd60e51b8152602060048201526011602482015270496e76616c6964207369676e617475726560781b60448201526064016107b2565b50505050505050505050565b600280546001600160a01b038381166001600160a01b0319831681179093556040519116919082907f8be0079c531659141344cd1fd0a4f28419497f9722a3daafe3b4186f6b6457e0905f90a35050565b6060610a687f00000000000000000000000000000000000000000000000000000000000000005f610b6c565b905090565b6060610a687f00000000000000000000000000000000000000000000000000000000000000006001610b6c565b5f8181526004602052604081205460ff1615610af85760405162461bcd60e51b815260206004820152601a60248201527f496e76616c6964206e6f6e636520616c7265616479207573656400000000000060448201526064016107b2565b505f818152600460205260409020805460ff1916600117905590565b5f610734610b20610c15565b8360405161190160f01b8152600281019290925260228201526042902090565b5f805f80610b5088888888610d3e565b925092509250610b608282610e06565b50909695505050505050565b606060ff8314610b8657610b7f83610ec2565b9050610734565b818054610b9290611556565b80601f0160208091040260200160405190810160405280929190818152602001828054610bbe90611556565b8015610c095780601f10610be057610100808354040283529160200191610c09565b820191905f5260205f20905b815481529060010190602001808311610bec57829003601f168201915b50505050509050610734565b5f306001600160a01b037f000000000000000000000000000000000000000000000000000000000000000016148015610c6d57507f000000000000000000000000000000000000000000000000000000000000000046145b15610c9757507f000000000000000000000000000000000000000000000000000000000000000090565b610a68604080517f8b73c3c69bb8fe3d512ecc4cf759cc79239f7b179b0ffacaa9a75d522b39400f60208201527f0000000000000000000000000000000000000000000000000000000000000000918101919091527f000000000000000000000000000000000000000000000000000000000000000060608201524660808201523060a08201525f9060c00160405160208183030381529060405280519060200120905090565b5f80807f7fffffffffffffffffffffffffffffff5d576e7357a4501ddfe92f46681b20a0841115610d7757505f91506003905082610dfc565b604080515f808252602082018084528a905260ff891692820192909252606081018790526080810186905260019060a0016020604051602081039080840390855afa158015610dc8573d5f803e3d5ffd5b5050604051601f1901519150506001600160a01b038116610df357505f925060019150829050610dfc565b92505f91508190505b9450945094915050565b5f826003811115610e1957610e19611588565b03610e22575050565b6001826003811115610e3657610e36611588565b03610e545760405163f645eedf60e01b815260040160405180910390fd5b6002826003811115610e6857610e68611588565b03610e895760405163fce698f760e01b8152600481018290526024016107b2565b6003826003811115610e9d57610e9d611588565b03610ebe576040516335e2f38360e21b8152600481018290526024016107b2565b5050565b60605f610ece83610eff565b6040805160208082528183019092529192505f91906020820181803683375050509182525060208101929092525090565b5f60ff8216601f81111561073457604051632cd44ac360e21b815260040160405180910390fd5b5f81518084525f5b81811015610f4a57602081850181015186830182015201610f2e565b505f602082860101526020601f19601f83011685010191505092915050565b602081525f610f7b6020830184610f26565b9392505050565b6001600160a01b03811681146107c4575f80fd5b8035610fa181610f82565b919050565b5f60a08284031215610fb6575f80fd5b50919050565b5f60608284031215610fb6575f80fd5b5f8083601f840112610fdc575f80fd5b50813567ffffffffffffffff811115610ff3575f80fd5b60208301915083602082850101111561100a575f80fd5b9250929050565b5f805f805f6101408688031215611026575f80fd5b853561103181610f82565b94506110408760208801610fa6565b935061104f8760c08801610fbc565b925061012086013567ffffffffffffffff81111561106b575f80fd5b61107788828901610fcc565b969995985093965092949392505050565b5f805f805f610100868803121561109d575f80fd5b85356110a881610f82565b94506110b78760208801610fa6565b935060c08601356110c781610f82565b925060e086013567ffffffffffffffff81111561106b575f80fd5b803560ff81168114610fa1575f80fd5b5f60208284031215611102575f80fd5b610f7b826110e2565b5f6020828403121561111b575f80fd5b5035919050565b5f60208284031215611132575f80fd5b8135610f7b81610f82565b60ff60f81b881681525f602060e0602084015261115d60e084018a610f26565b838103604085015261116f818a610f26565b606085018990526001600160a01b038816608086015260a0850187905284810360c0860152855180825260208088019350909101905f5b818110156111c2578351835292840192918401916001016111a6565b50909c9b505050505050505050505050565b8035600281900b8114610fa1575f80fd5b5f805f805f8061012087890312156111fb575f80fd5b863561120681610f82565b95506112158860208901610fa6565b945060c087013561122581610f82565b935061123360e088016111d4565b925061010087013567ffffffffffffffff81111561124f575f80fd5b61125b89828a01610fcc565b979a9699509497509295939492505050565b5f806020838503121561127e575f80fd5b823567ffffffffffffffff811115611294575f80fd5b6112a085828601610fcc565b90969095509350505050565b5f805f805f8061016087890312156112c2575f80fd5b86356112cd81610f82565b95506112dc8860208901610fa6565b94506112eb8860c08901610fbc565b9350610120870135925061014087013567ffffffffffffffff81111561124f575f80fd5b5f805f805f806101208789031215611325575f80fd5b863561133081610f82565b955061133f8860208901610fa6565b945060c0870135935060e0870135925061010087013567ffffffffffffffff81111561124f575f80fd5b81511515815261014081016020830151611387602084018215159052565b50604083015161139b604084018215159052565b5060608301516113af606084018215159052565b5060808301516113c3608084018215159052565b5060a08301516113d760a084018215159052565b5060c08301516113eb60c084018215159052565b5060e08301516113ff60e084018215159052565b5061010083810151151590830152610120928301511515929091019190915290565b803562ffffff81168114610fa1575f80fd5b5f60a08284031215611443575f80fd5b60405160a0810181811067ffffffffffffffff8211171561147257634e487b7160e01b5f52604160045260245ffd5b604052823561148081610f82565b8152602083013561149081610f82565b60208201526114a160408401611421565b60408201526114b2606084016111d4565b60608201526114c360808401610f96565b60808201529392505050565b5f600182016114ec57634e487b7160e01b5f52601160045260245ffd5b5060010190565b5f805f805f8060c08789031215611508575f80fd5b863595506020870135945061151f604088016110e2565b935061152d606088016110e2565b92506080870135915060a087013590509295509295509295565b818382375f9101908152919050565b600181811c9082168061156a57607f821691505b602082108103610fb657634e487b7160e01b5f52602260045260245ffd5b634e487b7160e01b5f52602160045260245ffdfea2646970667358221220a2ecee0ee65d03efbe99147defa90576fac031666d94c963e22023f6bb12e62364736f6c63430008180033","linkReferences":{}},"methodIdentifiers":{"_owner()":"b2bdfa7b","afterAddLiquidity(address,(address,address,uint24,int24,address),(int24,int24,int256),int256,bytes)":"b505b4ce","afterDonate(address,(address,address,uint24,int24,address),uint256,uint256,bytes)":"e1b4af69","afterInitialize(address,(address,address,uint24,int24,address),uint160,int24,bytes)":"a910f80f","afterRemoveLiquidity(address,(address,address,uint24,int24,address),(int24,int24,int256),int256,bytes)":"c3d5d4e6","afterSwap(address,(address,address,uint24,int24,address),(bool,int256,uint160),int256,bytes)":"b47b2fb1","afterSwapCount(bytes32)":"dacdbe77","beforeAddLiquidity(address,(address,address,uint24,int24,address),(int24,int24,int256),bytes)":"a6ab2a43","beforeAddLiquidityCount(bytes32)":"c6939957","beforeDonate(address,(address,address,uint24,int24,address),uint256,uint256,bytes)":"b6a8b0fa","beforeInitialize(address,(address,address,uint24,int24,address),uint160,bytes)":"3440d820","beforeRemoveLiquidity(address,(address,address,uint24,int24,address),(int24,int24,int256),bytes)":"2b58404e","beforeRemoveLiquidityCount(bytes32)":"db6a9451","beforeSwap(address,(address,address,uint24,int24,address),(bool,int256,uint160),bytes)":"575e24b4","beforeSwapCount(bytes32)":"5c338d32","eip712Domain()":"84b0196e","getHookPermissions()":"c4e833ce","lockAcquired(bytes)":"ab6291fe","name()":"06fdde03","owner()":"8da5cb5b","poolManager()":"dc4c90d3","renounceOwnership()":"715018a6","setSigner(address)":"6c19e783","setTrustScore(uint8)":"3da4c1ec","transferOwnership(address)":"f2fde38b"},"id":80}