{"abi":[{"type":"constructor","inputs":[{"name":"controllerGasLimit","type":"uint256","internalType":"uint256"}],"stateMutability":"nonpayable"},{"type":"receive","stateMutability":"payable"},{"type":"function","name":"MAX_TICK_SPACING","inputs":[],"outputs":[{"name":"","type":"int24","internalType":"int24"}],"stateMutability":"view"},{"type":"function","name":"MIN_PROTOCOL_FEE_DENOMINATOR","inputs":[],"outputs":[{"name":"","type":"uint8","internalType":"uint8"}],"stateMutability":"view"},{"type":"function","name":"MIN_TICK_SPACING","inputs":[],"outputs":[{"name":"","type":"int24","internalType":"int24"}],"stateMutability":"view"},{"type":"function","name":"allowance","inputs":[{"name":"","type":"address","internalType":"address"},{"name":"","type":"address","internalType":"address"},{"name":"","type":"uint256","internalType":"uint256"}],"outputs":[{"name":"","type":"uint256","internalType":"uint256"}],"stateMutability":"view"},{"type":"function","name":"approve","inputs":[{"name":"spender","type":"address","internalType":"address"},{"name":"id","type":"uint256","internalType":"uint256"},{"name":"amount","type":"uint256","internalType":"uint256"}],"outputs":[{"name":"","type":"bool","internalType":"bool"}],"stateMutability":"nonpayable"},{"type":"function","name":"balanceOf","inputs":[{"name":"","type":"address","internalType":"address"},{"name":"","type":"uint256","internalType":"uint256"}],"outputs":[{"name":"","type":"uint256","internalType":"uint256"}],"stateMutability":"view"},{"type":"function","name":"burn","inputs":[{"name":"from","type":"address","internalType":"address"},{"name":"id","type":"uint256","internalType":"uint256"},{"name":"amount","type":"uint256","internalType":"uint256"}],"outputs":[],"stateMutability":"nonpayable"},{"type":"function","name":"collectProtocolFees","inputs":[{"name":"recipient","type":"address","internalType":"address"},{"name":"currency","type":"address","internalType":"Currency"},{"name":"amount","type":"uint256","internalType":"uint256"}],"outputs":[{"name":"amountCollected","type":"uint256","internalType":"uint256"}],"stateMutability":"nonpayable"},{"type":"function","name":"currencyDelta","inputs":[{"name":"caller","type":"address","internalType":"address"},{"name":"currency","type":"address","internalType":"Currency"}],"outputs":[{"name":"currencyDelta","type":"int256","internalType":"int256"}],"stateMutability":"view"},{"type":"function","name":"donate","inputs":[{"name":"key","type":"tuple","internalType":"struct PoolKey","components":[{"name":"currency0","type":"address","internalType":"Currency"},{"name":"currency1","type":"address","internalType":"Currency"},{"name":"fee","type":"uint24","internalType":"uint24"},{"name":"tickSpacing","type":"int24","internalType":"int24"},{"name":"hooks","type":"address","internalType":"contract IHooks"}]},{"name":"amount0","type":"uint256","internalType":"uint256"},{"name":"amount1","type":"uint256","internalType":"uint256"},{"name":"hookData","type":"bytes","internalType":"bytes"}],"outputs":[{"name":"delta","type":"int256","internalType":"BalanceDelta"}],"stateMutability":"nonpayable"},{"type":"function","name":"extsload","inputs":[{"name":"slot","type":"bytes32","internalType":"bytes32"}],"outputs":[{"name":"value","type":"bytes32","internalType":"bytes32"}],"stateMutability":"view"},{"type":"function","name":"extsload","inputs":[{"name":"startSlot","type":"bytes32","internalType":"bytes32"},{"name":"nSlots","type":"uint256","internalType":"uint256"}],"outputs":[{"name":"","type":"bytes","internalType":"bytes"}],"stateMutability":"view"},{"type":"function","name":"getLiquidity","inputs":[{"name":"id","type":"bytes32","internalType":"PoolId"},{"name":"_owner","type":"address","internalType":"address"},{"name":"tickLower","type":"int24","internalType":"int24"},{"name":"tickUpper","type":"int24","internalType":"int24"}],"outputs":[{"name":"liquidity","type":"uint128","internalType":"uint128"}],"stateMutability":"view"},{"type":"function","name":"getLiquidity","inputs":[{"name":"id","type":"bytes32","internalType":"PoolId"}],"outputs":[{"name":"liquidity","type":"uint128","internalType":"uint128"}],"stateMutability":"view"},{"type":"function","name":"getLockNonzeroDeltaCount","inputs":[],"outputs":[{"name":"_nonzeroDeltaCount","type":"uint256","internalType":"uint256"}],"stateMutability":"view"},{"type":"function","name":"getPoolBitmapInfo","inputs":[{"name":"id","type":"bytes32","internalType":"PoolId"},{"name":"word","type":"int16","internalType":"int16"}],"outputs":[{"name":"tickBitmap","type":"uint256","internalType":"uint256"}],"stateMutability":"view"},{"type":"function","name":"getPoolTickInfo","inputs":[{"name":"id","type":"bytes32","internalType":"PoolId"},{"name":"tick","type":"int24","internalType":"int24"}],"outputs":[{"name":"","type":"tuple","internalType":"struct Pool.TickInfo","components":[{"name":"liquidityGross","type":"uint128","internalType":"uint128"},{"name":"liquidityNet","type":"int128","internalType":"int128"},{"name":"feeGrowthOutside0X128","type":"uint256","internalType":"uint256"},{"name":"feeGrowthOutside1X128","type":"uint256","internalType":"uint256"}]}],"stateMutability":"view"},{"type":"function","name":"getPosition","inputs":[{"name":"id","type":"bytes32","internalType":"PoolId"},{"name":"_owner","type":"address","internalType":"address"},{"name":"tickLower","type":"int24","internalType":"int24"},{"name":"tickUpper","type":"int24","internalType":"int24"}],"outputs":[{"name":"position","type":"tuple","internalType":"struct Position.Info","components":[{"name":"liquidity","type":"uint128","internalType":"uint128"},{"name":"feeGrowthInside0LastX128","type":"uint256","internalType":"uint256"},{"name":"feeGrowthInside1LastX128","type":"uint256","internalType":"uint256"}]}],"stateMutability":"view"},{"type":"function","name":"getSlot0","inputs":[{"name":"id","type":"bytes32","internalType":"PoolId"}],"outputs":[{"name":"sqrtPriceX96","type":"uint160","internalType":"uint160"},{"name":"tick","type":"int24","internalType":"int24"},{"name":"protocolFee","type":"uint16","internalType":"uint16"},{"name":"swapFee","type":"uint24","internalType":"uint24"}],"stateMutability":"view"},{"type":"function","name":"initialize","inputs":[{"name":"key","type":"tuple","internalType":"struct PoolKey","components":[{"name":"currency0","type":"address","internalType":"Currency"},{"name":"currency1","type":"address","internalType":"Currency"},{"name":"fee","type":"uint24","internalType":"uint24"},{"name":"tickSpacing","type":"int24","internalType":"int24"},{"name":"hooks","type":"address","internalType":"contract IHooks"}]},{"name":"sqrtPriceX96","type":"uint160","internalType":"uint160"},{"name":"hookData","type":"bytes","internalType":"bytes"}],"outputs":[{"name":"tick","type":"int24","internalType":"int24"}],"stateMutability":"nonpayable"},{"type":"function","name":"isLockSet","inputs":[],"outputs":[{"name":"","type":"bool","internalType":"bool"}],"stateMutability":"view"},{"type":"function","name":"isOperator","inputs":[{"name":"","type":"address","internalType":"address"},{"name":"","type":"address","internalType":"address"}],"outputs":[{"name":"","type":"bool","internalType":"bool"}],"stateMutability":"view"},{"type":"function","name":"lock","inputs":[{"name":"data","type":"bytes","internalType":"bytes"}],"outputs":[{"name":"result","type":"bytes","internalType":"bytes"}],"stateMutability":"payable"},{"type":"function","name":"mint","inputs":[{"name":"to","type":"address","internalType":"address"},{"name":"id","type":"uint256","internalType":"uint256"},{"name":"amount","type":"uint256","internalType":"uint256"}],"outputs":[],"stateMutability":"nonpayable"},{"type":"function","name":"modifyLiquidity","inputs":[{"name":"key","type":"tuple","internalType":"struct PoolKey","components":[{"name":"currency0","type":"address","internalType":"Currency"},{"name":"currency1","type":"address","internalType":"Currency"},{"name":"fee","type":"uint24","internalType":"uint24"},{"name":"tickSpacing","type":"int24","internalType":"int24"},{"name":"hooks","type":"address","internalType":"contract IHooks"}]},{"name":"params","type":"tuple","internalType":"struct IPoolManager.ModifyLiquidityParams","components":[{"name":"tickLower","type":"int24","internalType":"int24"},{"name":"tickUpper","type":"int24","internalType":"int24"},{"name":"liquidityDelta","type":"int256","internalType":"int256"}]},{"name":"hookData","type":"bytes","internalType":"bytes"}],"outputs":[{"name":"delta","type":"int256","internalType":"BalanceDelta"}],"stateMutability":"nonpayable"},{"type":"function","name":"owner","inputs":[],"outputs":[{"name":"","type":"address","internalType":"address"}],"stateMutability":"view"},{"type":"function","name":"pools","inputs":[{"name":"id","type":"bytes32","internalType":"PoolId"}],"outputs":[{"name":"slot0","type":"tuple","internalType":"struct Pool.Slot0","components":[{"name":"sqrtPriceX96","type":"uint160","internalType":"uint160"},{"name":"tick","type":"int24","internalType":"int24"},{"name":"protocolFee","type":"uint16","internalType":"uint16"},{"name":"swapFee","type":"uint24","internalType":"uint24"}]},{"name":"feeGrowthGlobal0X128","type":"uint256","internalType":"uint256"},{"name":"feeGrowthGlobal1X128","type":"uint256","internalType":"uint256"},{"name":"liquidity","type":"uint128","internalType":"uint128"}],"stateMutability":"view"},{"type":"function","name":"protocolFeeController","inputs":[],"outputs":[{"name":"","type":"address","internalType":"contract IProtocolFeeController"}],"stateMutability":"view"},{"type":"function","name":"protocolFeesAccrued","inputs":[{"name":"currency","type":"address","internalType":"Currency"}],"outputs":[{"name":"","type":"uint256","internalType":"uint256"}],"stateMutability":"view"},{"type":"function","name":"reservesOf","inputs":[{"name":"currency","type":"address","internalType":"Currency"}],"outputs":[{"name":"","type":"uint256","internalType":"uint256"}],"stateMutability":"view"},{"type":"function","name":"setOperator","inputs":[{"name":"operator","type":"address","internalType":"address"},{"name":"approved","type":"bool","internalType":"bool"}],"outputs":[{"name":"","type":"bool","internalType":"bool"}],"stateMutability":"nonpayable"},{"type":"function","name":"setOwner","inputs":[{"name":"_owner","type":"address","internalType":"address"}],"outputs":[],"stateMutability":"nonpayable"},{"type":"function","name":"setProtocolFee","inputs":[{"name":"key","type":"tuple","internalType":"struct PoolKey","components":[{"name":"currency0","type":"address","internalType":"Currency"},{"name":"currency1","type":"address","internalType":"Currency"},{"name":"fee","type":"uint24","internalType":"uint24"},{"name":"tickSpacing","type":"int24","internalType":"int24"},{"name":"hooks","type":"address","internalType":"contract IHooks"}]}],"outputs":[],"stateMutability":"nonpayable"},{"type":"function","name":"setProtocolFeeController","inputs":[{"name":"controller","type":"address","internalType":"contract IProtocolFeeController"}],"outputs":[],"stateMutability":"nonpayable"},{"type":"function","name":"settle","inputs":[{"name":"currency","type":"address","internalType":"Currency"}],"outputs":[{"name":"paid","type":"uint256","internalType":"uint256"}],"stateMutability":"payable"},{"type":"function","name":"supportsInterface","inputs":[{"name":"interfaceId","type":"bytes4","internalType":"bytes4"}],"outputs":[{"name":"","type":"bool","internalType":"bool"}],"stateMutability":"view"},{"type":"function","name":"swap","inputs":[{"name":"key","type":"tuple","internalType":"struct PoolKey","components":[{"name":"currency0","type":"address","internalType":"Currency"},{"name":"currency1","type":"address","internalType":"Currency"},{"name":"fee","type":"uint24","internalType":"uint24"},{"name":"tickSpacing","type":"int24","internalType":"int24"},{"name":"hooks","type":"address","internalType":"contract IHooks"}]},{"name":"params","type":"tuple","internalType":"struct IPoolManager.SwapParams","components":[{"name":"zeroForOne","type":"bool","internalType":"bool"},{"name":"amountSpecified","type":"int256","internalType":"int256"},{"name":"sqrtPriceLimitX96","type":"uint160","internalType":"uint160"}]},{"name":"hookData","type":"bytes","internalType":"bytes"}],"outputs":[{"name":"delta","type":"int256","internalType":"BalanceDelta"}],"stateMutability":"nonpayable"},{"type":"function","name":"take","inputs":[{"name":"currency","type":"address","internalType":"Currency"},{"name":"to","type":"address","internalType":"address"},{"name":"amount","type":"uint256","internalType":"uint256"}],"outputs":[],"stateMutability":"nonpayable"},{"type":"function","name":"transfer","inputs":[{"name":"receiver","type":"address","internalType":"address"},{"name":"id","type":"uint256","internalType":"uint256"},{"name":"amount","type":"uint256","internalType":"uint256"}],"outputs":[{"name":"","type":"bool","internalType":"bool"}],"stateMutability":"nonpayable"},{"type":"function","name":"transferFrom","inputs":[{"name":"sender","type":"address","internalType":"address"},{"name":"receiver","type":"address","internalType":"address"},{"name":"id","type":"uint256","internalType":"uint256"},{"name":"amount","type":"uint256","internalType":"uint256"}],"outputs":[{"name":"","type":"bool","internalType":"bool"}],"stateMutability":"nonpayable"},{"type":"function","name":"updateDynamicSwapFee","inputs":[{"name":"key","type":"tuple","internalType":"struct PoolKey","components":[{"name":"currency0","type":"address","internalType":"Currency"},{"name":"currency1","type":"address","internalType":"Currency"},{"name":"fee","type":"uint24","internalType":"uint24"},{"name":"tickSpacing","type":"int24","internalType":"int24"},{"name":"hooks","type":"address","internalType":"contract IHooks"}]},{"name":"newDynamicSwapFee","type":"uint24","internalType":"uint24"}],"outputs":[],"stateMutability":"nonpayable"},{"type":"event","name":"Approval","inputs":[{"name":"owner","type":"address","indexed":true,"internalType":"address"},{"name":"spender","type":"address","indexed":true,"internalType":"address"},{"name":"id","type":"uint256","indexed":true,"internalType":"uint256"},{"name":"amount","type":"uint256","indexed":false,"internalType":"uint256"}],"anonymous":false},{"type":"event","name":"Initialize","inputs":[{"name":"id","type":"bytes32","indexed":true,"internalType":"PoolId"},{"name":"currency0","type":"address","indexed":true,"internalType":"Currency"},{"name":"currency1","type":"address","indexed":true,"internalType":"Currency"},{"name":"fee","type":"uint24","indexed":false,"internalType":"uint24"},{"name":"tickSpacing","type":"int24","indexed":false,"internalType":"int24"},{"name":"hooks","type":"address","indexed":false,"internalType":"contract IHooks"}],"anonymous":false},{"type":"event","name":"ModifyLiquidity","inputs":[{"name":"id","type":"bytes32","indexed":true,"internalType":"PoolId"},{"name":"sender","type":"address","indexed":true,"internalType":"address"},{"name":"tickLower","type":"int24","indexed":false,"internalType":"int24"},{"name":"tickUpper","type":"int24","indexed":false,"internalType":"int24"},{"name":"liquidityDelta","type":"int256","indexed":false,"internalType":"int256"}],"anonymous":false},{"type":"event","name":"OperatorSet","inputs":[{"name":"owner","type":"address","indexed":true,"internalType":"address"},{"name":"operator","type":"address","indexed":true,"internalType":"address"},{"name":"approved","type":"bool","indexed":false,"internalType":"bool"}],"anonymous":false},{"type":"event","name":"OwnerChanged","inputs":[{"name":"oldOwner","type":"address","indexed":true,"internalType":"address"},{"name":"newOwner","type":"address","indexed":true,"internalType":"address"}],"anonymous":false},{"type":"event","name":"ProtocolFeeControllerUpdated","inputs":[{"name":"protocolFeeController","type":"address","indexed":false,"internalType":"address"}],"anonymous":false},{"type":"event","name":"ProtocolFeeUpdated","inputs":[{"name":"id","type":"bytes32","indexed":true,"internalType":"PoolId"},{"name":"protocolFee","type":"uint16","indexed":false,"internalType":"uint16"}],"anonymous":false},{"type":"event","name":"Swap","inputs":[{"name":"id","type":"bytes32","indexed":true,"internalType":"PoolId"},{"name":"sender","type":"address","indexed":true,"internalType":"address"},{"name":"amount0","type":"int128","indexed":false,"internalType":"int128"},{"name":"amount1","type":"int128","indexed":false,"internalType":"int128"},{"name":"sqrtPriceX96","type":"uint160","indexed":false,"internalType":"uint160"},{"name":"liquidity","type":"uint128","indexed":false,"internalType":"uint128"},{"name":"tick","type":"int24","indexed":false,"internalType":"int24"},{"name":"fee","type":"uint24","indexed":false,"internalType":"uint24"}],"anonymous":false},{"type":"event","name":"Transfer","inputs":[{"name":"caller","type":"address","indexed":false,"internalType":"address"},{"name":"from","type":"address","indexed":true,"internalType":"address"},{"name":"to","type":"address","indexed":true,"internalType":"address"},{"name":"id","type":"uint256","indexed":true,"internalType":"uint256"},{"name":"amount","type":"uint256","indexed":false,"internalType":"uint256"}],"anonymous":false},{"type":"error","name":"AlreadyLocked","inputs":[]},{"type":"error","name":"CannotUpdateEmptyPosition","inputs":[]},{"type":"error","name":"CurrenciesOutOfOrderOrEqual","inputs":[]},{"type":"error","name":"CurrencyNotSettled","inputs":[]},{"type":"error","name":"DelegateCallNotAllowed","inputs":[]},{"type":"error","name":"ERC20TransferFailed","inputs":[]},{"type":"error","name":"FailedHookCall","inputs":[]},{"type":"error","name":"FeeNotDynamic","inputs":[]},{"type":"error","name":"FeeTooLarge","inputs":[]},{"type":"error","name":"HookAddressNotValid","inputs":[{"name":"hooks","type":"address","internalType":"address"}]},{"type":"error","name":"InvalidCaller","inputs":[]},{"type":"error","name":"InvalidHookResponse","inputs":[]},{"type":"error","name":"InvalidPrice","inputs":[]},{"type":"error","name":"InvalidPriceOrLiquidity","inputs":[]},{"type":"error","name":"InvalidSqrtRatio","inputs":[]},{"type":"error","name":"InvalidTick","inputs":[]},{"type":"error","name":"ManagerNotLocked","inputs":[]},{"type":"error","name":"MaxCurrenciesTouched","inputs":[]},{"type":"error","name":"NativeTransferFailed","inputs":[]},{"type":"error","name":"NoLiquidityToReceiveFees","inputs":[]},{"type":"error","name":"NotEnoughLiquidity","inputs":[]},{"type":"error","name":"NotPoolManagerToken","inputs":[]},{"type":"error","name":"PoolAlreadyInitialized","inputs":[]},{"type":"error","name":"PoolNotInitialized","inputs":[]},{"type":"error","name":"PoolNotInitialized","inputs":[]},{"type":"error","name":"PriceLimitAlreadyExceeded","inputs":[{"name":"sqrtPriceCurrentX96","type":"uint160","internalType":"uint160"},{"name":"sqrtPriceLimitX96","type":"uint160","internalType":"uint160"}]},{"type":"error","name":"PriceLimitOutOfBounds","inputs":[{"name":"sqrtPriceLimitX96","type":"uint160","internalType":"uint160"}]},{"type":"error","name":"PriceOverflow","inputs":[]},{"type":"error","name":"ProtocolFeeCannotBeFetched","inputs":[]},{"type":"error","name":"ProtocolFeeControllerCallFailedOrInvalidResult","inputs":[]},{"type":"error","name":"SafeCastOverflow","inputs":[]},{"type":"error","name":"SwapAmountCannotBeZero","inputs":[]},{"type":"error","name":"TickLiquidityOverflow","inputs":[{"name":"tick","type":"int24","internalType":"int24"}]},{"type":"error","name":"TickLowerOutOfBounds","inputs":[{"name":"tickLower","type":"int24","internalType":"int24"}]},{"type":"error","name":"TickMisaligned","inputs":[{"name":"tick","type":"int24","internalType":"int24"},{"name":"tickSpacing","type":"int24","internalType":"int24"}]},{"type":"error","name":"TickSpacingTooLarge","inputs":[]},{"type":"error","name":"TickSpacingTooSmall","inputs":[]},{"type":"error","name":"TickUpperOutOfBounds","inputs":[{"name":"tickUpper","type":"int24","internalType":"int24"}]},{"type":"error","name":"TicksMisordered","inputs":[{"name":"tickLower","type":"int24","internalType":"int24"},{"name":"tickUpper","type":"int24","internalType":"int24"}]},{"type":"error","name":"UnauthorizedDynamicSwapFeeUpdate","inputs":[]}],"bytecode":{"object":"0x60c060405234801562000010575f80fd5b50604051620055b1380380620055b183398101604081905262000033916200007f565b5f80546001600160a01b0319163390811782556040518392907fb532073b38c83145e3e5135377a08bf9aab55bc0fd7c1179cd4fb995d2a5159c908290a3608052503060a05262000097565b5f6020828403121562000090575f80fd5b5051919050565b60805160a0516154f1620000c05f395f611a3901525f8181611fb3015261200a01526154f15ff3fe608060405260043610610240575f3560e01c80636a256b2911610134578063b02375ce116100b3578063d9b054b411610078578063d9b054b414610921578063f02de3b214610935578063f3cd914c14610954578063f5298aca14610973578063fa6793d514610992578063fe99049a146109c9575f80fd5b8063b02375ce146106fc578063b5217bb41461071b578063b6363cf214610810578063bec999dd14610849578063c815641c14610868575f80fd5b80638da5cb5b116100f95780638da5cb5b1461061b57806393c85a211461065157806397e8cd4e1461067c578063a412b9d8146106a7578063a54b2831146106c6575f80fd5b80636a256b29146105915780637c352ef6146105a457806381548319146105c35780638161b874146105d657806384e41c5e146105f5575f80fd5b80632d771389116101c0578063558a729711610185578063558a7297146104a4578063598af9e7146104c35780635aa208a4146104ff57806360460f061461055d578063695c5bf514610572575f80fd5b80632d771389146103ef57806333aa955b1461040e57806335fd631a14610445578063426a84931461047157806346063d0514610490575f80fd5b80630b0d9c09116102065780630b0d9c091461035357806313af403514610374578063156e29f6146103935780631e2eaeaf146103b2578063234266d7146103d0575f80fd5b8062fdd58e1461024b57806301ffc9a714610294578063048d9c70146102c357806307eff0dd1461030d578063095bcdb614610334575f80fd5b3661024757005b5f80fd5b348015610256575f80fd5b506102816102653660046148f8565b600460209081525f928352604080842090915290825290205481565b6040519081526020015b60405180910390f35b34801561029f575f80fd5b506102b36102ae366004614937565b6109e8565b604051901515815260200161028b565b3480156102ce575f80fd5b506102e26102dd366004614963565b610a1e565b6040805182516001600160801b0316815260208084015190820152918101519082015260600161028b565b348015610318575f80fd5b50610321600181565b60405160029190910b815260200161028b565b34801561033f575f80fd5b506102b361034e3660046149af565b610a9a565b34801561035e575f80fd5b5061037261036d3660046149e1565b610b41565b005b34801561037f575f80fd5b5061037261038e366004614a1f565b610bcf565b34801561039e575f80fd5b506103726103ad3660046149af565b610c52565b3480156103bd575f80fd5b506102816103cc366004614a3a565b5490565b3480156103db575f80fd5b506102816103ea366004614b7b565b610c97565b3480156103fa575f80fd5b50610372610409366004614a1f565b610d40565b348015610419575f80fd5b5061042d610428366004614963565b610dbe565b6040516001600160801b03909116815260200161028b565b348015610450575f80fd5b5061046461045f366004614be0565b610ded565b60405161028b9190614c22565b34801561047c575f80fd5b506102b361048b3660046149af565b610e6b565b34801561049b575f80fd5b50610281610ecf565b3480156104af575f80fd5b506102b36104be366004614c63565b610edd565b3480156104ce575f80fd5b506102816104dd3660046149e1565b600560209081525f938452604080852082529284528284209052825290205481565b34801561050a575f80fd5b5061051e610519366004614c96565b610f4c565b60405161028b919081516001600160801b03168152602080830151600f0b90820152604080830151908201526060918201519181019190915260800190565b348015610568575f80fd5b50610321617fff81565b34801561057d575f80fd5b5061032161058c366004614cb7565b610fe9565b61028161059f366004614a1f565b6111e4565b3480156105af575f80fd5b506102816105be366004614d17565b61126e565b6104646105d1366004614d4a565b611293565b3480156105e1575f80fd5b506102816105f03660046149e1565b61135a565b348015610600575f80fd5b50610609600481565b60405160ff909116815260200161028b565b348015610626575f80fd5b505f54610639906001600160a01b031681565b6040516001600160a01b03909116815260200161028b565b34801561065c575f80fd5b5061028161066b366004614a1f565b60076020525f908152604090205481565b348015610687575f80fd5b50610281610696366004614a1f565b60016020525f908152604090205481565b3480156106b2575f80fd5b506103726106c1366004614d89565b6113f2565b3480156106d1575f80fd5b506102816106e0366004614db2565b600660209081525f928352604080842090915290825290205481565b348015610707575f80fd5b50610372610716366004614dde565b61146e565b348015610726575f80fd5b506107ae610735366004614a3a565b600860209081525f918252604091829020825160808101845281546001600160a01b0381168252600160a01b8104600290810b94830194909452600160b81b810461ffff1694820194909452600160c81b90930462ffffff1660608401526001810154918101546003909101546001600160801b031684565b6040805185516001600160a01b0316815260208087015160020b908201528582015161ffff169181019190915260609485015162ffffff1694810194909452608084019290925260a08301526001600160801b031660c082015260e00161028b565b34801561081b575f80fd5b506102b361082a366004614db2565b600360209081525f928352604080842090915290825290205460ff1681565b348015610854575f80fd5b50610281610863366004614df8565b6114fe565b348015610873575f80fd5b506108e6610882366004614a3a565b5f90815260086020908152604091829020825160808101845290546001600160a01b038116808352600160a01b820460020b938301849052600160b81b820461ffff16948301859052600160c81b90910462ffffff16606090920182905293919291565b604080516001600160a01b03909516855260029390930b602085015261ffff9091169183019190915262ffffff16606082015260800161028b565b34801561092c575f80fd5b506102b3611655565b348015610940575f80fd5b50600254610639906001600160a01b031681565b34801561095f575f80fd5b5061028161096e366004614e78565b61165e565b34801561097e575f80fd5b5061037261098d3660046149af565b61182f565b34801561099d575f80fd5b5061042d6109ac366004614a3a565b5f908152600860205260409020600301546001600160801b031690565b3480156109d4575f80fd5b506102b36109e3366004614efa565b611874565b5f6301ffc9a760e01b6001600160e01b031983161480610a185750630f632fb360e01b6001600160e01b03198316145b92915050565b610a4860405180606001604052805f6001600160801b031681526020015f81526020015f81525090565b5f858152600860205260409020610a64906006018585856119d2565b6040805160608101825282546001600160801b03168152600183015460208201526002909201549082015290505b949350505050565b335f908152600460209081526040808320858452909152812080548391908390610ac5908490614f51565b90915550506001600160a01b0384165f90815260046020908152604080832086845290915281208054849290610afc908490614f64565b909155505060408051338082526020820185905285926001600160a01b038816925f8051602061549c83398151915291015b60405180910390a45060015b9392505050565b610b49611a2e565b610b51611a79565b610b6e5760405163eab072a760e01b815260040160405180910390fd5b610b8983610b7b83611aad565b610b8490614f77565b611ada565b6001600160a01b0383165f9081526007602052604081208054839290610bb0908490614f51565b90915550610bca90506001600160a01b0384168383611b6d565b505050565b5f546001600160a01b03163314610bf9576040516348f5c3ed60e01b815260040160405180910390fd5b5f80546040516001600160a01b03808516939216917fb532073b38c83145e3e5135377a08bf9aab55bc0fd7c1179cd4fb995d2a5159c91a35f80546001600160a01b0319166001600160a01b0392909216919091179055565b610c5a611a2e565b610c62611a79565b610c7f5760405163eab072a760e01b815260040160405180910390fd5b610c8c82610b7b83611aad565b610bca838383611c05565b5f610ca0611a2e565b610ca8611a79565b610cc55760405163eab072a760e01b815260040160405180910390fd5b5f610ccf87611c77565b9050610cda81611ca6565b6080870151610cf6906001600160a01b03168888888888611cdd565b5f818152600860205260409020610d0e908787611d5d565b9150610d1a8783611e30565b6080870151610d36906001600160a01b03168888888888611e53565b5095945050505050565b5f546001600160a01b03163314610d6a576040516348f5c3ed60e01b815260040160405180910390fd5b600280546001600160a01b0319166001600160a01b0383169081179091556040519081527fb4bd8ef53df690b9943d3318996006dbb82a25f54719d8c8035b516a2a5b8acc9060200160405180910390a150565b5f848152600860205260408120610dda906006018585856119d2565b546001600160801b031695945050505050565b60605f610dfb836020614f9b565b67ffffffffffffffff811115610e1357610e13614a51565b6040519080825280601f01601f191660200182016040528015610e3d576020820181803683370190505b5090505f5b83811015610e63578085015460206001830102830152600181019050610e42565b509392505050565b335f8181526005602090815260408083206001600160a01b03881680855290835281842087855290925280832085905551919285927fb3fd5071835887567a0671151121894ddccc2842f1d10bedad13e0d17cace9a790610b2e9087815260200190565b5f610ed8611e89565b905090565b335f8181526003602090815260408083206001600160a01b038716808552908352818420805460ff191687151590811790915591519182529293917fceb576d9f15e4e200fdb5096d64d5dfd667e16def20c1eefd14256d8e3faa267910160405180910390a350600192915050565b60408051608080820183525f8083526020808401829052838501829052606080850183905287835260088252858320865180860188528481528084018590528088018590528201849052600288810b855260049091018352928690208651948501875280546001600160801b0381168652600160801b9004600f0b9285019290925260018201549584019590955201549281019290925290610b3a565b5f617fff60010b60020b856060015160020b131561101a57604051635815aee160e11b815260040160405180910390fd5b600160020b856060015160020b121561104657604051630b7f3b4b60e11b815260040160405180910390fd5b845160208601516001600160a01b039081169116106110785760405163eaa6c6eb60e01b815260040160405180910390fd5b61109c856040015186608001516001600160a01b0316611eb690919063ffffffff16565b6110cf576080850151604051630732d7b560e51b81526001600160a01b0390911660048201526024015b60405180910390fd5b5f6110e2866040015162ffffff16611efb565b6080870151909150611100906001600160a01b031687878787611f23565b5f61110a87611c77565b90505f61111688611f9c565b5f848152600860205260409020909250611133915088838661211b565b6080890151909450611152906001600160a01b03168989878a8a6121e1565b87602001516001600160a01b0316885f01516001600160a01b0316837f3fd553db44f207b1f41348cfc4d251860814af9eadc470e8e7895e4d120511f48b604001518c606001518d608001516040516111d19392919062ffffff93909316835260029190910b60208301526001600160a01b0316604082015260600190565b60405180910390a4505050949350505050565b5f6111ed611a2e565b6111f5611a79565b6112125760405163eab072a760e01b815260040160405180910390fd5b6001600160a01b0382165f818152600760205260409020549061123490612213565b6001600160a01b0384165f908152600760205260409020819055611259908290614f51565b915061126883610b8484611aad565b50919050565b5f828152600860209081526040808320600185900b8452600501909152812054610b3a565b606061129d611a79565b156112bb576040516317c3335f60e21b815260040160405180910390fd5b6112c361228f565b6040516355b148ff60e11b8152339063ab6291fe906112e89086908690600401614fda565b5f604051808303815f875af1158015611303573d5f803e3d5ffd5b505050506040513d5f823e601f3d908101601f1916820160405261132a9190810190614fed565b9050611334611e89565b1561135257604051635212cba160e01b815260040160405180910390fd5b610a186122c4565b6002545f906001600160a01b03163314611387576040516348f5c3ed60e01b815260040160405180910390fd5b811561139357816113ac565b6001600160a01b0383165f908152600160205260409020545b6001600160a01b0384165f908152600160205260408120805492935083929091906113d8908490614f51565b90915550610b3a90506001600160a01b0384168583611b6d565b60408201516280000016158061141e575081608001516001600160a01b0316336001600160a01b031614155b1561143c5760405163854b0b8560e01b815260040160405180910390fd5b61144a8162ffffff166122f8565b5f61145483611c77565b5f818152600860205260409020909150610bca9083612320565b5f8061147983611f9c565b915091508161149b5760405163e7ca185f60e01b815260040160405180910390fd5b5f6114a584611c77565b5f8181526008602052604090209091506114bf9083612367565b60405161ffff8316815281907f9f9496a7bce5dc5951d2db4c6bac380c9bcbcc9a4e9c18eafbcc231d06de481a9060200160405180910390a250505050565b5f611507611a2e565b61150f611a79565b61152c5760405163eab072a760e01b815260040160405180910390fd5b5f61153686611c77565b905061154181611ca6565b608086015161155c906001600160a01b0316878787876123ac565b6115c56040518060a00160405280336001600160a01b03168152602001875f015160020b8152602001876020015160020b815260200161159f886040015161243c565b600f0b8152606089015160020b6020918201525f84815260089091526040902090612461565b91506115d18683611e30565b845160208601516040808801519051339385937f541c041c2cce48e614b3de043c9280f06b6164c0a1741649e2de3c3d375f79749361162893600293840b81529190920b6020820152604081019190915260600190565b60405180910390a3608086015161164c906001600160a01b0316878785888861286b565b50949350505050565b5f610ed8611a79565b5f611667611a2e565b61166f611a79565b61168c5760405163eab072a760e01b815260040160405180910390fd5b5f61169686611c77565b90506116a181611ca6565b60808601516116bc906001600160a01b0316878787876128ff565b5f806116c661489f565b61172660405180608001604052808b6060015160020b81526020018a5f0151151581526020018a6020015181526020018a604001516001600160a01b031681525060085f8781526020019081526020015f2061293390919063ffffffff16565b9297509094509250905061173a8986611e30565b8215611779578260015f8a5f0151611756578b60200151611759565b8b515b6001600160a01b0316815260208101919091526040015f20805490910190555b33847f40e9cecb9f5f1f1c5b9c97dec2917b7ee92e57ba5563708daca94dd84ad7112f6117a68860801c90565b60408581015160a0808801516060808a01518551600f97880b8152968f900b60208801526001600160a01b03909416868601526001600160801b039091169085015260029190910b608084015262ffffff881690830152519081900360c00190a36080890151611823906001600160a01b03168a8a888b8b61309f565b50505050949350505050565b611837611a2e565b61183f611a79565b61185c5760405163eab072a760e01b815260040160405180910390fd5b61186982610b8483611aad565b610bca8383836130d5565b5f336001600160a01b038616148015906118b157506001600160a01b0385165f90815260036020908152604080832033845290915290205460ff16155b15611921576001600160a01b0385165f90815260056020908152604080832033845282528083208684529091529020545f19811461191f576118f38382614f51565b6001600160a01b0387165f90815260056020908152604080832033845282528083208884529091529020555b505b6001600160a01b0385165f90815260046020908152604080832086845290915281208054849290611953908490614f51565b90915550506001600160a01b0384165f9081526004602090815260408083208684529091528120805484929061198a908490614f64565b9091555050604080513381526020810184905284916001600160a01b0380881692908916915f8051602061549c833981519152910160405180910390a4506001949350505050565b6040805160609490941b6bffffffffffffffffffffffff191660208086019190915260e893841b60348601529190921b60378401528151601a818503018152603a90930182528251928101929092205f90815292909152902090565b306001600160a01b037f00000000000000000000000000000000000000000000000000000000000000001614611a77576040516306c4a1c760e11b815260040160405180910390fd5b565b5f80611aa660017f3e061da06d9da7c1d2a497a320750161d58a0fc1d9a008f9c4f3d1606155d86f614f51565b5c92915050565b5f60016001607f1b03821115611ad6576040516393dafdf160e01b815260040160405180910390fd5b5090565b80600f0b5f03611ae8575050565b335f9081526006602090815260408083206001600160a01b038616845290915281205490611b1a600f84900b8361508a565b9050805f03611b3057611b2b613193565b611b3f565b815f03611b3f57611b3f6131cd565b335f9081526006602090815260408083206001600160a01b0397909716835295905293909320929092555050565b5f6001600160a01b038416611ba9575f805f8085875af1905080611ba457604051633d2cec6f60e21b815260040160405180910390fd5b611bff565b60405163a9059cbb60e01b5f52836004528260245260205f60445f80895af13d15601f3d1160015f511416171691505f606052806040525080611bff57604051633c9fd93960e21b815260040160405180910390fd5b50505050565b6001600160a01b0383165f90815260046020908152604080832085845290915281208054839290611c37908490614f64565b9091555050604080513381526020810183905283916001600160a01b038616915f915f8051602061549c83398151915291015b60405180910390a4505050565b5f81604051602001611c8991906150f4565b604051602081830303815290604052805190602001209050919050565b5f818152600860205260409020546001600160a01b0316611cda5760405163486aa30760e01b815260040160405180910390fd5b50565b6080850151600160971b1615611d5557611d5563b6a8b0fa60e01b338787878787604051602401611d1396959493929190615102565b60408051601f198184030181529190526020810180516001600160e01b03166001600160e01b0319909316929092179091526001600160a01b03881690613207565b505050505050565b60038301545f906001600160801b03168103611d8c5760405163a74f97ab60e01b815260040160405180910390fd5b611dc6611d9884611aad565b611da190614f77565b611daa84611aad565b611db390614f77565b6001600160801b031660809190911b1790565b90508215611df9576003840154611ded908490600160801b906001600160801b031661324b565b60018501805490910190555b8115610b3a576003840154611e1e908390600160801b906001600160801b031661324b565b60028501805490910190559392505050565b8151611e4090610b848360801c90565b611e4f8260200151610b848390565b5050565b6080850151600160961b1615611d5557611d5563e1b4af6960e01b338787878787604051602401611d1396959493929190615102565b5f80611aa660017f7d4b3164c6e45b97e7d87b7125a44c5828d005af88f9d751cfd78729c5d99a0c614f51565b5f6001600160a01b03831615611eef57600160961b836001600160a01b0316101580611eea57506280000082161515610b3a565b610b3a565b50628000001615919050565b5f62800000821615611f0e57505f919050565b50627fffff8116611f1e816122f8565b919050565b6001609f1b851615611f9557611f95633440d82060e01b3386868686604051602401611f5395949392919061513f565b60408051601f198184030181529190526020810180516001600160e01b03166001600160e01b0319909316929092179091526001600160a01b03871690613207565b5050505050565b6002545f9081906001600160a01b031615612116577f00000000000000000000000000000000000000000000000000000000000000005a1015611ff257604051630f724b8160e11b815260040160405180910390fd5b6002546040515f9182916001600160a01b03909116907f00000000000000000000000000000000000000000000000000000000000000009063553bfc3760e01b906120419089906024016150f4565b60408051601f198184030181529181526020820180516001600160e01b03166001600160e01b031990941693909317909252905161207f9190615186565b5f604051808303815f8787f1925050503d805f81146120b9576040519150601f19603f3d011682016040523d82523d5f602084013e6120be565b606091505b50915091508115806120d1575060208151115b156120e257505f9485945092505050565b602081015161ffff8116811480156120fe57506120fe816132e7565b612109575f8061210d565b6001815b90955093505050505b915091565b83545f906001600160a01b03161561214657604051637983c05160e01b815260040160405180910390fd5b61214f84613356565b604080516080810182526001600160a01b0396909616808752600283900b602088015261ffff9590951690860181905262ffffff938416606090960186905286546001600160b81b031916909417600160a01b938216939093029290921764ffffffffff60b81b1916600160b81b90930262ffffff60c81b191692909217600160c81b90930292909217909255919050565b6001609e1b861615611d5557611d5563a910f80f60e01b338787878787604051602401611d13969594939291906151a1565b5f6001600160a01b038216612229575047919050565b6040516370a0823160e01b81523060048201526001600160a01b038316906370a0823190602401602060405180830381865afa15801561226b573d5f803e3d5ffd5b505050506040513d601f19601f82011682018060405250810190610a1891906151e7565b5f6122bb60017f3e061da06d9da7c1d2a497a320750161d58a0fc1d9a008f9c4f3d1606155d86f614f51565b90506001815d50565b5f6122f060017f3e061da06d9da7c1d2a497a320750161d58a0fc1d9a008f9c4f3d1606155d86f614f51565b90505f815d50565b620f424062ffffff821610611cda57604051637e2df70960e11b815260040160405180910390fd5b81546001600160a01b03166123485760405163486aa30760e01b815260040160405180910390fd5b815462ffffff909116600160c81b0262ffffff60c81b19909116179055565b81546001600160a01b031661238f5760405163486aa30760e01b815260040160405180910390fd5b815461ffff909116600160b81b0261ffff60b81b19909116179055565b5f83604001511380156123c8575060808401516001609d1b1615155b156123f6576123f163a6ab2a4360e01b3386868686604051602401611f539594939291906151fe565b611f95565b5f836040015113158015612413575060808401516001609b1b1615155b15611f9557611f95632b58404e60e01b3386868686604051602401611f539594939291906151fe565b80600f81900b8114611f1e576040516393dafdf160e01b815260040160405180910390fd5b5f6124748260200151836040015161365b565b6040805160c0810182525f80825260208201819052918101829052606081018290526080810182905260a0810182905281906060850151600f0b156125f3576124c786866020015187606001515f6136f7565b6001600160801b0316602083015215158152604085015160608601516124f091889160016136f7565b6001600160801b031660608084019190915290151560408301528501515f600f9190910b13156125b2575f61252886608001516137ce565b9050806001600160801b031682602001516001600160801b0316111561256d57602086015160405163b8e3c38560e01b815260029190910b60048201526024016110c6565b806001600160801b031682606001516001600160801b031611156125b057604080870151905163b8e3c38560e01b815260029190910b60048201526024016110c6565b505b8051156125d157602085015160808601516125d19160058901916137fb565b8060400151156125f357604085015160808601516125f39160058901916137fb565b6126068686602001518760400151613898565b60a083018190526080830182905260608701518751602089015160408a01516126429593949261263a9260068e01926119d2565b92919061394e565b80935081945050505f8560600151600f0b12156126bc5780511561268c5761268c868660200151600290810b5f908152600490920160205260408220828155600181018390550155565b8060400151156126bc57604080860151600290810b5f908152600489016020529182208281556001810183905501555b506060840151600f0b156128445760208401518554600291820b600160a01b90910490910b12156127265761271f6127196127146126fd8760200151613a71565b61270a8860400151613a71565b8860600151613d8c565b61243c565b60801b90565b9250612844565b60408401518554600291820b600160a01b90910490910b121561281357845460408501516127949161276991612714916001600160a01b03169061270a90613a71565b611db361271461277c8860200151613a71565b895460608a01516001600160a01b0390911690613dbf565b92505f8460600151600f0b126127c657606084015160038601546127c191906001600160801b0316615253565b6127ec565b83606001516127d490614f77565b60038601546127ec91906001600160801b031661527a565b6003860180546001600160801b0319166001600160801b0392909216919091179055612844565b6128415f611db361271461282a8860200151613a71565b6128378960400151613a71565b8960600151613dbf565b92505b6128628361285d61285485611aad565b611db385611aad565b613deb565b95945050505050565b5f8460400151138015612887575060808501516001609c1b1615155b156128b7576128b263b505b4ce60e01b338787878787604051602401611d139695949392919061529a565b611d55565b5f8460400151131580156128d4575060808501516001609a1b1615155b15611d5557611d5563c3d5d4e660e01b338787878787604051602401611d139695949392919061529a565b6080840151600160991b1615611f9557611f9563575e24b460e01b3386868686604051602401611f539594939291906152f6565b5f805f61293e61489f565b84604001515f036129625760405163be8b850760e01b815260040160405180910390fd5b6040805160808101825287546001600160a01b0381168252600160a01b810460020b602080840191909152600160b81b820461ffff1693830193909352600160c81b900462ffffff1660608201819052918701519193509015612a6357805f01516001600160a01b031686606001516001600160a01b031610612a125780516060870151604051637c9c6e8f60e01b81526001600160a01b039283166004820152911660248201526044016110c6565b6401000276a36001600160a01b031686606001516001600160a01b031611612a5e576060860151604051639e4d7cc760e01b81526001600160a01b0390911660048201526024016110c6565b612b11565b805f01516001600160a01b031686606001516001600160a01b031611612ab65780516060870151604051637c9c6e8f60e01b81526001600160a01b039283166004820152911660248201526044016110c6565b73fffd8963efd1fc6a506488495d951d5263988d266001600160a01b031686606001516001600160a01b031610612b11576060860151604051639e4d7cc760e01b81526001600160a01b0390911660048201526024016110c6565b6040805180820190915260038801546001600160801b031681526020878101515f9291820190612b4d576008846040015161ffff16901c612b5f565b6101008460400151612b5f9190615353565b60ff1681525090505f8088604001511290506040518060c00160405280896040015181526020015f8152602001845f01516001600160a01b03168152602001846020015160020b81526020018960200151612bbe578a60020154612bc4565b8a600101545b815283516001600160801b03166020918201526040805160e0810182525f808252928101839052908101829052606081018290526080810182905260a0810182905260c08101919091529094505b845115801590612c3c575088606001516001600160a01b031685604001516001600160a01b031614155b15612f925760408501516001600160a01b031681526060850151895160208b0151612c6d9260058e01929091613e17565b1515604083015260020b60208201819052620d89e7191315612c9857620d89e7196020820152612ccc565b612ca5620d89e719615373565b60020b816020015160020b1315612ccc57612cc3620d89e719615373565b60020b60208201525b612cd98160200151613a71565b6001600160a01b03166060820152604085015160208a0151612d5b9190612d1c578a606001516001600160a01b031683606001516001600160a01b031611612d3a565b8a606001516001600160a01b031683606001516001600160a01b0316105b612d48578260600151612d4e565b8a606001515b60a088015188518a613f51565b60c085015260a084015260808301526001600160a01b031660408601528115612dbd57612d918160c00151826080015101614134565b855101855260a0810151612da490614134565b8560200151612db3919061508a565b6020860152612e00565b612dca8160a00151614134565b855103855260c08101516080820151612deb91612de691614f64565b614134565b8560200151612dfa919061538b565b60208601525b602083015160ff1615612e37575f836020015160ff168260c00151612e2591906153aa565b60c08301805182900390529790970196505b60a08501516001600160801b031615612e7657612e6a8160c00151600160801b8760a001516001600160801b031661324b565b60808601805190910190525b80606001516001600160a01b031685604001516001600160a01b031603612f6057806040015115612f37575f612ee18b83602001518c60200151612ebe578d60010154612ec4565b88608001515b8d60200151612ed757896080015161415d565b8e6002015461415d565b9050896020015115612ef0575f035b5f81600f0b12612f0f57808660a00151612f0a9190615253565b612f27565b612f1881614f77565b8660a00151612f27919061527a565b6001600160801b031660a0870152505b8860200151612f4a578060200151612f53565b60018160200151035b60020b6060860152612c12565b805f01516001600160a01b031685604001516001600160a01b031614612f8d57612f538560400151613356565b612c12565b604085015160608601518b546001600160b81b031916600160a01b62ffffff909216919091026001600160a01b031916176001600160a01b03909116178a5560a085015183516001600160801b039182169116146130115760a085015160038b0180546001600160801b0319166001600160801b039092169190911790555b88602001511561302a57608085015160018b0155613035565b608085015160028b01555b811515896020015115150361306d57613066613059865f01518b604001510361243c565b611db3876020015161243c565b9750613092565b61308f61307d866020015161243c565b611db3875f01518c604001510361243c565b97505b5050505092959194509250565b6080850151600160981b1615611d5557611d5563b47b2fb160e01b338787878787604051602401611d13969594939291906153bd565b336001600160a01b038416811480159061311457506001600160a01b038085165f9081526003602090815260408083209385168352929052205460ff16155b15613188576001600160a01b038085165f9081526005602090815260408083209385168352928152828220868352905220545f198114613186576131588382614f51565b6001600160a01b038087165f9081526005602090815260408083209387168352928152828220888352905220555b505b611bff848484614198565b5f6131bf60017f7d4b3164c6e45b97e7d87b7125a44c5828d005af88f9d751cfd78729c5d99a0c614f51565b90505f19815c0180825d5050565b5f6131f960017f7d4b3164c6e45b97e7d87b7125a44c5828d005af88f9d751cfd78729c5d99a0c614f51565b90506001815c0180825d5050565b5f806132138484614201565b91509150816001600160e01b031916816001600160e01b03191614611bff57604051631e048e1d60e01b815260040160405180910390fd5b5f838302815f198587098281108382030391505080841161326a575f80fd5b805f0361327c57508290049050610b3a565b5f848688095f868103871696879004966002600389028118808a02820302808a02820302808a02820302808a02820302808a02820302808a02909103029181900381900460010186841190950394909402919094039290920491909117919091029150509392505050565b5f61ffff82161561334e575f6132ff61010084615353565b905060ff600884901c1661ffff8216158015906133205750600461ffff8316105b8061333d575061ffff81161580159061333d5750600461ffff8216105b1561334b57505f9392505050565b50505b506001919050565b5f6401000276a36001600160a01b0383161080613390575073fffd8963efd1fc6a506488495d951d5263988d266001600160a01b03831610155b156133ae5760405163015680db60e11b815260040160405180910390fd5b640100000000600160c01b03602083901b166001600160801b03811160071b81811c67ffffffffffffffff811160061b90811c63ffffffff811160051b90811c61ffff811160041b90811c60ff8111600390811b91821c600f811160021b90811c918211600190811b92831c9790881196179094179092171790911717176080811061344257607f810383901c915061344c565b80607f0383901b91505b908002607f81811c60ff83811c9190911c800280831c81831c1c800280841c81841c1c800280851c81851c1c800280861c81861c1c800280871c81871c1c800280881c81881c1c800280891c81891c1c8002808a1c818a1c1c8002808b1c818b1c1c8002808c1c818c1c1c8002808d1c818d1c1c8002808e1c9c81901c9c909c1c80029c8d901c9e9d607f198f0160401b60c09190911c678000000000000000161760c19b909b1c674000000000000000169a909a1760c29990991c672000000000000000169890981760c39790971c671000000000000000169690961760c49590951c670800000000000000169490941760c59390931c670400000000000000169290921760c69190911c670200000000000000161760c79190911c670100000000000000161760c89190911c6680000000000000161760c99190911c6640000000000000161760ca9190911c6620000000000000161760cb9190911c6610000000000000161760cc9190911c6608000000000000161760cd9190911c66040000000000001617693627a301d71055774c8581026f028f6481ab7f045a5af012a19d003aa9198101608090811d906fdb2df09e81959a81455e260799a0632f8301901d600281810b9083900b1461364c57886001600160a01b031661363182613a71565b6001600160a01b03161115613646578161364e565b8061364e565b815b9998505050505050505050565b8060020b8260020b1261368f5760405163c4433ed560e01b8152600283810b600483015282900b60248201526044016110c6565b620d89e719600283900b12156136be5760405163d5e2f7ab60e01b8152600283900b60048201526024016110c6565b6136cb620d89e719615373565b60020b8160020b1315611e4f5760405163035aeeff60e31b8152600282900b60048201526024016110c6565b600283900b5f908152600485016020526040812080548291906001600160801b0381169060801c600f87900b8413613738576137338783615253565b61374b565b61374187614f77565b61374b908361527a565b6001600160801b03808216159084168015919091141596509094505f03613798578854600160a01b9004600290810b9089900b13613798576001808a0154908401556002808a0154908401555b5f866137ad576137a88883615406565b6137b7565b6137b78883615433565b90508060801b851784555050505094509492505050565b5f621b13d08201600290810b9083900b6001600160801b0302816137f4576137f461533f565b0492915050565b8060020b8260020b816138105761381061533f565b0760020b1561384057604051636a6c79f360e11b8152600283810b600483015282900b60248201526044016110c6565b5f8061386d8360020b8560020b8161385a5761385a61533f565b0560020b600881901d9161010090910790565b600191820b5f9081526020979097526040909620805460ff9097169190911b90951890945550505050565b600282810b5f81815260048601602052604080822085850b835290822087549294859492939192600160a01b909204900b908112156138f0578160010154836001015403945081600201548360020154039350613943565b8560020b8160020b1261391c578260010154826001015403945082600201548260020154039350613943565b81600101548360010154896001015403039450816002015483600201548960020154030393505b505050935093915050565b6040805160608101825285546001600160801b03168152600186015460208201526002860154918101919091525f90819081600f87900b81036139bd5781516001600160801b03165f036139b557604051632bbfae4960e21b815260040160405180910390fd5b5080516139f1565b5f87600f0b126139d95781516139d4908890615253565b6139ee565b6139e287614f77565b82516139ee919061527a565b90505b613a1282602001518703835f01516001600160801b0316600160801b61324b565b9350613a3582604001518603835f01516001600160801b0316600160801b61324b565b925086600f0b5f14613a5b5787546001600160801b0319166001600160801b0382161788555b5050600186019390935560029094015591929050565b5f805f8360020b12613a86578260020b613a8d565b8260020b5f035b9050620d89e8811115613ab3576040516333a3bdff60e21b815260040160405180910390fd5b5f816001165f03613ac857600160801b613ada565b6ffffcb933bd6fad37aa2d162d1a5940015b70ffffffffffffffffffffffffffffffffff1690506002821615613b0e576ffff97272373d413259a46990580e213a0260801c5b6004821615613b2d576ffff2e50f5f656932ef12357cf3c7fdcc0260801c5b6008821615613b4c576fffe5caca7e10e4e61c3624eaa0941cd00260801c5b6010821615613b6b576fffcb9843d60f6159c9db58835c9266440260801c5b6020821615613b8a576fff973b41fa98c081472e6896dfb254c00260801c5b6040821615613ba9576fff2ea16466c96a3843ec78b326b528610260801c5b6080821615613bc8576ffe5dee046a99a2a811c461f1969c30530260801c5b610100821615613be8576ffcbe86c7900a88aedcffc83b479aa3a40260801c5b610200821615613c08576ff987a7253ac413176f2b074cf7815e540260801c5b610400821615613c28576ff3392b0822b70005940c7a398e4b70f30260801c5b610800821615613c48576fe7159475a2c29b7443b29c7fa6e889d90260801c5b611000821615613c68576fd097f3bdfd2022b8845ad8f792aa58250260801c5b612000821615613c88576fa9f746462d870fdf8a65dc1f90e061e50260801c5b614000821615613ca8576f70d869a156d2a1b890bb3df62baf32f70260801c5b618000821615613cc8576f31be135f97d08fd981231505542fcfa60260801c5b62010000821615613ce9576f09aa508b5b7a84e1c677de54f3e99bc90260801c5b62020000821615613d09576e5d6af8dedb81196699c329225ee6040260801c5b62040000821615613d28576d2216e584f5fa1ea926041bedfe980260801c5b62080000821615613d45576b048a170391f7dc42444e8fa20260801c5b5f8460020b1315613d6457805f1981613d6057613d6061533f565b0490505b640100000000810615613d78576001613d7a565b5f5b60ff16602082901c0192505050919050565b5f8082600f0b12613dae57613da7612de68585856001614294565b5f03610a92565b610a92612de68585855f035f614294565b5f8082600f0b12613dda57613da7612de6858585600161435f565b610a92612de68585855f035f61435f565b5f610b3a613df98360801c90565b613e038560801c90565b613e0d9190615406565b611db38486615406565b5f805f8460020b8660020b81613e2f57613e2f61533f565b0590505f8660020b128015613e5b57508460020b8660020b81613e5457613e5461533f565b0760020b15155b15613e64575f19015b8315613ed657600281900b600881901d600181810b5f90815260208b9052604090205461010090930760ff81169190911b80015f190192831680151595509192909185613eb857888360ff16860302613ecb565b88613ec2826143dc565b840360ff168603025b965050505050613f47565b600181810160020b600881901d80830b5f90815260208b9052604090205461010090920760ff81169390931b5f19011991821680151595509092919085613f2a57888360ff0360ff16866001010102613f40565b8883613f358361447a565b0360ff168660010101025b9650505050505b5094509492505050565b5f8080806001600160a01b03808916908a1610158187128015613fd5575f613f89895f0389620f42400362ffffff16620f424061324b565b905082613fa257613f9d8c8c8c600161435f565b613faf565b613faf8b8d8c6001614294565b9550858110613fc0578a9650613fcf565b613fcc8c8b8386614561565b96505b50614017565b81613feb57613fe68b8b8b5f614294565b613ff7565b613ff78a8c8b5f61435f565b935083881061400857899550614017565b6140148b8a8a856145bc565b95505b6001600160a01b038a8116908716148215614079578080156140365750815b61404c57614047878d8c6001614294565b61404e565b855b955080801561405b575081155b6140705761406b878d8c5f61435f565b614072565b845b94506140c2565b8080156140835750815b614099576140948c888c600161435f565b61409b565b855b95508080156140a8575081155b6140bd576140b88c888c5f614294565b6140bf565b845b94505b811580156140cf57508885115b156140d8578894505b8180156140f757508a6001600160a01b0316876001600160a01b031614155b156141085785895f03039350614125565b614122868962ffffff168a620f42400362ffffff16614615565b93505b50505095509550955095915050565b5f6001600160ff1b03821115611ad6576040516393dafdf160e01b815260040160405180910390fd5b600292830b5f90815260049094016020526040909320600181018054909203909155908101805490920390915554600160801b9004600f0b90565b6001600160a01b0383165f908152600460209081526040808320858452909152812080548392906141ca908490614f51565b9091555050604080513381526020810183905283915f916001600160a01b038716915f8051602061549c8339815191529101611c6a565b5f80602083015191505f80856001600160a01b0316856040516142249190615186565b5f604051808303815f865af19150503d805f811461425d576040519150601f19603f3d011682016040523d82523d5f602084013e614262565b606091505b5091509150816142755761427581614651565b808060200190518101906142899190615460565b925050509250929050565b5f836001600160a01b0316856001600160a01b031611156142b3579293925b600160601b600160e01b03606084901b166001600160a01b0386860381169087165f036142f25760405162bfc92160e01b815260040160405180910390fd5b8361432857866001600160a01b03166143158383896001600160a01b031661324b565b816143225761432261533f565b04614354565b61435461433f8383896001600160a01b0316614615565b886001600160a01b0316808204910615150190565b979650505050505050565b5f836001600160a01b0316856001600160a01b0316111561437e579293925b816143b2576143ad6001600160801b03841661439a878761547b565b6001600160a01b0316600160601b61324b565b612862565b6128626001600160801b0384166143c9878761547b565b6001600160a01b0316600160601b614615565b5f8082116143e8575f80fd5b600160801b82106143fb57608091821c91015b68010000000000000000821061441357604091821c91015b640100000000821061442757602091821c91015b62010000821061443957601091821c91015b610100821061444a57600891821c91015b6010821061445a57600491821c91015b6004821061446a57600291821c91015b60028210611f1e57600101919050565b5f808211614486575f80fd5b5060ff6001600160801b038216156144a157607f19016144a9565b608082901c91505b67ffffffffffffffff8216156144c257603f19016144ca565b604082901c91505b63ffffffff8216156144df57601f19016144e7565b602082901c91505b61ffff8216156144fa57600f1901614502565b601082901c91505b60ff821615614514576007190161451c565b600882901c91505b600f82161561452e5760031901614536565b600482901c91505b60038216156145485760011901614550565b600282901c91505b6001821615611f1e575f1901919050565b5f6001600160a01b038516158061457f57506001600160801b038416155b1561459d576040516309e48c3760e31b815260040160405180910390fd5b816145af576143ad858585600161467a565b6128628585856001614771565b5f6001600160a01b03851615806145da57506001600160801b038416155b156145f8576040516309e48c3760e31b815260040160405180910390fd5b81614609576143ad8585855f614771565b6128628585855f61467a565b5f61462184848461324b565b90505f82806146325761463261533f565b8486091115610b3a575f198110614647575f80fd5b6001019392505050565b80515f03614672576040516336bc48c560e01b815260040160405180910390fd5b805181602001fd5b5f81156146ea575f6001600160a01b038411156146ae576146a984600160601b876001600160801b031661324b565b6146c5565b6146c56001600160801b038616606086901b6153aa565b90506146e26146dd826001600160a01b038916614f64565b614875565b915050610a92565b5f6001600160a01b038411156147175761471284600160601b876001600160801b0316614615565b614734565b614734606085901b6001600160801b038716808204910615150190565b905080866001600160a01b03161161475f57604051634323a55560e01b815260040160405180910390fd5b6001600160a01b038616039050610a92565b5f825f03614780575083610a92565b600160601b600160e01b03606085901b168215614812576001600160a01b038616848102908582816147b4576147b461533f565b04036147e4578181018281106147e2576147d883896001600160a01b031683614615565b9350505050610a92565b505b506146e281856147fd6001600160a01b038a16836153aa565b6148079190614f64565b808204910615150190565b6001600160a01b0386168481029085828161482f5761482f61533f565b0414158061483d5750808211155b1561485b5760405163f5c787f160e01b815260040160405180910390fd5b8082036147d86146dd846001600160a01b038b1684614615565b806001600160a01b0381168114611f1e576040516393dafdf160e01b815260040160405180910390fd5b6040518060c001604052805f81526020015f81526020015f6001600160a01b031681526020015f60020b81526020015f81526020015f6001600160801b031681525090565b6001600160a01b0381168114611cda575f80fd5b5f8060408385031215614909575f80fd5b8235614914816148e4565b946020939093013593505050565b6001600160e01b031981168114611cda575f80fd5b5f60208284031215614947575f80fd5b8135610b3a81614922565b8035600281900b8114611f1e575f80fd5b5f805f8060808587031215614976575f80fd5b843593506020850135614988816148e4565b925061499660408601614952565b91506149a460608601614952565b905092959194509250565b5f805f606084860312156149c1575f80fd5b83356149cc816148e4565b95602085013595506040909401359392505050565b5f805f606084860312156149f3575f80fd5b83356149fe816148e4565b92506020840135614a0e816148e4565b929592945050506040919091013590565b5f60208284031215614a2f575f80fd5b8135610b3a816148e4565b5f60208284031215614a4a575f80fd5b5035919050565b634e487b7160e01b5f52604160045260245ffd5b6040516060810167ffffffffffffffff81118282101715614a8857614a88614a51565b60405290565b803562ffffff81168114611f1e575f80fd5b5f60a08284031215614ab0575f80fd5b60405160a0810181811067ffffffffffffffff82111715614ad357614ad3614a51565b6040529050808235614ae4816148e4565b81526020830135614af4816148e4565b6020820152614b0560408401614a8e565b6040820152614b1660608401614952565b60608201526080830135614b29816148e4565b6080919091015292915050565b5f8083601f840112614b46575f80fd5b50813567ffffffffffffffff811115614b5d575f80fd5b602083019150836020828501011115614b74575f80fd5b9250929050565b5f805f805f6101008688031215614b90575f80fd5b614b9a8787614aa0565b945060a0860135935060c0860135925060e086013567ffffffffffffffff811115614bc3575f80fd5b614bcf88828901614b36565b969995985093965092949392505050565b5f8060408385031215614bf1575f80fd5b50508035926020909101359150565b5f5b83811015614c1a578181015183820152602001614c02565b50505f910152565b602081525f8251806020840152614c40816040850160208701614c00565b601f01601f19169190910160400192915050565b80358015158114611f1e575f80fd5b5f8060408385031215614c74575f80fd5b8235614c7f816148e4565b9150614c8d60208401614c54565b90509250929050565b5f8060408385031215614ca7575f80fd5b82359150614c8d60208401614952565b5f805f8060e08587031215614cca575f80fd5b614cd48686614aa0565b935060a0850135614ce4816148e4565b925060c085013567ffffffffffffffff811115614cff575f80fd5b614d0b87828801614b36565b95989497509550505050565b5f8060408385031215614d28575f80fd5b8235915060208301358060010b8114614d3f575f80fd5b809150509250929050565b5f8060208385031215614d5b575f80fd5b823567ffffffffffffffff811115614d71575f80fd5b614d7d85828601614b36565b90969095509350505050565b5f8060c08385031215614d9a575f80fd5b614da48484614aa0565b9150614c8d60a08401614a8e565b5f8060408385031215614dc3575f80fd5b8235614dce816148e4565b91506020830135614d3f816148e4565b5f60a08284031215614dee575f80fd5b610b3a8383614aa0565b5f805f80848603610120811215614e0d575f80fd5b614e178787614aa0565b94506060609f1982011215614e2a575f80fd5b50614e33614a65565b614e3f60a08701614952565b8152614e4d60c08701614952565b602082015260e08601356040820152925061010085013567ffffffffffffffff811115614cff575f80fd5b5f805f80848603610120811215614e8d575f80fd5b614e978787614aa0565b94506060609f1982011215614eaa575f80fd5b50614eb3614a65565b614ebf60a08701614c54565b815260c0860135602082015260e0860135614ed9816148e4565b6040820152925061010085013567ffffffffffffffff811115614cff575f80fd5b5f805f8060808587031215614f0d575f80fd5b8435614f18816148e4565b93506020850135614f28816148e4565b93969395505050506040820135916060013590565b634e487b7160e01b5f52601160045260245ffd5b81810381811115610a1857610a18614f3d565b80820180821115610a1857610a18614f3d565b5f81600f0b60016001607f1b03198103614f9357614f93614f3d565b5f0392915050565b8082028115828204841417610a1857610a18614f3d565b81835281816020850137505f828201602090810191909152601f909101601f19169091010190565b602081525f610a92602083018486614fb2565b5f60208284031215614ffd575f80fd5b815167ffffffffffffffff80821115615014575f80fd5b818401915084601f830112615027575f80fd5b81518181111561503957615039614a51565b604051601f8201601f19908116603f0116810190838211818310171561506157615061614a51565b81604052828152876020848701011115615079575f80fd5b614354836020830160208801614c00565b8082018281125f8312801582168215821617156150a9576150a9614f3d565b505092915050565b80516001600160a01b03908116835260208083015182169084015260408083015162ffffff169084015260608083015160020b9084015260809182015116910152565b60a08101610a1882846150b1565b6001600160a01b03871681525f61012061511f60208401896150b1565b8660c08401528560e08401528061010084015261364e8184018587614fb2565b6001600160a01b0386811682525f906101009061515f60208501896150b1565b861660c084015260e0830181905261517a8184018587614fb2565b98975050505050505050565b5f8251615197818460208701614c00565b9190910192915050565b6001600160a01b0387811682525f90610120906151c1602085018a6150b1565b80881660c0850152508560020b60e08401528061010084015261364e8184018587614fb2565b5f602082840312156151f7575f80fd5b5051919050565b6001600160a01b03861681525f61014061521b60208401886150b1565b8551600290810b60c08501526020870151900b60e084015260408601516101008401525b8061012084015261517a8184018587614fb2565b6001600160801b0381811683821601908082111561527357615273614f3d565b5092915050565b6001600160801b0382811682821603908082111561527357615273614f3d565b6001600160a01b03871681525f6101606152b760208401896150b1565b8651600290810b60c08501526020880151900b60e084015260408701516101008401525b856101208401528061014084015261364e8184018587614fb2565b6001600160a01b03861681525f61014061531360208401886150b1565b8551151560c0840152602086015160e084015260408601516001600160a01b031661010084015261523f565b634e487b7160e01b5f52601260045260245ffd5b5f61ffff808416806153675761536761533f565b92169190910692915050565b5f8160020b627fffff198103614f9357614f93614f3d565b8181035f83128015838313168383128216171561527357615273614f3d565b5f826153b8576153b861533f565b500490565b6001600160a01b03871681525f6101606153da60208401896150b1565b8651151560c0840152602087015160e084015260408701516001600160a01b03166101008401526152db565b600f81810b9083900b0160016001607f1b03811360016001607f1b031982121715610a1857610a18614f3d565b600f82810b9082900b0360016001607f1b0319811260016001607f1b0382131715610a1857610a18614f3d565b5f60208284031215615470575f80fd5b8151610b3a81614922565b6001600160a01b0382811682821603908082111561527357615273614f3d56fe1b3d7edb2e9c0b0e7c525b20aaaef0f5940d2ed71663c7d39266ecafac728859a26469706673582212206acc3697435a8b243a70ae61de8537beece5cfe9d49ee4fee40d728f67aa9f4c64736f6c63430008180033","linkReferences":{}},"methodIdentifiers":{"MAX_TICK_SPACING()":"60460f06","MIN_PROTOCOL_FEE_DENOMINATOR()":"84e41c5e","MIN_TICK_SPACING()":"07eff0dd","allowance(address,address,uint256)":"598af9e7","approve(address,uint256,uint256)":"426a8493","balanceOf(address,uint256)":"00fdd58e","burn(address,uint256,uint256)":"f5298aca","collectProtocolFees(address,address,uint256)":"8161b874","currencyDelta(address,address)":"a54b2831","donate((address,address,uint24,int24,address),uint256,uint256,bytes)":"234266d7","extsload(bytes32)":"1e2eaeaf","extsload(bytes32,uint256)":"35fd631a","getLiquidity(bytes32)":"fa6793d5","getLiquidity(bytes32,address,int24,int24)":"33aa955b","getLockNonzeroDeltaCount()":"46063d05","getPoolBitmapInfo(bytes32,int16)":"7c352ef6","getPoolTickInfo(bytes32,int24)":"5aa208a4","getPosition(bytes32,address,int24,int24)":"048d9c70","getSlot0(bytes32)":"c815641c","initialize((address,address,uint24,int24,address),uint160,bytes)":"695c5bf5","isLockSet()":"d9b054b4","isOperator(address,address)":"b6363cf2","lock(bytes)":"81548319","mint(address,uint256,uint256)":"156e29f6","modifyLiquidity((address,address,uint24,int24,address),(int24,int24,int256),bytes)":"bec999dd","owner()":"8da5cb5b","pools(bytes32)":"b5217bb4","protocolFeeController()":"f02de3b2","protocolFeesAccrued(address)":"97e8cd4e","reservesOf(address)":"93c85a21","setOperator(address,bool)":"558a7297","setOwner(address)":"13af4035","setProtocolFee((address,address,uint24,int24,address))":"b02375ce","setProtocolFeeController(address)":"2d771389","settle(address)":"6a256b29","supportsInterface(bytes4)":"01ffc9a7","swap((address,address,uint24,int24,address),(bool,int256,uint160),bytes)":"f3cd914c","take(address,address,uint256)":"0b0d9c09","transfer(address,uint256,uint256)":"095bcdb6","transferFrom(address,address,uint256,uint256)":"fe99049a","updateDynamicSwapFee((address,address,uint24,int24,address),uint24)":"a412b9d8"},"id":24}